:020000040800F2
:10000000F84E0020DD01000877110008410C0008BF
:1000100075110008A3080008E11E00080000000098
:100020000000000000000000000000004501000882
:10003000830B00080000000089010008091800086F
:10004000F7010008F7010008F7010008F7010008B0
:10005000F7010008F7010008F7010008F7010008A0
:10006000F7010008F7010008F7010008F701000890
:10007000F7010008F7010008F7010008F908000877
:10008000F7010008F7010008F7010008F701000870
:10009000F7010008F7010008F7010008F701000860
:1000A000F7010008F7010008F7010008F701000850
:1000B000F7010008F7010008F7010008F701000840
:1000C000F7010008F7010008F7010008F701000830
:1000D000F7010008491C0008E51C0008F7010008AA
:1000E000F7010008F7010008F7010008F701000810
:1000F000F7010008F7010008F7010008F701000800
:10010000F7010008F7010008F7010008F7010008EF
:10011000F7010008F7010008F7010008F7010008DF
:10012000F7010008F7010008F7010008F7010008CF
:10013000DFF80CD000F088FA00480047152C0008C2
:10014000F84E0020224B19680868B0E8F00F80F3E1
:100150000988BFF36F8F4FF0000080F311884EF0D5
:100160000D0E70470000000006480068006880F32C
:10017000088862B661B6BFF34F8FBFF36F8F00DFA1
:1001800000BF00BF08ED00E0EFF30980BFF36F8F01
:100190000F4B1A6820E9F00F106008B54FF05000BF
:1001A00080F31188BFF34F8FBFF36F8F03F09EFB77
:1001B0004FF0000080F31188BDE808401968086816
:1001C000B0E8F00F80F30988BFF36F8F704700BF6E
:1001D00034000020EFF30580704700000648804798
:1001E00006480047FEE7FEE7FEE7FEE7FEE7FEE71C
:1001F000FEE7FEE7FEE7FEE78D1800083101000884
:1002000040EA01039B0703D009E008C9121F08C098
:10021000042AFAD203E011F8013B00F8013B521E18
:10022000F9D27047D2B201E000F8012B491EFBD28F
:1002300070470022F6E710B513460A4604461946F1
:10024000FFF7F0FF204610BD30B50B4601460020F9
:100250002022012409E021FA02F59D4205D303FA88
:1002600002F5491B04FA02F52844151EA2F1010209
:10027000F1DC30BD2DE9F05F0546002092469B463B
:1002800088460646814640241BE0284641464746AC
:10029000224600F0FAF953465A46C01A914110D34B
:1002A00011461846224600F0E1F92D1A67EB0108C5
:1002B0004F4622460120002100F0D8F917EB000933
:1002C0004E41201EA4F10104DFDC484631462A4697
:1002D0004346BDE8F09F2DE9FE4F804681EA0300CA
:1002E000C00F0C46009021F0004123F00045B8EB10
:1002F0000200A94105D24046214690461C460B46C5
:10030000024623F00040104347D0270DC7F30A00F0
:10031000C3F30A510290401A019040286BDAC3F3EC
:10032000130040F4801B0098924620B10023D2EBCA
:10033000030A63EB0B0B01985946C0F1400250468B
:1003400000F094F906460D4650465946019A00F0D1
:10035000ACF910EB08006141002487EA115284EAED
:10036000E7731A4340D0009A62B3019A012A4FEA18
:10037000075215DC001B61EB02014FF0004202EA5C
:100380000752CDE90042001C41F5801132462B4650
:1003900000F0ACF903B0BDE8F08F40462146F9E724
:1003A000001B61EB0201001C41F5801300185B414A
:1003B0002018A2F5001747EB030140EAD570B619E3
:1003C0006D4111E06D084FEA360645EAC0754FEA07
:1003D0000752001B61EB0201001C41F58011490826
:1003E0004FEA30000019514132462B4603B0BDE8B8
:1003F000F04F00F06CB90098012240000023D0EBD0
:10040000020263EBE073009821464FEAE074B8EB18
:10041000000061EB0401E9E783F000435BE781F052
:10042000004158E72DE9FE4F81EA030404F000443F
:1004300021F0004100944FF0000B23F0004350EAFC
:1004400001045ED052EA03045BD0C3F30A54C1F343
:100450000A552C44A4F2F3340194A0FB0254C1F3D6
:10046000130141F48011C3F3130343F4801301FB20
:10047000024400FB034E840A970A44EA815447EA87
:100480008357A4FB076802958D0A05FB07854FEA91
:10049000932C04FB0C542705029D4FEA065847EAAB
:1004A0001637B5EB08056EEB070C870E920E47EA80
:1004B000811742EA8312A7FB0201B6EB0B0164EB42
:1004C00000042B0D43EA0C335E1844EB1C50DA4653
:1004D0005146E7FB0201C5F313044FEA0B3343EA2D
:1004E00014534FEA0432019C43EA0603A4F10C04BE
:1004F0000294009CCDE900B400F0F8F803B0BDE828
:10050000F08F00200146F9E72DE9F04D81EA030460
:1005100004F0004B21F0004514464FF0000A23F090
:10052000004150EA050220D054EA01021DD0C5F373
:100530000A570246C5F31303C1F31300C1F30A5669
:1005400040F4801543F48013A7EB0608101BD64631
:1005500008F2FD3873EB050002D308F1010801E051
:1005600092185B41B8F1000F03DA00200146BDE8A4
:10057000F08D00204FF48011064684460EE0171BD4
:1005800073EB050705D3121B63EB050306434CEA27
:10059000010C49084FEA300092185B4150EA01070C
:1005A000EDD152EA030012D082EA040083EA050189
:1005B000084305D0101BAB4106D20122002306E000
:1005C00000224FF0004302E06FF0010253101AEBDB
:1005D00006004CEB085110EB0A0041EB0B01BDE8A3
:1005E000F04D00F074B8C1F30A52C1F3130140F2A8
:1005F000FF3341F480119A4202DA0020014670472D
:1006000040F233439A42A2F2334202DC524200F0FB
:100610003CB800F02BB8000030B5041E71F10004A6
:1006200004DB4FF00044404264EB0101141E73F1FF
:10063000000405DB1C464FF00043524263EB040309
:10064000994208BF904230BD064C074D06E0E06875
:1006500040F0010394E8070098471034AC42F6D309
:10066000FFF76AFD5C5A00087C5A0008202A04DB68
:10067000203A00FA02F1002070479140C2F12003B5
:1006800020FA03F3194390407047202A04DB203AF4
:1006900021FA02F00021704721FA02F3D040C2F1A2
:1006A00020029140084319467047202A06DBCB17E9
:1006B000203A41FA02F043EAE07306E041FA02F31D
:1006C000D040C2F12002914008431946704710B54E
:1006D000141E73F1000408DA401C41F10001921865
:1006E0005B411A4301D120F0010010BD2DE9F04D0E
:1006F00092469B4611B1B1FA81F202E0B0FA80F263
:1007000020329046FFF7B2FF04460F4640EA0A0047
:1007100041EA0B0153465A46084313D0114653EAA7
:10072000010019D0C8F140025046FFF7AEFF054660
:100730000E46504659464246FFF798FF084305D0FB
:10074000012004E020463946BDE8F08D0020054335
:1007500046EAE0762C4337430A986305E40AA0EBA7
:1007600008000022FD0A44EA47540A3002D500205E
:100770000146E9E7010510196941DDE9084500195D
:100780006941BDE8F04DA2E7002904D0816841F03D
:10079000010181607047816821F00101816070472B
:1007A000C06C80B270470246002012680A4200D036
:1007B00001207047014600208968090700D5012003
:1007C0007047000010B542680E4B1A400C790B6858
:1007D00042EA04221343436082680B4B1A40D1E97A
:1007E000024323434C7942EA440213438360C26AC2
:1007F00022F47002097C491EC9B242EA0151C16269
:1008000010BD0000FFFEF0FFFDF7F1FF70B50726F9
:1008100009290AD9C568A1F10A0404EB4404A640D9
:10082000B543A3401D43C56007E0056901EB4104E2
:10083000A640B543A3401D4305611F23072A09D2E3
:10084000446B521E02EB820293409C4391400C4346
:10085000446370BD0D2A09D2046BD21F02EB8202E1
:1008600093409C4391400C43046370BDC46A0D3AAD
:1008700002EB820293409C4391400C43C46270BDE2
:10088000816841F0080181607047002904D08168C7
:1008900041F4A00181607047816821F4A00181606A
:1008A0007047FEE710B500F081FE012000F01EFF4A
:1008B000212000F0F1FE0028FAD0002000F00CFF0B
:1008C0004FF4806000F018FF002000F01FFF4FF48D
:1008D0002011002000F02AFF012000F021FF392024
:1008E00000F0DAFE0028FAD0022000F029FF00F024
:1008F000EBFE0828FBD110BD10B54FF400342046A4
:1009000000F0D2F8012810D06400204600F0CCF8A6
:10091000012815D06400204600F0C6F801281AD13D
:100920002046BDE8104000F025B80B4A4021A2F156
:10093000400000F0F4F82046BDE8104000F01AB87E
:10094000054A4021A2F1800000F0E9F82046BDE808
:10095000104000F00FB810BDAC010020C10002D55E
:100960000249086070470249486070470404024029
:1009700000000240C10002D50249086070470249E8
:10098000486070470404024000000240002904D07F
:10099000016841F001010160704701684FF6FE7285
:1009A000114001607047000001684FF6FE7211406F
:1009B00001600021016041608160C1603649364AB2
:1009C0000839904204D1486840F00F0048607047F1
:1009D000314A1432904204D1486840F0F000486037
:1009E00070472D4A2832904204D1486840F4706024
:1009F00048607047284A3C32904204D1486840F42D
:100A0000704048607047244A5032904204D1486890
:100A100040F47020486070471F4A6432904204D10D
:100A2000486840F47000486070471B4A7832904232
:100A300004D1486840F0706048607047174A111F41
:100A4000904204D1086840F00F0008607047134AD4
:100A50001432904204D1086840F0F00008607047FA
:100A60000E4A2832904204D1086840F47060086051
:100A700070470A4A3C32904204D1086840F4704002
:100A800008607047054A50329042FAD1086840F435
:100A9000702008607047000008000240080402400F
:100AA000406880B27047000002460020D10002D5A5
:100AB0000449096801E004490968114200D0012095
:100AC000704700000004024000000240002A03D0EA
:100AD00002680A430260704702688A4302607047F6
:100AE00030B5026847F6F0739A430C6A8B6823436B
:100AF000D1E904452C4323438C692343CC69234328
:100B00004C6A23438C6A234313430360CA684260E0
:100B10000A6882604968C16030BD416070472DE954
:100B2000F04107460D461446002F11D0002C0FD07F
:100B3000D4F800044119B1F5806F0BD220442A4645
:100B40003946FFF75DFBD4F800042844C4F80004DC
:100B5000BDE8F081C0F58066204432463946FFF793
:100B60004FFBAA1B1546B9192046FFF749FBC4F8ED
:100B70000054D4F804048542EAD3012084F8080420
:100B8000E6E770472DE9F0410022CC7804F00F032E
:100B9000E40601D58C7823430C784FF00F0714F04E
:100BA000FF0F4FF0010C1CD005680CFA02F40E8800
:100BB0002640A64211D1960007FA06F825EA080554
:100BC00003FA06F848EA0505CE78282E02D0482E0A
:100BD00002D002E0446100E00461521C082AE4D320
:100BE00005600A88FF2A1ED94568002202F108061E
:100BF0000CFA06F40E882640A64210D1960007FA99
:100C000006F825EA080503FA06F848EA0505CE784D
:100C1000282E00D14461CE78482E00D10461521CA8
:100C2000082AE3D34560BDE8F081024600209268BF
:100C30000A4200D00120704741617047016170474E
:100C4000FEE7000070B50E4D4FF4007421462846B3
:100C5000FFF7F4FF661031462846FFF7EFFF01204B
:100C600002F096FD21462846FFF7E6FF012002F03C
:100C70008FFD31462846BDE87040FFF7DDBF00001C
:100C8000000C014070B50B4D4FF40074214628460E
:100C9000FFF7D2FF61102846FFF7D0FF012002F0D6
:100CA00077FD21462846FFF7C9FFBDE870400120C7
:100CB00002F06EBD000C01402DE9F0410024144DFE
:100CC0004FF4007631462846FFF7B8FF012002F0C6
:100CD0005FFDAF1539462846FFF7B0FF012002F04F
:100CE00057FD08E0641CE4B2FA2C04D9FFF7CAFFF0
:100CF0000120BDE8F08131462846FFF796FF002825
:100D0000F0D139462846FFF797FF0020F1E70000B1
:100D1000000C01402DE9F04105460024124E4FF42D
:100D20000078B715280604D541463046FFF786FF00
:100D300003E041463046FFF77FFF6806050E39465F
:100D40003046FFF77BFF012002F022FD3946304696
:100D5000FFF772FF012002F01BFD641CE4B2082CB7
:100D6000E0D3BDE8F0810000000C0140002501F057
:100D70001AFF01F021FF0446002C20D0AC421ED007
:100D8000072C1CD2DFE804F01B04080C1014180018
:100D90000DA001F07BF912E011A001F077F90EE04F
:100DA00015A001F073F90AE019A001F06FF906E04F
:100DB0001DA001F06BF902E021A001F067F92546C2
:100DC000142002F0E5FCD4E7E68C89E994AE4B31BF
:100DD000E8A2ABE68C89E4B88B5C720A00000000E4
:100DE000E68C89E994AE4B32E8A2ABE68C89E4B894
:100DF0008B5C720A00000000E68C89E994AE4B33EC
:100E0000E8A2ABE68C89E4B88B5C720A00000000B3
:100E1000E68C89E994AE4B34E8A2ABE68C89E4B861
:100E20008B5C720A00000000E68C89E994AE4B35B9
:100E3000E8A2ABE68C89E4B88B5C720A0000000083
:100E4000E68C89E994AE4B36E8A2ABE68C89E4B82F
:100E50008B5C720A00000000F8B54FF40045ADF855
:100E6000005010248DF8034003208DF80200104E2E
:100E700069463046FFF786FE29463046FFF7DEFE1C
:100E8000A502ADF800508DF8034069463046FFF7E3
:100E900079FE29463046FFF7CFFE6102ADF800101B
:100EA00004218DF8031069463046FFF76BFEF8BD4C
:100EB000000C0140F8B54FF40045ADF80050102487
:100EC0008DF8034003208DF80200104E694630462D
:100ED000FFF758FE29463046FFF7AEFEA502ADF8F3
:100EE00000508DF8034069463046FFF74BFE294617
:100EF0003046FFF7A3FE6102ADF8001004218DF823
:100F0000031069463046FFF73DFEF8BD000C014076
:100F1000F8B54FF40055ADF8005010248DF803409B
:100F200003208DF80200104E69463046FFF72AFE76
:100F300029463046FFF782FEE502ADF800508DF8F5
:100F4000034069463046FFF71DFE29463046FFF74D
:100F500073FEA102ADF8001004218DF8031069465C
:100F60003046FFF70FFEF8BD000C0140F8B54FF416
:100F70000055ADF8005010248DF8034003208DF883
:100F80000200104E69463046FFF7FCFD2946304608
:100F9000FFF752FEE502ADF800508DF803406946B8
:100FA0003046FFF7EFFD29463046FFF747FEA10226
:100FB000ADF8001004218DF8031069463046FFF7A4
:100FC000E1FDF8BD000C0140F8B54FF48045ADF8E7
:100FD000005010248DF8034003208DF80200104EBD
:100FE00069463046FFF7CEFD29463046FFF726FE1C
:100FF0006502ADF800508DF8034069463046FFF7B2
:10100000C1FD29463046FFF717FEE102ADF800109A
:1010100004218DF8031069463046FFF7B3FDF8BD93
:10102000000C0140F8B54FF40055ADF80050102405
:101030008DF8034003208DF80200104E69463046BB
:10104000FFF7A0FD29463046FFF7F8FDA502ADF8F1
:1010500000508DF8034069463046FFF793FD29465E
:101060003046FFF7E9FDE102ADF8001004218DF8EC
:10107000031069463046FFF785FDF8BD000C0140BE
:101080002DE9F8430121182000F074FA4FF40057BD
:10109000ADF8007010248DF8034003258DF8025040
:1010A000194E69463046FFF76DFD39463046FFF769
:1010B000C5FDE602ADF800608DF803408DF80250E2
:1010C000DFF8488069464046FFF75CFD3146404600
:1010D000FFF7B4FDA602ADF800608DF803408DF86F
:1010E000025069464046FFF74DFD31464046FFF746
:1010F000A3FDADF8007004208DF80300694640465A
:10110000FFF740FDBDE8F88300100140000C0140EE
:1011100038B54FF46044ADF8004010208DF803005E
:1011200003208DF80200054D69462846FFF72AFD89
:1011300021462846FFF780FD38BD0000000C014025
:1011400000F0B6F80021102307A2084600F0AAF923
:10115000002140F2145001F067FC02F0D7F901F0D1
:10116000E7FC01F093FDF8E748454C4C4F204E4515
:10117000454B4F00FEE7704770B50F23C27801263C
:101180000178002A1ED0144A126802F4E062C2F507
:10119000E062120AC2F10404D3404578A540827887
:1011A0001A402A43120101F1E02181F8002400785D
:1011B00000F01F018E404009800000F1E020C0F8DF
:1011C000006170BD01F01F0086404809800000F1F9
:1011D000E020C0F8806170BD0CED00E002490843DA
:1011E00002490860704700000000FA050CED00E0BD
:1011F0000907090E002806DA00F00F0000F1E020D0
:1012000080F8141D704700F1E02080F8001470474A
:1012100030B40021084B0022002003EBC0046254CC
:10122000401CC0B28028F8D3491CC9B20829F3D3A6
:1012300030BC00F0ABB80000F446002010B57F28A9
:1012400013D83F2911D80723A3EBD103DBB201F058
:101250000701C1F107040121A140C9B2054C04EB0B
:10126000C0001AB1C25C0A43C25410BDC25C8A43BA
:10127000C25410BDF446002038B50121082000F00A
:1012800079F94FF44074ADF8004014208DF8030054
:1012900003208DF80200054D69462846FFF772FCD1
:1012A00021462846FFF7CAFC38BD0000000C01406B
:1012B00010B5FFF7E1FFC82002F06AFA0021AE2066
:1012C00000F01AF90021D52000F016F90021802045
:1012D00000F012F90021A82000F00EF900213F20B3
:1012E00000F00AF90021D32000F006F90021084699
:1012F00000F002F90021402000F0FEF800218D20CE
:1013000000F0FAF80021142000F0F6F80021202067
:1013100000F0F2F80021084600F0EEF80021A120CC
:1013200000F0EAF80021C02000F0E6F80021DA2001
:1013300000F0E2F80021122000F0DEF80021812008
:1013400000F0DAF80021EF2000F0D6F80021D920D3
:1013500000F0D2F80021F12000F0CEF80021DB20CF
:1013600000F0CAF80021302000F0C6F80021A420C7
:1013700000F0C2F80021A62000F0BEF8FFF748FFF9
:101380000021BDE81040AF2000F0B6B870B502F003
:1013900029F90025104E05F1B000C0B2002100F07F
:1013A000ABF80021084600F0A7F80021102000F05B
:1013B000A3F8002406EBC4000121405D00F09CF876
:1013C000641CE4B2802CF5D36D1CEDB2082DE2D381
:1013D000BDE8704002F026B9F44600202DE9F84F30
:1013E00083460E461F46B246780701D0012000E032
:1013F000002000EBD70079084843C0B20090203AA3
:1014000002F0FF09002541E00C2F13D0102F18D057
:10141000182F3ED1204909EBC90001EB8000445D43
:101420004FF00008200611D5314658460A9AFFF7BA
:1014300005FF12E0194909EB490001EB8000445D0A
:10144000EEE7174800EB0910445DE9E70A9890B110
:10145000002231465846FFF7F1FE6006040E761C66
:10146000F6B2A6EB0A00B84207D156460BF1010BC3
:101470000BF0FF0B08E00122EBE708F1010808F090
:10148000FF08B8F1080FCDD36D1CEDB2009885426E
:10149000BAD3BDE8F88F0000004D00089C42000858
:1014A00010470008F8B504460F4615461E461BE0D7
:1014B0008020A0EB5600A04202D20024B819C7B287
:1014C000C6F14000B84203DA00242746FFF7A0FE29
:1014D000012000902A78334639462046FFF77EFFE8
:1014E00004EB5600C4B26D1C287820385E28DFD982
:1014F000BDE8F840FFF74ABF70B505460C4602F05C
:1015000071F8FFF79FFB7820FFF704FCFFF7D4FB8F
:101510001CB14020FFF7FEFB02E00020FFF7FAFBC2
:10152000FFF7CAFB2846FFF7F5FBFFF7C5FBFFF700
:10153000A9FBBDE8704002F075B80000054A00291B
:1015400003D0516901435161704751698143516131
:101550007047000000100240054A002903D01169BD
:1015600001431161704711698143116170470000A7
:1015700000100240054A002903D09169014391619E
:1015800070479169814391617047000000100240EB
:10159000054A002903D0D1680143D1607047D16862
:1015A0008143D16070470000001002400C48016880
:1015B00041F00101016041680A4A1140416001683F
:1015C000094A11400160016821F4802101604168ED
:1015D00021F4FE0141604FF41F018160704700005B
:1015E000001002400000FFF8FFFFF6FE10B5264A8B
:1015F000516801F00C01254B002927D0042927D080
:10160000082927D00360516801F0F0010909204B37
:101610005C5C0168E1404160546804F4E064240AC1
:101620001C5D21FA04F48460546804F46054E40AF4
:101630001B5DD940C160526802F44042920B144BCA
:101640001B1F9A5CB1FBF2F1016110BD0360DAE788
:101650000360D8E7516801F47011536803F48033D4
:10166000022404EB914133B153689B0307D5094B26
:1016700059430160C7E7074B59430160C3E7034B78
:1016800059430160BFE700000010024000127A00D9
:101690001C00002000093D00034600205909094AAA
:1016A00001290AD002290AD0516A03F01F0201233E
:1016B00093400B4200D0012070471168F5E7116A92
:1016C000F3E70000001002400248406800F00C0000
:1016D0007047000000100240034A516821F0F001F9
:1016E000014351607047000000100240014908604A
:1016F0007047000000004242034A516821F4E06153
:10170000014351607047000000100240034A5168D5
:1017100021F4605141EAC00050607047001002405F
:10172000014908667047000000004242034B5A68B6
:1017300022F47C12084310435860704700100240A6
:10174000034A516821F003010143516070470000D2
:1017500000100240AFF300800CB50022019200920D
:101760002748016841F4803101604FF4A0630168AB
:1017700001F4003100910199491C0191009911B9BE
:1017800001999942F3D10168890302D501210091A1
:1017900000E000920099012930D11A490A6842F00C
:1017A00010020A600A6822F003020A600A6842F026
:1017B00001020A604168416041684160416841F44A
:1017C00080614160416821F47C114160416841F4CD
:1017D00088114160016841F08071016001688901F0
:1017E000FCD5416821F003014160416841F00201EC
:1017F00041604168C1F381010229FAD10CBD0000AA
:10180000001002400020024010B502F093FB0128B6
:1018100003D0BDE8104002F0F1B810BD70B5194812
:101820004FF47A710068B0FBF1F10026751EB1F13A
:10183000807F0CD221F07F404FF0E024401E606199
:101840000F212846FFF7D4FCA661072020610E482F
:101850000068C0F30222C2F10701042900D9042163
:10186000101D072801D2002200E0D21E012088406E
:10187000401E00F00F0191402846BDE87040FFF780
:10188000B7BC0000000000200CED00E010B50F48D0
:10189000016841F00101016041680D4A1140416059
:1018A00001680C4A11400160016821F48021016047
:1018B000416821F4FE0141604FF41F018160FFF790
:1018C00049FF05494FF00060086010BD001002405C
:1018D0000000FFF8FFFFF6FE08ED00E0002904D04D
:1018E000018841F0010101807047018821F0010168
:1018F00001807047002905D030F8441F41F40041B1
:101900000180704730F8441FC1F30E010180704719
:1019100010B5734988420AD1C41401212046FFF74B
:1019200037FE2046BDE810400021FFF731BEB0F180
:10193000804F0CD06B49884213D101210220FFF760
:101940000BFE0021BDE810400220FFF705BE01217B
:101950000846FFF701FE0021BDE810400120FFF717
:10196000FBBD6149884209D101210420FFF7F4FD44
:101970000021BDE810400420FFF7EEBD5B4988421E
:1019800009D101210820FFF7E7FD0021BDE8104043
:101990000820FFF7E1BD5649884209D101211020F6
:1019A000FFF7DAFD0021BDE810401020FFF7D4BD9D
:1019B0005049884209D101212020FFF7CDFD0021A7
:1019C000BDE810402020FFF7C7BD4B4988420AD12F
:1019D000441401212046FFF7DBFD2046BDE81040FE
:1019E0000021FFF7D5BD454988420AD10121CC0429
:1019F0002046FFF7CDFD2046BDE810400021FFF74F
:101A0000C7BD3F4988420AD101210C052046FFF796
:101A1000BFFD2046BDE810400021FFF7B9BD3949A0
:101A200088420AD101214C052046FFF7B1FD20462E
:101A3000BDE810400021FFF7ABBD3349884209D112
:101A400001214020FFF788FD0021BDE81040402023
:101A5000FFF782BD2D49884209D101218020FFF77F
:101A60007BFD0021BDE810408020FFF775BD2849AF
:101A700088420AD1841501212046FFF76DFD2046DA
:101A8000BDE810400021FFF767BD224988420AD116
:101A900001210C042046FFF77BFD2046BDE81040E5
:101AA0000021FFF775BD1C4988420AD101214C0471
:101AB0002046FFF76DFD2046BDE810400021FFF7EE
:101AC00067BD164988420AD101218C042046FFF7E0
:101AD0005FFD2046BDE810400021FFF759BD10BD55
:101AE000002C01400004004000080040000C0040B1
:101AF000001000400014004000340140004C014040
:101B0000005001400054014000180040001C0040FB
:101B100000200040004001400044014000480140D6
:101B200030B5028C22F001020284028C8388048B7F
:101B300024F0700424F003050C882C4322F00202E8
:101B40000D8915434A882A43124DA8420BD0124DE5
:101B5000A84208D0114DA84205D0114DA84202D08C
:101B6000104DA8420FD122F008054A892A4322F0DD
:101B700004058A882A4323F4807323F400738D8933
:101B80001D43CB892B4383800483C98881860284CB
:101B900030BD0000002C01400034014000400140F5
:101BA00000440140004801408186704730B50288FA
:101BB0001B4C1C4DA0420DD0A8420BD0B0F1804F61
:101BC00008D0194B984205D0184B984202D0184BB8
:101BD000984203D122F070034A881A43154B984269
:101BE00006D0154B984203D022F44073CA881A439A
:101BF00002808A8882850A880285A0420AD0A8428B
:101C000008D00E4A904205D00D4A904202D00D4AAB
:101C1000904201D1097A01860121818230BD000004
:101C2000002C014000340140000400400008004046
:101C3000000C004000100040001400400040014033
:101C400000440140004801403EB5224D40F224418D
:101C5000284600F0A4F8002838D01F4C0021204668
:101C6000FEF794FE2046FEF71BFFC0F180014029DD
:101C700005D21A4AA2F18000FEF751FF05E0174A8B
:101C80004039A2F14000FEF74AFF1449D1F804049C
:101C90000090D1F80004D0B1401E01900198401C82
:101CA000C1F804040E48006820B1002302AA694666
:101CB00001F0D4FF80212046FEF72FFF01212046AE
:101CC000FEF764FE28880348001D00883EBD40F2F0
:101CD000FF30E2E70038014058000240AC0100202C
:101CE0002C0000203EB51C4D40F22551284600F046
:101CF00056F81A4C90B1284600F0EAF82268511CB8
:101D00002160E3689854FF2901D900202060D4E9BC
:101D10000001884201D1012020723EBD40F22441E1
:101D2000284600F03CF80028F7D060680090216851
:101D300079B1491E01910199491C6160084801234C
:101D400002AA6946006801F089FF284600F0C0F841
:101D50003EBDFF21EEE7000000440040B805002032
:101D600030000020002904D0818941F40051818194
:101D70007047818921F4005181817047002A03D086
:101D8000828A0A4382827047828A8A4382827047AB
:101D90000246002012880A4200D00120704770B528
:101DA000002440F66A12C1F3421301F01F05012618
:101DB00006FA05F2012B0CD0022B0DD0838A1340BA
:101DC000090A8E40008830400BB100B10124204642
:101DD00070BD83891340F3E7038A1340F0E710B521
:101DE00040F66A13C1F3421301F01F040121A14020
:101DF000012B07D0022B07D014303AB102680A43F6
:101E0000026010BD0C30F8E71030F6E702688A4334
:101E1000026010BD30B585B004460D46208A4CF6F0
:101E2000FF710840E98801432182A0894EF6F31131
:101E30000840A9882A8911436A8902431143A18174
:101E4000A08A4FF6FF410840A9890143A182684654
:101E5000FFF7CCFB1D48844201D1039800E00298B3
:101E6000A189090408D500EBC00101EB0010296825
:101E70004900B0FBF1F007E000EBC00101EB0010FE
:101E800029688900B0FBF1F06422B0FBF2F109018E
:101E90000B096FF018056B4300EB8300A3891D0449
:101EA0004FF0320307D503EBC000B0FBF2F000F0B7
:101EB0000700084306E003EB0010B0FBF2F000F06F
:101EC0000F000843208105B030BD000000380140FC
:101ED0008088C0F308007047C1F308018180704713
:101EE000FEE7000030B587B00446012144F204004B
:101EF000FFF740FB4FF40070ADF8180003208DF899
:101F00001A0018208DF81B00254D06A92846FEF75B
:101F100039FE2815ADF8180048208DF81B0006A9D9
:101F20002846FEF72FFE02940024ADF80C40ADF8D1
:101F30000E40ADF81040ADF814400C20ADF8120082
:101F4000184D02A92846FFF765FF25208DF80400EB
:101F500008208DF805008DF8064001208DF8070057
:101F600001A8FFF709F9012240F224412846FFF7B2
:101F700036FF00F059F800F019F80122C021284678
:101F8000FFF7FCFE002208210A2001F04DFD064962
:101F9000086001212846FFF7E5FE07B030BD0000CC
:101FA00000080140003801402C00002030B58DB001
:101FB00001210846FFF7C2FA184D2846FEF7F4FC47
:101FC000002404940C9420200A9080210591144848
:101FD0000390099407911348029008940694801482
:101FE0000B9002A92846FEF77BFD0F208DF8040018
:101FF00007208DF805008DF8064001208DF80700B8
:1020000001A8FFF7B9F801220E212846FEF75EFD70
:1020100001212846FEF7BAFC0DB030BD5800024041
:102020002C0100200438014010B58CB00121084675
:10203000FFF784FA124C2046FEF7B6FC10200390FE
:1020400000210B910991802204920E480290089180
:1020500006920D480190079105910A9101A9204629
:10206000FEF73EFD01212046FEF757FD4FF40050DC
:10207000FEF774FC01212046FEF788FC0CB010BD71
:1020800044000240AC000020043801400FB4054B6E
:1020900010B503A9044A029800F0DAF810BC5DF804
:1020A00014FB00004D2B0008A800002002E008C827
:1020B000121F08C1002AFAD170477047002001E0C2
:1020C00001C1121F002AFBD1704700002DE9FF5FFC
:1020D00082B00021DDE90430020DDDF840B0034399
:1020E00018D044F61050A2F2FF3242431514119852
:1020F00001281FD0A5EB0B00401C5FEA000A4FF03F
:1021000000064E4FDFF83891B046504615D5CAF15B
:10211000000413E0119801244AA3012801D16FEAB9
:102120000B010298119AC0E90031C0E9024206B0E1
:10213000BDE8F09FCBF10000DFE704460021404AF4
:10214000491842EB0450CDE9001012E0E00707D037
:1021500032463B4640464946FEF764F9804689468A
:1021600032463B4610461946FEF75CF906460F46D6
:102170006410002CEAD1DDE90401DDE90023BAF1A5
:10218000000F06DAFEF74EF942464B46FEF74AF9D3
:1021900005E0FEF7B9F942464B46FEF7B5F90446AD
:1021A0000E460022284BFEF737FA03D84FF0FF30D7
:1021B000014607E00022254B20463146FEF78BF80A
:1021C000FEF711FA102409E0002C0ADB0A22002392
:1021D000FEF750F8039B30321A55641E50EA010294
:1021E000F2D1641C039AC4F111031444119A012A18
:1021F00003D0012208430DD10AE0084304D0002097
:102200004FF0110B119072E7A3EB0B056D1E0DE063
:102210005B4504DD4FF0000205F1010504E003DA3F
:102220004FF00002A5F10105002AECD002981199A7
:10223000C0E90231C0E9004579E700000000144020
:102240000000F03F300000000000F0430000E03FDD
:102250002DE9FF4F95B09B468946064600250FE2C3
:10226000252877D100242746F84A0121059400E06B
:10227000044316F8013F203B01FA03F01042F7D166
:1022800030782A2811D06FF02F033078A0F1300277
:10229000092A16D8059A44F0020402EB820203EBE5
:1022A00042021044761C0590EFE759F8042B059282
:1022B000002A03DA504244F40054059044F002042A
:1022C000761C30782E2816D116F8010F44F004043D
:1022D0002A280DD06FF02F023078A0F13003092B9F
:1022E00009D807EB870302EB4303C718761CF3E713
:1022F00059F8047B761C30786C280FD006DC4C280B
:1023000017D068280DD06A2814D104E0742810D0A2
:102310007A280FD10DE044F400140AE044F480144C
:1023200001E044F440147278824202D104F5801432
:10233000761C761C307866280BD013DC582877D0B2
:1023400009DC002875D04528F6D04628F4D0472867
:102350001AD19DE118E0632835D0642879D065282A
:1023600012D195E1702873D008DC6728F1D0692874
:102370006FD06E280DD06F2806D1B5E073282CD011
:10238000752875D0782874D05A46179990476D1CD7
:1023900075E1C4F30250022809D003280DD0D9F802
:1023A000001004280DD00D6009F1040967E1D9F887
:1023B0000010EA17C1E90052F6E7D9F800100D80C5
:1023C000F2E70D70F0E719F8041B8DF800100020FB
:1023D0008DF80100EA46012003E059F804AB4FF004
:1023E000FF3061074FF0000102D40DE008F1010158
:1023F0008846B9420FDA8045F8DB1AF80810002940
:10240000F4D108E008F1010188468142FADB1AF8AC
:1024100008100029F6D105985B46A0EB0807214675
:102420003846179A00F094FA284400EB080507E0B4
:102430004DE029E10DE01AF8010B5A461799904733
:10244000B8F10108F7D25B4621463846179A13E1E6
:1024500042E00A220092C4F302524FF0000A022A1C
:1024600008D059F804CB032A4FEAEC710AD00DE0EA
:1024700029E02AE009F1070121F00702F2E802C190
:10248000914609E00FFA8CFC4FEAEC71042A03D163
:102490004FFA8CFC4FEAEC71002907DA0A4600215A
:1024A000DCF1000C61EB02012D2202E0220504D5D3
:1024B0002B228DF80420012203E0E20701D0202224
:1024C000F7E7904659E00A2102E010220DE01021C2
:1024D0004FF0000A00910BE010224FF0000A44F088
:1024E00004040827009203E008224FF0000A00923B
:1024F000C4F30252022A05D059F804CB0021032A62
:1025000008D009E009F1070121F00702F2E802C151
:10251000914605E01FFA8CFC042A01D10CF0FF0C57
:102520004FF00008220728D5702806D0009B83F0C2
:10253000100353EA0A0305D00EE040228DF8042070
:10254000012208E05CEA010206D030228DF8042066
:102550008DF8050002229046009B83F0080353EAA1
:102560000A030AD15CEA010201D1620705D53022D3
:102570008DF804204FF001087F1E582804D034A0A5
:1025800003900EA802900DE036A0F9E7534660468E
:10259000009AFDF76FFE84460398825C0298401E05
:1025A000029002705CEA0100F0D1029806A9081AB4
:1025B00000F1200A600702D524F4803400E00127EE
:1025C000574502DDA7EB0A0000E0002000EB0A01FE
:1025D000009005984144401A0590E00306D45B46FC
:1025E0002146179A059800F0B3F90544002706E044
:1025F00001A85A46C05D179990476D1C7F1C47453E
:10260000F6DBE0030CD55B462146179A059800F0EF
:102610009FF9054404E030205A46179990476D1CF5
:102620000099481E00900029F5DC08E00298029904
:102630005A460078491C0291179990476D1CBAF1CF
:102640000001AAF1010AF1DC65E10000092801009E
:102650003031323334353637383961626364656618
:1026600000000000303132333435363738394142DA
:10267000434445460000000000F058F90544761C2C
:10268000307800287FF4ECAD19B02846BDE8F08F13
:10269000620700D4062709F1070222F0070CFCE8C4
:1026A0000223E14603F000485FEA080C02D00FF273
:1026B000702C0DE05FEA045C02D50FF2682C07E095
:1026C0005FEAC47C02D00FF2602C01E0AFF2700C24
:1026D0004FF0FF3823F00043CDF850C065280CD0F0
:1026E00006DC452809D046281DD047283DD13DE0CD
:1026F000662818D067287ED138E00021112F01DB31
:10270000112000E0781CCDE9000106A90EA8FFF712
:10271000DDFCDDE90F010E9A03910021009207F123
:10272000010A04914DE04FF000400097CDE90110FF
:1027300006A90EA8FFF7CAFCDDE90F0203920E9B63
:1027400011990022DDF80CA00093049211B9791CB4
:1027500000EB010AB7EB0A0004D4C0F1FF3007F127
:10276000010A0490AAEB0700019044E0012F00DA6F
:1027700001270021112F01DD112000E03846CDE9AD
:10278000000106A90EA8FFF7A1FCDDE90F010E9AD2
:102790000391002104910092BA4621070CD40399B9
:1027A000514500DA8A46BAF1010F05DD009AAAF117
:1027B0000101515C302908D0B84202DA10F1040F4F
:1027C00006DA0121CDE9011015E0AAF10101E9E7DE
:1027D000002805DC049901440491AAEB000102E001
:1027E000411C514500DD8A460499401A401C019065
:1027F0004FF000400290200704D40198504501DBBF
:10280000CDF8048000208DF84F0002980DF14F079D
:10281000B0F1004F25D02B200E9002984FF0020807
:1028200000280CDA404202902D200E9007E00A2189
:102830000298FDF709FD3031029007F8011DB8F14B
:102840000001A8F10108F2DC02980028EFD1791EFE
:102850000E980870307800F0200040F0450007F82E
:10286000020D12A8C01B00F107081498007800B1EF
:10287000012000EB0A01019801EBE0710598414449
:10288000401A401E0590E00306D45B462146179A85
:10289000059800F05DF805441498007818B15A4680
:1028A000179990476D1CE00324D55B462146179A83
:1028B000059800F04DF805441CE00498002807DB5B
:1028C000DDE90301884203DD0098405C179901E0CF
:1028D000179930205A469047049805F10105401C8D
:1028E00004900198401E019004D12E205A46179959
:1028F00090476D1CBAF10001AAF1010ADDDC05E088
:1029000017F8010B5A46179990476D1CB8F1000152
:10291000A8F10108F4DC5B462146179A0598ABE65E
:102920002D0000002B000000200000002DE9F041E8
:10293000044600251E461746880404D405E039469F
:102940002020B0476D1C641EF9D52846BDE8F081F3
:102950002DE9F041044600251E469046C80301D5E6
:10296000302700E02027880404D505E0414638469A
:10297000B0476D1C641EF9D52846BDE8F081000003
:1029800010B5064C02212046FDF70DFF0028F9D0B6
:102990002046BDE81040FDF703BF000000240140C1
:1029A00030B585B0044601214802FEF7E3FD002161
:1029B00000918DF804108DF805104FF460220292FA
:1029C000039101218DF810100E4D69462846FDF740
:1029D000F9FEE1B2002301222846FDF717FF01218D
:1029E0002846FDF7D1FE2846FDF74AFF2846FDF7A9
:1029F000E1FE0028FAD101212846FDF746FF05B087
:102A000030BD00000024014040F6E441484340F658
:102A1000FF71B0FBF1F080B27047002000F072B897
:102A20000A2000F06FB80000F0B589B004460E46E9
:102A3000012140F60400FEF79DFD2F4F3846FEF7BA
:102A400067FFB815ADF8200018208DF8230003208B
:102A50008DF8220008A92948FEF794F80025009572
:102A60004FF47A71009A501C00908A42FAD3A4F570
:102A70007A70B0F57A6F01D94FF4FA642048B0FB50
:102A8000F4F0401E84B204B90124642E00D96426F7
:102A9000ADF81840ADF81450ADF81A50ADF8165016
:102AA0008DF81C5005A93846FFF780F86020ADF876
:102AB00004000120ADF80600ADF80850641C744312
:102AC000642094FBF0F0ADF80A00ADF80C50ADF8BE
:102AD0000E50ADF81050ADF8125001A93846FFF76E
:102AE0001FF801213846FEF705FF01213846FEF7A1
:102AF000F5FE09B0F0BD0000002C014000080140C7
:102B000000127A00642800D9642008490A88521CFF
:102B100042436420B2FBF0F00A88824200D2088867
:102B200081B202482C38FFF73FB800002C2C01403E
:102B300010B5FFF775FFC82000F02AFEFFF76DFF04
:102B40004FF4FA7000F024FE012010BD70B5044669
:102B5000064D40212846FFF71BF90028F9D0A1B205
:102B60002846FFF7B9F9204670BD00000038014043
:102B7000B0F5965F01D900207047A0F661114FF4BF
:102B8000C772914201D803207047A0F2A56191421B
:102B900001D802207047A0F2E930904201D801200C
:102BA00070470020704710B50820FFF7F9FEBDE818
:102BB00010400920FFF7F4BE10B500F00BF8002814
:102BC00004D100F017F810B1C01CC0B210BD002035
:102BD00010BD000010B50820FFF7D2FE80B2FFF74D
:102BE00013FF03490880BDE81040FFF7C1BF000094
:102BF0001400002010B50920FFF7C2FE80B2FFF7D5
:102C000003FF03494880BDE81040FFF7B1BF000053
:102C1000140000201CB54FF44070FEF7DFFAFDF7FA
:102C200041FEFEF7FBFD4FF4E130FFF75BF90EA02C
:102C3000FFF72CFAFEF724FA00240220CDE9000465
:102C4000234680220CA10E4801F044F90120CDE971
:102C50000004002380220BA10B4801F03BF900F097
:102C600005FE00201CBD000048454C4C4F204E4541
:102C7000454B4F0D0A0000006D61696E00000000B9
:102C8000411100086B6579006D0D00080120704747
:102C90002DE9F04104460F46134E75693068001D5A
:102CA00000F05AFC601C07D137B13168BDE8F04133
:102CB000091D0E4800F089BC2C4430684460AC42C9
:102CC00006D23168B068091DBDE8F04100F065BC6E
:102CD00031687068091D00F060FC306B844200D2DE
:102CE0003463BDE8F081000034000020B80A002001
:102CF00070B5044600F076FC1C4D2869401C286124
:102D0000286810B1E86938B10CE02C602869012806
:102D100008D100F077F905E02868E16AC06A8842C6
:102D200000D82C60E86A401CE8626064E06AA96927
:102D3000884200D9A8610E4900EB800001EB8000B9
:102D4000211D00F042FC00F06DFCE86900280CD069
:102D50002868E16AC06A884207D206494FF080506D
:102D60000860BFF34F8FBFF36F8F70BD340000203A
:102D70000806002004ED00E010B500F033FC0E4C16
:102D8000A068A0B90D4800F0FAFB0C48143000F020
:102D9000F6FB0A48206014306060002210210A20EF
:102DA00000F042FEA06010B105A100F0BBFCBDE840
:102DB000104000F037BC000070000020CC0A00205A
:102DC000546D72510000000070B50C4D0C4E11E0B6
:102DD00000F008FCF068C468201D00F0BDFB286905
:102DE000401E2861E868401EE86000F01BFC204699
:102DF00000F053F8E8680028EAD170BD34000020E4
:102E0000A40A002030B40B46026C002A0CD0C16822
:102E10001144C1604468A14201D30168C160C16826
:102E200030BC1846FDF7ECB930BC70472DE9F041D5
:102E3000044617460026A56B226C002A10D0C7B1A5
:102E4000E068FDF7DDF9E168206C091AE1602268AD
:102E5000914202D26168081AE060022F16D017E092
:102E60002068A8B9606801F0DFF8064600206060BD
:102E70000EE0A068FDF7C4F9216CA0680844A060CA
:102E80006168884204D32068A06001E005B16D1E2E
:102E90006D1CA5633046BDE8F08110B50446206B7B
:102EA00000F0D6FB2046BDE8104000F0D1BB00008A
:102EB00007490A681168002904D00021016019B18E
:102EC000002070470121F9E7D068006870470000D2
:102ED000700000204FF470510F48420706D0C01D0B
:102EE00020F007000C49411AC1F570510B4A1060DF
:102EF000002353600144083921F00701103A1160A2
:102F00004B600B600B1A436001604068906050603A
:102F10004FF00040D0607047F40A00209400002079
:102F2000074E4FF08054074DFFF74EFF30680128E1
:102F3000FAD92C60BFF34F8FBFF36F8FF4E7000017
:102F40000806002004ED00E070B51D46049C002931
:102F500009D02260E06321640121204600F086FD53
:102F600084F84C5070BD2460F4E72DE9F0478146A9
:102F7000DDE908580A9C0E4617469A46B900A52274
:102F8000206BFDF74FF9206B7F1E00EB870020F0D0
:102F90000707780707D0502080F31188BFF34F8FC1
:102FA000BFF36F8FFEE700202218315C82F83410E7
:102FB000315C11B1401C1028F6D3002684F8436020
:102FC000382D00D33725E562E5642665201D00F025
:102FD000E1FA04F1180000F0DDFA2461C5F13800CF
:102FE000A0616462666584F8586052464946384676
:102FF00000F07EFA2060B8F1000F01D0C8F8004060
:10300000BDE8F08770B50024114D04EB840005EB9A
:10301000800000F0B4FA641C382CF6D30D4800F0A0
:10302000AEFA0C48143000F0AAFA0A48283000F032
:10303000A6FA08483C3000F0A2FA0648503000F0EA
:103040009EFA0548034941601431816070BD00005B
:1030500008060020680A00203400002030B513491B
:1030600000E011460A688242FBD34B685C18844238
:1030700003D140681844486008460D684468231826
:10308000AB420DD1094B103B1B689A4206D05268E7
:10309000224442600A681268026002E0036000E0B5
:1030A0000260814200D0086030BD00009400002022
:1030B00070B50024416000610C4D91420AD8D11ACC
:1030C0008269914201D301240EE0011D686800F07D
:1030D00064FA09E09A4203D2994201D3012403E041
:1030E000011D286800F059FA204670BD70000020CC
:1030F00010B5044600F076FAA06B20B1002400F071
:1031000091FA204610BD0124F9E710B5044600F0FD
:1031100069FAA06BE16B884201D1012400E0002430
:1031200000F080FA204610BDF8B505460E4614485A
:103130000068C068C468201D00F00EFAE06901282C
:1031400010D1A0692B46411932462046FFF7B0FF47
:1031500040B100200346014600902A46204601F077
:1031600067F828B1616A01B02046BDE8F040084721
:10317000502080F31188BFF34F8FBFF36F8FFEE7AE
:103180007000002030B587B02E4D52E00398002823
:1031900003DADDE90420069990470398002848DB0C
:1031A000059C606910B1201D00F0D6F902A800F05E
:1031B00093F8024603980A283BD2DFE800F00505A1
:1031C000053A263705053A260498A16903460144C5
:1031D0002046FFF76DFF00B3616A20468847E0692B
:1031E000012826D1002000900498A16900234218EC
:1031F0001946204601F01CF878B9502080F3118858
:10320000BFF34F8FBFF36F8FFEE70498A06128B123
:10321000811813462046FFF74BFF0AE0502080F349
:103220001188BFF34F8FBFF36F8FFEE7204600F08A
:103230000FFA002203A9A86800F070FD0028A5D1AC
:1032400007B030BD70000020F8B506460D4600F00E
:1032500045FB684600F040F80446009810B100F0C5
:103260005DFFF8BD45B9A64206D800F057FF2146DC
:103270003046FFF759FFF8BD0C481DB14168096899
:1032800091B10025311B2A46806800F05DFA00F0FC
:1032900045FF0028EFD106494FF080500860BFF38A
:1032A0004F8FBFF36F8FF8BD0125EBE77000002053
:1032B00004ED00E0074841680968002905D041682D
:1032C000C968C9684968016370474FF0FF310163FD
:1032D000704700003400002070B5054600F038FE4D
:1032E0000446074E3069844204D200F00BF80120F6
:1032F000286001E0002028603461204670BD000095
:1033000070000020F8B5194E1FE0C0680568C46859
:10331000201D00F021F9616A20468847E0690128F4
:1033200013D1A0692844A84206D960602461211DF8
:10333000306800F032F908E00020034601460090B2
:103340002A46204600F074FF40B130680168002929
:10335000DBD13068716831607060F8BD502080F357
:103360001188BFF34F8FBFF36F8FFEE7700000200F
:1033700009484068401C07D0502080F31188BFF3F3
:103380004F8FBFF36F8FFEE7502080F31188BFF39C
:103390004F8FBFF36F8FFEE79C00002008B5684693
:1033A000FFF786FD0099FFF74FFFFFF7EBFEF6E70B
:1033B0002DE9F041044600F015F994F9455004F167
:1033C000240609E0606A48B1304600F06BFE08B19F
:1033D00000F00EFA6D1E6DB2002DF3DC4FF0FF36DB
:1033E00084F8456000F01EF900F0FCF894F94450B0
:1033F00004F1100709E0206948B1384600F052FE98
:1034000008B100F0F5F96D1E6DB2002DF3DC84F803
:103410004460BDE8F04100F005B900002DE9F0413D
:103420000546002600F05AFA304F386808B9FFF711
:1034300051FDF86805424AD18DB1083568070ED0B4
:1034400005F00700C0F108000544680707D05020C8
:1034500080F31188BFF34F8FBFF36F8FFEE7B5B3D3
:103460007868854233D8214910310846046801E064
:10347000214604466068A84202D220680028F7D19D
:103480003868844223D00E68083620680860606877
:10349000411B10290ED96019420707D0502080F334
:1034A0001188BFF34F8FBFF36F8FFEE741606560F8
:1034B000FFF7D4FD61687868401A7860BA68904276
:1034C00000D2B860F868014361600020206000F01D
:1034D00025FE700707D0502080F31188BFF34F8F6F
:1034E000BFF36F8FFEE73046BDE8F0818400002017
:1034F00020384FF08073C36121F0010181610249DE
:10350000416140F8202970477133000810B5FDF77C
:10351000A3FCC82000F03CF9FDF7CCFCC82000F06B
:1035200037F9FDF7F5FCC82000F032F9FDF71EFD74
:10353000C82000F02DF9FDF747FDC82000F028F95C
:10354000FDF770FDC82000F023F9FDF7E1FDC8206C
:1035500000F01EF9012010BD0169D0E901329A6026
:10356000D0E901235A604A68824201D182684A60E8
:10357000002202610868401E08600868704700F178
:10358000080141604FF0FF328260C160016100219B
:103590000160704700210161704730B50C68621C02
:1035A00002D000F1080202E0026904E01A46536802
:1035B0001D68A542FAD953684B6099608A605160D2
:1035C00008610168491C016030BD42684A60936827
:1035D0008B6093685960916008610168491C0160C3
:1035E00070470000502080F31188BFF34F8FBFF366
:1035F0006F8F0A494868401C486001280CD1084870
:10360000006810F0FF0F07D0502080F31188BFF33F
:103610004F8FBFF36F8FFEE7704700009C000020C4
:1036200004ED00E009494868002806D0401E4860C3
:10363000002801D180F311887047502080F3118851
:10364000BFF34F8FBFF36F8FFEE700009C00002099
:1036500070B5002827D008380446134D6068E96823
:10366000084207D1502080F31188BFF34F8FBFF37A
:103670006F8FFEE722683AB1502080F31188BFF3C4
:103680004F8FBFF36F8FFEE78843606000F026F92D
:1036900060686968084468602046FFF7DFFCBDE8A1
:1036A000704000F03BBD70BD840000204FF0E02072
:1036B00000210161816105494FF47A720968B1FB0B
:1036C000F2F1491E416107210161704700000020AD
:1036D00010B5FCF77FFD114910280ED300F1E02052
:1036E00090F8F0030A78904207D2502080F31188B6
:1036F000BFF34F8FBFF36F8FFEE7094800688968FB
:1037000000F4E060884207D9502080F31188BFF3AD
:103710004F8FBFF36F8FFEE710BD00009C000020AD
:103720000CED00E010B50022064B53F832401CB1FE
:10373000521C082AF9D310BD43F8321003EBC20122
:10374000486010BDC805002070B504460D461646F9
:10375000FFF748FF94F944304FF000005B1C01D1A3
:1037600084F8440094F94510491C01D184F84500BF
:10377000FFF758FFA06B28B93246294604F1240010
:1037800000F056F82046BDE87040FFF711BE00007B
:1037900010B502460020002A12D00F48806B38B1C5
:1037A000502080F31188BFF34F8FBFF36F8FFEE778
:1037B00000F094F800211046FFF76AFA00F0AEFC22
:1037C000002807D105494FF080500860BFF34F8FA4
:1037D000BFF36F8F10BD00003400002004ED00E047
:1037E00002498A6A026049694160704734000020DA
:1037F00001490120486270473400002010B50C4692
:1038000000280AD0094909681831FFF7C6FE20468A
:10381000BDE810400121FFF73BBA502080F311882A
:10382000BFF34F8FBFF36F8FFEE70000340000201F
:1038300070B50D46144600280DD00B4909681831A3
:10384000FFF7C3FE0CB14FF0FF3521462846BDE817
:103850007040FFF71DBA502080F31188BFF34F8FDF
:10386000BFF36F8FFEE70000340000201CB517483F
:103870000024CDE900402346802215A1164800F01F
:1038800029FB012801D100F0ADFC012809D0401C22
:103890001AD1502080F31188BFF34F8FBFF36F8F81
:1038A000FEE7502080F31188BFF34F8FBFF36F8F77
:1038B00006484FF0FF31343801630121C161446192
:1038C000BDE81C4000F046B81CBD000068000020A8
:1038D00049444C4500000000212F00080248816B3C
:1038E000491C8163704700003400002010B5174B5D
:1038F000986B002802D00120586210BD0020586249
:103900009869134901E0C0B1401E00EB800251F8F4
:103910002220002AF7D000EB800201EB82014A68E6
:1039200052684A6001F10804A24201D152684A601B
:103930004968C9681960986110BD502080F31188EA
:10394000BFF34F8FBFF36F8FFEE7000034000020FE
:10395000080600201CB5264908780190FF20087051
:10396000087800909DF800009DF8002000F0F0001D
:10397000904207D0502080F31188BFF34F8FBFF3E0
:103980006F8FFEE79DF800001A4B00F05000187092
:103990000720986006E09868401E98609DF8000037
:1039A000400000909DF800000006F4D498680328B9
:1039B00007D0502080F31188BFF34F8FBFF36F8F74
:1039C000FEE74FF440709860019808700A4801685B
:1039D00041F470010160016841F070410160FFF73E
:1039E00065FE00205860FCF7BFFB00201CBD0000F6
:1039F00000E400E09C00002020ED00E010B5502025
:103A000080F31188BFF34F8FBFF36F8F00F0A6FADA
:103A100018B104494FF080500860002080F31188ED
:103A200010BD000004ED00E0F8B505460E4617464F
:103A3000002D11D0C6B105FB06F05030FFF7EEFCAB
:103A400004463CB104F150023B46314628460094FE
:103A5000FFF77AFA2046F8BD502080F31188BFF3B3
:103A60004F8FBFF36F8FFEE70020E6E770B5044687
:103A70000D46002C25D0FFF7B5FDD4E90F202168B5
:103A800002FB001161600021A1632168A160E06B6D
:103A90002268216C401E00FB0121E1604FF0FF30E5
:103AA00084F8440084F8450004F110008DB1FFF75C
:103AB00066FD04F12400FFF762FDFFF7B3FD01206E
:103AC00070BD502080F31188BFF34F8FBFF36F8F0D
:103AD000FEE721690029F0D000F0E4FA0028ECD0DC
:103AE00004494FF080500860BFF34F8FBFF36F8FD2
:103AF000E3E7000004ED00E02DE9FF4782B0044653
:103B00008A461E460025002C03D0BAF1000F08D0CB
:103B100011E0502080F31188BFF34F8FBFF36F8FF8
:103B2000FEE7206C38B1502080F31188BFF34F8F2F
:103B3000BFF36F8FFEE7022E0AD1E06B012807D09A
:103B4000502080F31188BFF34F8FBFF36F8FFEE7D4
:103B500000F0F0F948B9049838B1502080F311888A
:103B6000BFF34F8FBFF36F8FFEE74FF000094FF0A9
:103B70008057DFF8E480FFF735FDA06BE16B8842EA
:103B800005D3022E03D0049808B325B327E03246AC
:103B900051462046FFF74AF9616A59B104F1240001
:103BA00000F080FA68B1C8F80070BFF34F8FBFF320
:103BB0006F8F06E028B1C8F80070BFF34F8FBFF3D6
:103BC0006F8FFFF72FFD012006B0BDE8F087FFF7EC
:103BD00029FD0020F8E76846FFF702FE0125FFF700
:103BE00021FDFFF77BFEFFF7FDFC94F94400401C2C
:103BF00001D184F8449094F94500401C01D184F827
:103C00004590FFF70FFD04A9684600F025F930B193
:103C10002046FFF7CDFB00F081FA0020D4E72046D4
:103C2000FFF773FA90B104F110000499FFF7E6FD75
:103C30002046FFF7BDFB00F071FA00289BD1C8F8C1
:103C40000070BFF34F8FBFF36F8F94E72046FFF7ED
:103C5000AFFB00F063FA8EE704ED00E02DE9F047DA
:103C60000446894690461F46002C03D0B9F1000F48
:103C700008D011E0502080F31188BFF34F8FBFF3BD
:103C80006F8FFEE7206C38B1502080F31188BFF3AE
:103C90004F8FBFF36F8FFEE7022F0AD1E06B012831
:103CA00007D0502080F31188BFF34F8FBFF36F8F81
:103CB000FEE7FFF70DFD5020EFF3118680F311882A
:103CC000BFF34F8FBFF36F8FA06BE16B884206D3BA
:103CD000022F04D0002086F31188BDE8F08794F904
:103CE00045503A4649462046FFF7A0F8681C04D0E4
:103CF0006D1C84F845500120EDE7606A0028FAD079
:103D000004F1240000F0CEF90028F4D0B8F1000F3F
:103D1000F1D00120C8F80000EDE700002DE9F747D9
:103D200083B004468A460026002C03D0BAF1000F67
:103D300008D011E0502080F31188BFF34F8FBFF3FC
:103D40006F8FFEE7206C38B1502080F31188BFF3ED
:103D50004F8FBFF36F8FFEE700F0ECF848B905987E
:103D600038B1502080F31188BFF34F8FBFF36F8FAE
:103D7000FEE700274FF08058DFF8D890FFF732FCBD
:103D8000A56BC5B151462046FFF73CF86D1EA563F3
:103D9000206950B104F1100000F084F928B1C9F88D
:103DA0000080BFF34F8FBFF36F8FFFF73BFC012005
:103DB00006B0BDE8F087059808B126B107E0FFF727
:103DC00031FC0020F4E701A8FFF70AFD0126FFF708
:103DD00029FCFFF783FDFFF705FC94F94400401C24
:103DE00001D184F8447094F94500401C01D184F855
:103DF0004570FFF717FC05A901A800F02DF858B190
:103E00002046FFF7D5FA00F089F92046FFF770F950
:103E10000028B3D00020CBE72046FFF769F990B126
:103E200004F124000599FFF7E9FC2046FFF7C0FAEA
:103E300000F074F90028A1D1C9F80080BFF34F8FBA
:103E4000BFF36F8F9AE72046FFF7B2FA00F066F9EA
:103E500094E7000004ED00E02DE9F04105460C4632
:103E6000002D11D0C4B1FFF7BDFB194E70696B680E
:103E7000C11A2268571C17D02F68B66AB74215D0EE
:103E8000834213D801241DE0502080F31188BFF332
:103E90004F8FBFF36F8FFEE7502080F31188BFF381
:103EA0004F8FBFF36F8FFEE700240BE08A4206D9E5
:103EB000501A20602846FFF793FC002402E00020FF
:103EC00020600124FFF7AEFB2046BDE8F081000032
:103ED000340000202DE9FF5F8146DDE90E788A4637
:103EE00016469B46B000FFF799FA054628000AD00F
:103EF0005C20FFF793FA04460CB1256304E02846E2
:103F0000FFF7A6FB00E000248CB10020CDE90240C1
:103F1000CDE900785B46324651464846FFF725F822
:103F20002046FEF7E5FE012004B0BDE8F09F4FF00B
:103F3000FF30F9E70548C169002903D0806B18B14B
:103F40000020704701207047022070473400002095
:103F50000148406970470000340000202DE9F0411D
:103F600000262F4FB86B002808D0386A401C3862F2
:103F7000786A00B101263046BDE8F0817D696D1C8C
:103F80007D619DB97868006838B1502080F3118850
:103F9000BFF34F8FBFF36F8FFEE77868B968796022
:103FA000B860B86A401CB862FFF784F9386BDFF874
:103FB000748085420DD37868006838B17868C0682D
:103FC000C468606885420ED2386302E04FF0FF306B
:103FD00038633868C06A00EB800058F82000012878
:103FE000C6D90126C4E7201DFFF7B6FAA06A18B1AA
:103FF00004F11800FFF7B0FAE06AB969884200D905
:10400000B86100EB800008EB8000211DFFF7DDFAAE
:10401000E06A3968C96A8842CDD30126CBE700003F
:10402000340000200806002070B504460020002C53
:104030002BD01A4D29688C4207D0502080F311886C
:10404000BFF34F8FBFF36F8FFEE7216DF1B1491EB4
:104050002165E36CE26A9A4217D0002915D1201D30
:10406000FFF77AFAE06CE062C0F13800A061E06A24
:10407000A969884200D9A861094900EB800001EBD9
:104080008000211DFFF7A1FA012070BD502080F3B0
:104090001188BFF34F8FBFF36F8FFEE7340000200E
:1040A0000806002070B5C068C468002C14D004F164
:1040B00018000646FFF750FA154DAA6BA2B131461B
:1040C0001448FFF782FAE06A2968C96A88421CD955
:1040D00001200121696270BD502080F31188BFF377
:1040E0004F8FBFF36F8FFEE7201DFFF735FAE06AB1
:1040F000A969884200D9A861074900EB800001EB5B
:104100008000211DFFF761FADDE7002070BD00008F
:1041100034000020900A0020080600202DE9F0411C
:10412000002400272B4DA86B002807D0FFF75AFA70
:10413000A86B401EA863A86B40B146E0502080F3F6
:104140001188BFF34F8FBFF36F8FFEE72869E0B38D
:10415000DFF8848001261CE0D8F80C00C46804F164
:104160001800FFF7F9F9201DFFF7F6F9E06AA969D1
:10417000884200D9A861194900EB800001EB80005A
:10418000211DFFF722FAE06A2968C96A884200D334
:104190006E62D8F800000028DED10CB1FFF78AF873
:1041A0002C6A44B1FFF7DAFE00B16E62641E002C87
:1041B000F8D100202862686A38B101270849380719
:1041C0000860BFF34F8FBFF36F8FFFF72BFA3846AE
:1041D000BDE8F08134000020900A0020080600208D
:1041E00004ED00E01CB50024FEF7C6FD0C48806815
:1041F00058B10B4802210C30CDE90010CA01002350
:1042000008A10A48FFF766FE04460CB120461CBD13
:10421000502080F31188BFF34F8FBFF36F8FFEE7FD
:1042200070000020546D7220537663009D330008A7
:104230002DE9FF4106460A9F9C460020002E15D01E
:10424000154DAC68002C0ED0009101920296062903
:104250001BDAFFF76FFE022810D000231A466946CA
:10426000A868FFF749FC04B0BDE8F081502080F356
:104270001188BFF34F8FBFF36F8FFEE700233A46DD
:104280006946A868FFF738FCEDE7002362466946F7
:104290002046FFF7E3FCE6E7700000200000000086
:1042A0000000000000000000000000003F4000008F
:1042B000000000000000300040003000400000001E
:1042C00009000BC03D000BC03D00090018C0244090
:1042D0007FE0224031800000180024C01B000D80C8
:1042E0003240018003801C4027401C800740004072
:1042F000100060000000000000000000000000004E
:1043000000001F80204040200000402020401F80EF
:1043100000000000090006001F80060009000000E0
:10432000040004003F80040004000000001000604E
:10433000000000000000000004000400040004006D
:104340000400000000000040000000000000000029
:10435000002001C006003800400000001F802040FF
:10436000204020401F800000000010403FC000405F
:104370000000000018C021402240244018400000E6
:1043800010802040244024401B80000002000D00CB
:1043900011003FC0014000003C80244024402440E4
:1043A000238000001F80244024403440038000000C
:1043B0003000200027C03800200000001B8024406F
:1043C000244024401B8000001C0022C022402240C8
:1043D0001F800000000000000840000000000000F6
:1043E0000000000004600000000000000000040065
:1043F0000A0011002080404009000900090009005E
:104400000900000000004040208011000A00040064
:104410001800200023402400180000001F802040C6
:10442000274029401F400000004007C039000F000E
:1044300001C0004020403FC0244024401B800000B9
:104440001F802040204020403080000020403FC09E
:10445000204020401F80000020403FC024402E40CC
:1044600030C0000020403FC024402E00300000003B
:104470000F001080204022403380020020403FC0C7
:10448000040004003FC02040204020403FC02040A6
:10449000204000000060202020203FC0200020009D
:1044A00020403FC024400B0030C0204020403FC08F
:1044B00020400040004000C03FC03C0003C03C0022
:1044C0003FC0000020403FC00C4023003FC0200000
:1044D0001F802040204020401F80000020403FC01F
:1044E00024402400180000001F802140214020E0CB
:1044F0001FA0000020403FC02440260019C00040FB
:1045000018C0244024402240318000003000204068
:104510003FC020403000000020003F8000400040AD
:104520003F80200020003E0001C00700380020002E
:10453000380007C03C0007C038000000204039C0E8
:10454000060039C0204000002000384007C0384035
:1045500020000000304021C02640384020C000002C
:10456000000000007FE040204020000000007000BC
:104570000C000380004000000000402040207FE04D
:1045800000000000000020004000200000000000AB
:1045900000100010001000100010001000000000BB
:1045A00040000000000000000000028005400540BF
:1045B00003C0004020003FC00440044003800000CE
:1045C0000000038004400440064000000000038017
:1045D000044024403FC000400000038005400540E7
:1045E00003400000000004401FC02440244020007D
:1045F000000002E0055005500650042020403FC056
:104600000440040003C000400000044027C00040F4
:104610000000000000100010041027E0000000005F
:1046200020403FC00140070004C00440204020401B
:104630003FC000400040000007C0040007C0040065
:1046400003C00000044007C00440040003C0004051
:10465000000003800440044003800000041007F0C1
:104660000450044003800000000003800440045014
:1046700007F00010044007C00240040004000000DE
:10468000000006400540054004C000000000040092
:104690001F800440004000000400078000400440E8
:1046A00007C000400400070004C0018006000400A9
:1046B000060001C0070001C006000000044006C05B
:1046C000010006C0044000000410071004E001804F
:1046D000060004000000044005C00640044000003D
:1046E0000000000004007BE040200000000000000B
:1046F0000000FFF000000000000040207BE004000C
:104700000000000040008000400020002000400029
:104710000000000000000000000000000000000099
:104720000000000000001FCC000C00000000000092
:104730000000080030006000080030006000000049
:10474000022003FC1E20022003FC1E200220000089
:1047500000000E1811043FFF10840C7800000000C8
:104760000F0010840F3800C007781884007800000C
:1047700000780F8410C411240E9800E4008400080F
:104780000800680070000000000000000000000049
:1047900000000000000007E018182004400200009C
:1047A000000040022004181807E00000000000008C
:1047B0000240024001800FF00180024002400000F0
:1047C0000080008000800FF80080008000800000E2
:1047D0000001000D000E00000000000000000000BD
:1047E0000000008000800080008000800080008049
:1047F0000000000C000C00000000000000000000A1
:10480000000000060018006001800600180020006B
:10481000000007F0080810041004080807F0000062
:104820000000080408041FFC00040004000000004D
:1048300000000E0C10141024104411840E0C000003
:1048400000000C1810041104110412880C700000F0
:10485000000000E00320042408241FFC00240000C2
:1048600000001F98108411041104108810700000BB
:10487000000007F008881104110418880070000077
:1048800000001C00100010FC13001C0010000000B1
:1048900000000E3811441084108411440E380000BA
:1048A00000000700088C10441044088807F000003E
:1048B000000000000000030C030C000000000000DA
:1048C00000000000000101060000000000000000E0
:1048D00000000080014002200410080810040000BD
:1048E00002200220022002200220022002200000DA
:1048F000000010040808041002200140008000009D
:1049000000000E001200100C106C10800F00000050
:1049100003E00C1813E4142417C4082807D000007F
:104920000004003C03C41C40074000E4001C0004D9
:1049300010041FFC1104110411040E880070000003
:1049400003E00C1810041004100410081C100000E0
:1049500010041FFC100410041004080807F00000E5
:1049600010041FFC1104110417C4100408180000DF
:1049700010041FFC1104110017C0100008000000F3
:1049800003E00C181004100410441C7800400000D0
:1049900010041FFC10840080008010841FFC100491
:1049A0000000100410041FFC10041004000000009C
:1049B00000030001100110011FFE10001000000094
:1049C00010041FFC110403801464181C1004000060
:1049D00010041FFC1004000400040004000C00007C
:1049E00010041FFC1F0000FC1F001FFC100400002F
:1049F00010041FFC0C04030000E010181FFC100042
:104A000007F00808100410041004080807F000005C
:104A100010041FFC10841080108010800F00000014
:104A200007F0081810241024101C080A07F20000D0
:104A300010041FFC1104110011C011300E0C0004F1
:104A400000000E1C11041084108410441C38000057
:104A50001800100010041FFC1004100018000000C3
:104A600010001FF810040004000410041FF81000C8
:104A700010001E0011E0001C007013801C001000CC
:104A80001FC0103C00E01F0000E0103C1FC00000F1
:104A90001004180C163401C001C01634180C100490
:104AA00010001C00130400FC13041C001000000084
:104AB0000804101C1064108413041C041018000057
:104AC0000000000000007FFE4002400240020000A3
:104AD000000030000C0003800060001C0003000098
:104AE00000004002400240027FFE00000000000083
:104AF00000000000200040004000400020000000B6
:104B0000000100010001000100010001000100019D
:104B100000004000400020000000000000000000F5
:104B200000000098012401440144014400FC0004F9
:104B300010001FFC008801040104008800700000C0
:104B400000000070008801040104010400880000D6
:104B50000000007000880104010411081FFC00041B
:104B6000000000F8014401440144014400C8000071
:104B70000000010401040FFC1104110411001800CD
:104B8000000000D601290129012901C90106000000
:104B900010041FFC008401000100010400FC00045B
:104BA00000000104190419FC0004000400000000C6
:104BB0000000000300010101190119FE00000000BE
:104BC00010041FFC0024004001B4010C010400008B
:104BD0000000100410041FFC00040004000000008A
:104BE000010401FC0104010001FC0104010000FCBE
:104BF000010401FC008401000100010400FC000428
:104C0000000000F8010401040104010400F80000A0
:104C1000010101FF0085010401040088007000000B
:104C200000000070008801040104010501FF00017B
:104C30000104010401FC0084010401000180000062
:104C4000000000CC0124012401240124019800006B
:104C500000000100010007F8010401040000000049
:104C6000010001F8000400040004010801FC000434
:104C7000010001800170000C001001600180010042
:104C800001F0010C003001C00030010C01F0010006
:104C900000000104018C00740170018C010400000B
:104CA000010101810171000E001801600180010005
:104CB00000000184010C013401440184010C000056
:104CC000000000000000000001003EFC4002400225
:104CD0000000000000000000FFFF000000000000D6
:104CE0000000400240023EFC010000000000000005
:104CF0000000600080008000400040002000200094
:104D000000000000000000000000000000000000A3
:104D10000000000000000000000000000000000093
:104D20000000000000000000000000000000000083
:104D30000000000F80380FFE380F803800000000A0
:104D40000000000000000000000000000000010062
:104D5000000600000C0000380000310000060000D2
:104D60000C000038000030000000000000000000CF
:104D700061800067F807F980006180006180006150
:104D8000800061800067F807F98000618000000002
:104D900000000000000001C0E003E0F0063008045D
:104DA00018081FFFFE040E080787F00381E00000CB
:104DB0000000000001F000060C00040408060C705E
:104DC00001F9C0000E00003BE000EC1807080804E1
:104DD0000C180003E00000000001E00007F003F8F9
:104DE00018041C0804170807E1D003C0E00023B032
:104DF000003C080020080000100000000000000136
:104E000000003100003200001C0000000000000023
:104E10000000000000000000000000000000000092
:104E20000000000000000000000000000000000082
:104E30007F0001FFC00780F00C0018100004200064
:104E4000020000000000002000021000040C001806
:104E50000780F001FFC0007F00000000000000009C
:104E6000000000000000000000000000420000669A
:104E700000006600003C0000180003FFC00018009E
:104E8000003C0000660000660000420000000000D8
:104E9000080000080000080000080000080001FFEA
:104EA000C00008000008000008000008000008001A
:104EB00000000000000100003100003200001C0072
:104EC00000000000000000000000000000000000E2
:104ED00000000000000000000800000800000800BA
:104EE000000800000800000800000800000800009A
:104EF00008000008000000000000000000000000A2
:104F000038000038000038000000000000000000F9
:104F10000000000000000000000000000000000091
:104F2000000600001C000070000180000E00003828
:104F30000000C0000700001C00003000000000005E
:104F4000000000007F8001FFE0038070060018046D
:104F5000000804000806001803807001FFE0007FCD
:104F600080000000000000000000010008010008AF
:104F700001000803FFF807FFF80000080000080020
:104F8000000800000000000000000001C03802C05E
:104F900058040098040118040218040418061C1888
:104FA00003F81801E0F80000000000000000000114
:104FB000C0E003C0F004000804080804080806184C
:104FC0000803F41801E7F00001E000000000000011
:104FD000000000000300000D00001100006100004F
:104FE000810803010807FFF80FFFF800010800011E
:104FF000080000000000000000E007FCD0060808E0
:10500000061008061008061008061838060FF006E5
:1050100007C0000000000000000000003F8001FF0A
:10502000E003843002081804100804100804100873
:10503000071810030FF00007C00000000000000078
:10504000000003C0000700000600000600F8060785
:10505000F806180006E00007000006000000000047
:1050600000000001E1E003F7F00634100418080422
:105070001808040C08040C0806161803F3F001C104
:10508000E000000000000000F80003FC30030638D8
:105090000402080402080402080404100308F001D2
:1050A000FFC0007F000000000000000000000000C2
:1050B00000000000000000007038007038007038F8
:1050C00000000000000000000000000000000000E0
:1050D000000000000000000000000000301A003056
:1050E0001C000000000000000000000000000000A4
:1050F0000000000000000008000014000022000072
:1051000041000080800100400200200400100800DF
:105110000800000000000000210000210000210024
:1051200000210000210000210000210000210000DA
:105130002100002100000000000000000000080025
:10514000080400100200200100400080800041009F
:10515000002200001400000800000000000000030E
:10516000C00004C000040000080038080F38080818
:10517000380810000C300007E00003C000000000F9
:10518000000000003F8000FFE0038070020F100667
:10519000708804C088048308047F8802C0900301DB
:1051A0002000FE400000080000180001F8003E0842
:1051B00001C20007020007E20000FE00001FC80055
:1051C00001F800003800000804000807FFF807FF96
:1051D000F804080804080804080804080806180861
:1051E00003F41801E7F00001E000000000000000F7
:1051F0003F8001FFE00380700200180400080400F3
:10520000080400080400100600200780C000000009
:1052100004000807FFF807FFF8040008040008046A
:10522000000804001802001003807001FFE0007FF6
:105230008000000004000807FFF807FFF8040808D2
:10524000040808040808040808043E0804000806C6
:10525000001801006000000004000807FFF807FFC5
:10526000F8040808040800040800040800043E00CC
:1052700006000006000001800000000000000000A1
:105280003F8001FFE003807006001804000804025C
:10529000080402080203F00783F000020000020085
:1052A00004000807FFF807FFF804080800080000DA
:1052B000080000080000080004080807FFF807FFBE
:1052C000F8040008000000000000040008040008C2
:1052D00004000807FFF807FFF804000804000804AA
:1052E00000080000000000000000000000060000B0
:1052F0000700000104000104000104000307FFFE91
:1053000007FFFC040000040000040000040008077C
:10531000FFF807FFF8040C08001800003E0004C75F
:10532000800503C80600F8040038040018000008CF
:1053300004000807FFF807FFF80400080000080051
:105340000008000008000008000008000018000025
:105350006000000004000807FFF807800807FC0051
:10536000007FC00003F80007C0007800078008072E
:10537000FFF807FFF804000804000807FFF807001B
:105380000803C00000E000003800001E0000070015
:105390000001C00400F007FFF80400000000000056
:1053A0007F8001FFE00380700600180400080400FD
:1053B0000806001803003001FFE0007F80000000B5
:1053C00004000807FFF807FFF804040804040004B9
:1053D0000400040400040400060C0003F80001F0BB
:1053E00000000000000000007F8001FFE0038070EB
:1053F0000600880400880400C806003C03003E0143
:10540000FFE6007F8400000004000807FFF807FFA4
:10541000F8040808040800040C00040F00040BC082
:105420000610F003F03801E0080000080000000159
:10543000E0F803F030063010041808041808040CD3
:1054400008040C080206180207F00781E0000000BB
:1054500001800006000004000004000004000807AA
:10546000FFF807FFF804000804000004000006002D
:105470000001800004000007FFE007FFF0040018AF
:1054800000000800000800000800000800000804F0
:10549000001007FFE004000004000006000007E021
:1054A0000007FE00041FE00001F80000380001E0E2
:1054B000043E0007C00006000004000004000007CE
:1054C000E00007FFC0041FF80007C007F80007FF4F
:1054D00080043FF80007C004F80007000004000043
:1054E00000000004000806001807C07805F1C80095
:1054F0003E00001F800463E80780F80600180400DF
:105500000800000004000006000007800007E00813
:10551000047C08001FF80007F800180804E00807DA
:105520000000060000040000000000010008060062
:10553000380400F80403E8040F08047C0805F008A8
:1055400007C0080700180400600000000000000009
:1055500000000000000000000000003FFFFE2000EF
:1055600002200002200002200002200002000000B1
:1055700000000000000008000007000000C000005C
:1055800038000006000001C000003000000E0000DE
:1055900001000000000000000000200002200002C6
:1055A0002000022000022000023FFFFE0000000059
:1055B00000000000000000000000000000000000EB
:1055C0000008000010000030000020000030000043
:1055D00010000008000000000000000000000100B2
:1055E00000010000010000010000010000010000B6
:1055F00001000001000001000001000001000001A5
:10560000000000000000000000200000200000104A
:10561000000010000000000000000000000000007A
:10562000000000000000000000F00019F8001B1846
:10563000002208002608002408002410003FF8007B
:105640001FF800000800001800000004000007FF19
:10565000F80FFFF0001818001008002008002008BC
:10566000003018001FF0000FC00000000000000014
:1056700007C0001FF000183000200800200800209C
:1056800008003C08001C1000006000000000000042
:105690000000000007C0001FF000381800200800BC
:1056A000200800200804101007FFF80FFFF000008A
:1056B000100000000000000000000007C0001FF004
:1056C00000123000221800220800220800320800D0
:1056D0001E10000E2000000000000000200000202E
:1056E0000800200801FFF803FFF80620080420083E
:1056F0000420080720000300000000000000000054
:10570000000E000E6E001FF30031B10020B100202A
:10571000B1003191001F13002E1E00200E0030003A
:1057200000000004000807FFF80FFFF80010080051
:105730002000002000002008003FF8001FF80000B3
:105740000800000000000000000000200800200801
:10575000002008063FF8063FF80000080000080097
:105760000008000000000000000000000000000031
:1057700003000003002001002001002003063FFE7B
:10578000063FFC00000000000000000000000004D4
:10579000000807FFF80FFFF8000188000300002F42
:1057A000C00038F800203800200800000800000081
:1057B00000000000000004000804000804000807BE
:1057C000FFF80FFFF80000080000080000080000C4
:1057D00000000000002008003FF8003FF80010081B
:1057E000002000003FF8003FF800100800200000F3
:1057F0003FF8003FF8000008000000002008003FCC
:10580000F8003FF8001008001000002000002008F9
:10581000003FF8001FF80000080000000000000032
:1058200007C0000FF00018300030080020080020EA
:1058300008003008001830000FF00007C00000001A
:10584000000000002001003FFF003FFF001011009A
:105850002009002008002008003038001FF0000F49
:10586000C00000000000000007C0001FF000381852
:10587000002008002008002009001011001FFF0070
:105880003FFF000001000000002008002008002069
:1058900008003FF8003FF800080800100800200842
:1058A0000020000030000030000000000000000078
:1058B0000000000C78001E180033080023080021A7
:1058C000080021880021980030F0003860000000B6
:1058D00000000000200000200000200000FFF00376
:1058E000FFF8002008002008002008000030000019
:1058F00000000000000000002000003FF0007FF8E2
:10590000000018000008000008002010003FF80008
:105910007FF00000100000000000000020000030B8
:1059200000003C00003F800023F000007800007081
:10593000002380003C000030000020000020000018
:105940003C00003FE00023F80000E0002700003E9C
:1059500000003FE00021F80001E0003E00002000D0
:10596000000000002008002008003838003E6800D1
:1059700027800003C8002CF80038380020180020C9
:1059800008000000000000002000003003003C017F
:10599000003F830023EC000070002380003C0000E7
:1059A000200000200000000000000000000000387F
:1059B000080020380020F80023E8002F88003E0867
:1059C00000380800201800007000000000000000EF
:1059D00000000000000000000000000008000014AB
:1059E000001FF7FC3000062000020000000000004D
:1059F00000000000000000000000000000000000A7
:105A00000000FFFFFF000000000000000000000099
:105A1000000000000000000000002000023000062E
:105A20001FF7FC0014000008000000000000000048
:105A300000000000000000000000001800006000EE
:105A4000004000004000002000001000000800009E
:105A50000400000400000C00001000007C5A000844
:105A600000000020AC000000AC200008285B00080B
:105A7000AC0000204C4E0000BC200008006CDC0292
:105A800000000000000000000102030406070809EE
:105A900000000000020406080000000001020304E8
:105AA00001020304060708090000000000000000CE
:105AB00000000000000000000000000000000000E6
:105AC00000000000000000000000000000000000D6
:105AD00000000000000000000000000000000000C6
