:020000040800F2
:10000000F04E0020DD010008A90E0008490C000890
:10001000A50E0008950700086B1B000800000000F3
:100020000000000000000000000000004501000882
:10003000170B0008000000008901000831160008B5
:10004000F7010008F7010008F7010008F7010008B0
:10005000F7010008F7010008F7010008F7010008A0
:10006000F7010008F7010008F7010008F701000890
:10007000F7010008F7010008F7010008F50700087C
:10008000F7010008F7010008F7010008F701000870
:10009000F7010008F7010008F7010008F701000860
:1000A000F7010008F7010008F7010008F701000850
:1000B000F7010008F7010008F7010008F701000840
:1000C000F7010008F7010008F7010008F701000830
:1000D000F70100085D17000801190008F701000882
:1000E000F7010008F7010008F7010008F701000810
:1000F000F7010008F7010008F7010008F701000800
:10010000F7010008F7010008F7010008F7010008EF
:10011000F7010008F7010008F7010008F7010008DF
:10012000F7010008F7010008F7010008F7010008CF
:10013000DFF80CD000F08EFA00480047ED260008EA
:10014000F04E0020224B19680868B0E8F00F80F3E9
:100150000988BFF36F8F4FF0000080F311884EF0D5
:100160000D0E70470000000006480068006880F32C
:10017000088862B661B6BFF34F8FBFF36F8F00DFA1
:1001800000BF00BF08ED00E0EFF30980BFF36F8F01
:100190000F4B1A6820E9F00F106008B54FF05000BF
:1001A00080F31188BFF34F8FBFF36F8F03F062FAB4
:1001B0004FF0000080F31188BDE808401968086816
:1001C000B0E8F00F80F30988BFF36F8F704700BF6E
:1001D00030000020EFF3058070470000064880479C
:1001E00006480047FEE7FEE7FEE7FEE7FEE7FEE71C
:1001F000FEE7FEE7FEE7FEE7FD1600083101000816
:1002000040EA01039B0703D009E008C9121F08C098
:10021000042AFAD203E011F8013B00F8013B521E18
:10022000F9D27047D2B201E000F8012B491EFBD28F
:1002300070470022F6E710B513460A4604461946F1
:10024000FFF7F0FF204610BD421C10F8011B0029EB
:10025000FBD1801A704730B50B46014600202022A2
:10026000012409E021FA02F59D4205D303FA02F5C3
:10027000491B04FA02F52844151EA2F10102F1DC23
:1002800030BD2DE9F05F0546002092469B4688462A
:100290000646814640241BE0284641464746224602
:1002A00000F0F9F953465A46C01A914110D311464D
:1002B0001846224600F0E0F92D1A67EB01084F4678
:1002C00022460120002100F0D7F917EB00094E412A
:1002D000201EA4F10104DFDC484631462A4643468D
:1002E000BDE8F09F2DE9FE4F804681EA0300C00F74
:1002F0000C46009021F0004123F00045B8EB0200CD
:10030000A94105D24046214690461C460B4602466E
:1003100023F00040104347D0270DC7F30A00C3F372
:100320000A510290401A019040286BDAC3F313007F
:1003300040F4801B0098924620B10023D2EB030AC0
:1003400063EB0B0B01985946C0F14002504600F098
:1003500093F906460D4650465946019A00F0ABF90E
:1003600010EB08006141002487EA115284EAE77328
:100370001A4340D0009A62B3019A012A4FEA075209
:1003800015DC001B61EB02014FF0004202EA07524C
:10039000CDE90042001C41F5801132462B4600F0A9
:1003A000ABF903B0BDE8F08F40462146F9E7001BEA
:1003B00061EB0201001C41F5801300185B4120181D
:1003C000A2F5001747EB030140EAD570B6196D415D
:1003D00011E06D084FEA360645EAC0754FEA07524C
:1003E000001B61EB0201001C41F5801149084FEA36
:1003F00030000019514132462B4603B0BDE8F04FA2
:1004000000F06BB90098012240000023D0EB0202FB
:1004100063EBE073009821464FEAE074B8EB00000C
:1004200061EB0401E9E783F000435BE781F0004101
:1004300058E72DE9FE4F81EA030404F0004421F05F
:10044000004100944FF0000B23F0004350EA0104F8
:100450005ED052EA03045BD0C3F30A54C1F30A55D9
:100460002C44A4F2F3340194A0FB0254C1F3130111
:1004700041F48011C3F3130343F4801301FB0244DE
:1004800000FB034E840A970A44EA815447EA8357E3
:10049000A4FB076802958D0A05FB07854FEA932C9C
:1004A00004FB0C542705029D4FEA065847EA16370D
:1004B000B5EB08056EEB070C870E920E47EA811725
:1004C00042EA8312A7FB0201B6EB0B0164EB0004C6
:1004D0002B0D43EA0C335E1844EB1C50DA465146B0
:1004E000E7FB0201C5F313044FEA0B3343EA14534D
:1004F0004FEA0432019C43EA0603A4F10C0402947F
:10050000009CCDE900B400F0F7F803B0BDE8F08F2F
:1005100000200146F9E72DE9F04D81EA030404F0DB
:10052000004B21F0004514464FF0000A23F0004133
:1005300050EA050220D054EA01021DD0C5F30A5743
:100540000246C5F31303C1F31300C1F30A5640F486
:10055000801543F48013A7EB0608101BD64608F25B
:10056000FD3873EB050002D308F1010801E0921891
:100570005B41B8F1000F03DA00200146BDE8F08DC1
:1005800000204FF48011064684460EE0171B73EBE3
:10059000050705D3121B63EB050306434CEA010C68
:1005A00049084FEA300092185B4150EA0107EDD14B
:1005B00052EA030012D082EA040083EA05010843EC
:1005C00005D0101BAB4106D20122002306E0002219
:1005D0004FF0004302E06FF0010253101AEB0600E7
:1005E0004CEB085110EB0A0041EB0B01BDE8F04D5C
:1005F00000F073B8C1F30A52C1F3130140F2FF33A4
:1006000041F480119A4202DA00200146704740F21C
:1006100033439A42A2F2334202DC524200F03BB82A
:1006200000F02AB830B5041E71F1000404DB4FF06D
:100630000044404264EB0101141E73F1000405DB29
:100640001C464FF00043524263EB0403994208BF3B
:10065000904230BD064C074D06E0E06840F00103D3
:1006600094E8070098471034AC42F6D3FFF764FDD6
:10067000545B0008745B0008202A04DB203A00FA6F
:1006800002F1002070479140C2F1200320FA03F3E9
:10069000194390407047202A04DB203A21FA02F0E7
:1006A0000021704721FA02F3D040C2F120029140AC
:1006B000084319467047202A06DBCB17203A41FA37
:1006C00002F043EAE07306E041FA02F3D040C2F1DF
:1006D0002002914008431946704710B5141E73F16B
:1006E000000408DA401C41F1000192185B411A43F2
:1006F00001D120F0010010BD2DE9F04D92469B463E
:1007000011B1B1FA81F202E0B0FA80F220329046E3
:10071000FFF7B2FF04460F4640EA0A0041EA0B0128
:1007200053465A46084313D0114653EA010019D0E4
:10073000C8F140025046FFF7AEFF05460E46504650
:1007400059464246FFF798FF084305D0012004E0D0
:1007500020463946BDE8F08D0020054346EAE076A4
:100760002C4337430A986305E40AA0EB08000022F3
:10077000FD0A44EA47540A3002D500200146E9E761
:10078000010510196941DDE9084500196941BDE815
:10079000F04DA2E700BFFEE710B500F0D5FD012047
:1007A00000F094FE00BF212000F05EFE0028FAD089
:1007B000002000F07FFE4FF4806000F08DFE0020EE
:1007C00000F096FE4FF42011002000F0A3FE01205F
:1007D00000F09AFE00BF392000F046FE0028FAD053
:1007E000022000F0A5FE00BF00F05CFE0828FBD14F
:1007F00010BD000010B54FF4003000F013F90128CF
:1008000009D1124A4021124800F04BF94FF4003050
:1008100000F02EF819E04FF4802000F003F90128D1
:100820000AD10A4A40210A48403800F03AF94FF408
:10083000802000F01DF808E04FF4002000F0F2F8EE
:10084000012802D1C00400F013F810BDA801002057
:100850006801002000F0805111B10349086001E0F7
:100860000249486070470000040402400000024052
:1008700000F0805111B10349086001E0024948606D
:1008800070470000040402400000024021B10268E9
:1008900042F00102026004E002684FF6FE731A4063
:1008A0000260704701684FF6FE721140016000213E
:1008B000016041608160C1604B49884208D14A496A
:1008C0000839496841F00F01474A083A51608AE007
:1008D00045491431884208D143490839496841F0F3
:1008E000F001414A083A51607DE03F492831884291
:1008F00008D13D490839496841F470613A4A083ADB
:10090000516070E038493C31884208D13649083995
:10091000496841F47041344A083A516063E0324911
:100920005031884208D130490839496841F4702172
:100930002D4A083A516056E02B496431884208D16B
:1009400029490839496841F47001274A083A516039
:1009500049E025497831884208D123490839496856
:1009600041F07061204A083A51603CE01F498842DA
:1009700006D1011F096841F00F01021F116032E02A
:100980001A491431884208D11849091F096841F0F1
:10099000F001164A121F116025E0144928318842DF
:1009A00008D11249091F096841F470610F4A121FEA
:1009B000116018E00D493C31884208D10B49091FEC
:1009C000096841F47041094A121F11600BE00749A0
:1009D0005031884207D10549091F096841F4702147
:1009E000024A121F116070470800024008040240CA
:1009F0000146486880B2704701460020002201F09D
:100A0000805313B1054B1A6801E0054B1A6802EADE
:100A100001030BB1012000E00020704700040240F8
:100A20000000024001460020002201F0805313B173
:100A3000054B1A6801E0054B1A6802EA01030BB185
:100A4000012000E000207047000402400000024046
:100A50001AB103680B43036002E003688B43036031
:100A6000704710B50022026847F6F0739A430C6A8B
:100A70008B6823430C6923434C6923438C692343CC
:100A8000CC6923434C6A23438C6A23431A43026094
:100A9000CB6843600B6883604B68C36010BD4160E6
:100AA00070472DE9F04106460D46144606B10CB9D3
:100AB000BDE8F081D4F800042844B0F5806F0CD272
:100AC000D4F8001408192A463146FFF799FBD4F8E8
:100AD00000042844C4F800041BE0D4F80004C0F566
:100AE0008067D4F8001408193A463146FFF788FBAE
:100AF000EA1BF1192046FFF783FBE81BC4F800044A
:100B000004F5806003C8884202D3012084F80804F9
:100B100000BF00BFCCE770472DE9F0410246002539
:100B20000026002000230024002791F803C00CF0C9
:100B30000F0591F803C00CF0100CBCF1000F03D0AE
:100B400091F802C04CEA050591F800C0BCF1000F15
:100B500031D0146800202BE04FF0010C0CFA00F3A8
:100B6000B1F800C00CEA03069E4220D183004FF08A
:100B70000F0C0CFA03F7BC4305FA03FC4CEA04041F
:100B800091F803C0BCF1280F06D14FF0010C0CFA0C
:100B900000FCC2F814C00AE091F803C0BCF1480F91
:100BA00005D14FF0010C0CFA00FCC2F810C0401C3B
:100BB0000828D1D31460B1F800C0BCF1FF0F34DDB8
:100BC000546800202EE000F1080C4FF0010808FAEC
:100BD0000CF3B1F800C00CEA03069E4221D1830059
:100BE0004FF00F0C0CFA03F7BC4305FA03FC4CEA78
:100BF000040491F803C0BCF1280F05D100F1080CE2
:100C000008FA0CF8C2F8148091F803C0BCF1480F40
:100C100007D100F1080C4FF0010808FA0CF8C2F8EF
:100C20001080401C0828CED35460BDE8F0810246F5
:100C3000002093680B400BB1012000E000207047BA
:100C4000416170470161704700BFFEE710B54FF486
:100C500000710C48FFF7F6FF4FF480710948FFF769
:100C6000F1FF012002F038FC4FF400710548FFF756
:100C7000E7FF012002F030FC4FF480710148FFF7DC
:100C8000DFFF10BD000C014010B54FF400710A48A1
:100C9000FFF7D6FF4FF480710748FFF7D3FF01201D
:100CA00002F01AFC4FF400710348FFF7CBFF01205C
:100CB00002F012FC10BD0000000C014010B5002431
:100CC0004FF400711248FFF7BDFF012002F004FC51
:100CD0004FF480710E48FFF7B5FF012002F0FCFBD6
:100CE00007E0601CC4B2FA2C03DDFFF7CDFF012042
:100CF00010BD4FF400710648FFF799FF0028F0D1AE
:100D00004FF480710248FFF79BFF0020F0E70000DE
:100D1000000C014070B50446002520E0E00928B130
:100D20004FF400710F48FFF78DFF04E04FF400719E
:100D30000C48FFF785FF6006040E4FF480710948E8
:100D4000FFF780FF012002F0C7FB4FF480710548D8
:100D5000FFF776FF012002F0BFFB681CC5B2082D2B
:100D6000DCDB70BD000C014008B50121182000F04B
:100D7000DBFA4FF40050ADF8000010208DF80300AE
:100D800003208DF8020069461C48FFF7C5FE4FF4AA
:100D900000511A48FFF756FF4FF40040ADF800002D
:100DA00010208DF8030003208DF8020069461448D6
:100DB000FFF7B2FE4FF400411148FFF743FF4FF435
:100DC0008040ADF8000010208DF8030003208DF85E
:100DD000020069460A48FFF79FFE4FF48041084829
:100DE000FFF72EFF4FF40050ADF8000004208DF8FF
:100DF000030069460248FFF78FFE08BD001001405E
:100E0000000C01401CB500F00FF910231DA20021B9
:100E1000084600F027FA0C231DA21421002000F040
:100E200021FA0020019000901C48FFF70DFA84B2CF
:100E300021461A4800F042FF22E04FF0FF32694697
:100E400001A800F0E3FC38B9009881B2019800F0E5
:100E500035FF019802F06AFA00BF4FF400511048C4
:100E6000FFF7EEFE00BFC82002F036FB00BF4FF4D4
:100E700000510B48FFF7E6FE00BFC82002F02CFB34
:100E8000DBE700004F4C45442054657374000000BC
:100E9000494943204D6F6465000000009C420008F2
:100EA0000010014000BFFEE77047000070B5002150
:100EB00000230F22C47804B3154C246804F4E064C2
:100EC000C4F5E064210AC1F10403CA40447804FA7D
:100ED00003F184781440214309010E4C0678A15592
:100EE000047804F01F050124AC4005786D11AD00B5
:100EF00005F1E025C5F8004109E0047804F01F057C
:100F00000124AC40044D0678761145F8264070BDAA
:100F10000CED00E000E400E080E100E00249014364
:100F2000024A1160704700000000FA050CED00E075
:100F300010B5002807DA0A07140E054A00F00F035F
:100F40001B1FD45403E00A07130E024A135410BDAA
:100F500018ED00E000E400E070B500240CE000258E
:100F600006E00020074901EBC5010855681CC5B221
:100F7000802DF6DB601CC4B2082CF0DB00F0C2F858
:100F800070BD0000F0460020F0B5144600267F2812
:100F900001DC3F2900DDF0BD0B46CF1701EB577791
:100FA000FF10C7F10707FAB2CF1701EB5777FF1011
:100FB000A1EBC707FDB2C5F107070123BB40DEB2B5
:100FC0004CB10A4B03EBC0039B5C3343074F07EB69
:100FD000C007BB5408E0054B03EBC0039B5CB34365
:100FE000024F07EBC007BB5400BFD4E7F046002018
:100FF00008B50121082000F097F94FF44070ADF8D2
:10100000000014208DF8030003208DF802006946CB
:101010000448FFF781FD4FF440710248FFF712FECC
:1010200008BD0000000C014010B5FFF7E1FFC8202B
:1010300002F052FA0021AE2000F045F90021D5203F
:1010400000F041F90021802000F03DF90021A820A6
:1010500000F039F900213F2000F035F90021D320BC
:1010600000F031F90021084600F02DF90021402060
:1010700000F029F900218D2000F025F9002114202D
:1010800000F021F90021202000F01DF90021084680
:1010900000F019F90021A12000F015F90021C0206D
:1010A00000F011F90021DA2000F00DF900211220E2
:1010B00000F009F90021812000F005F90021EF205E
:1010C00000F001F90021D92000F0FDF80021F12005
:1010D00000F0F9F80021DB2000F0F5F800213020C5
:1010E00000F0F1F80021A42000F0EDF80021A62086
:1010F00000F0E9F8FFF730FF0021AF2000F0E3F83F
:1011000010BD000070B502F0C9F800241CE004F125
:10111000B001C8B2002100F0D6F80021084600F066
:10112000D2F80021102000F0CEF8002508E009498F
:1011300001EBC501085D012100F0C5F8681CC5B2CE
:10114000802DF4DB601CC4B2082CE0DB02F0D0F888
:1011500070BD0000F04600202DE9F84F80460F4694
:1011600016461C46BA462046E31704EB5373DB10C1
:1011700021464FEAE47C04EB5C7C4FEAEC0CA4EBE8
:10118000CC0CBCF1000F02D04FF0010C01E04FF08D
:10119000000C6344224604EBD27C4FEA6C0C03FB48
:1011A0000CF303F0FF0BA6F12000C6B200254EE0C1
:1011B0000C2C07D106EB4600274901EB8000405D6F
:1011C000009013E0102C05D1244800EB0610405D80
:1011D00000900BE0182C07D106EBC600204901EB6C
:1011E0008000405D009001E0BDE8F88F4FF00009FD
:1011F00027E0009800F0800028B1394640460A9A5E
:10120000FFF7C2FE09E00A9808B9012000E00020BB
:10121000024639464046FFF7B7FE00984006000EEA
:101220000090781CC7B2A7EB0A00A04205D1574630
:1012300008F1010000F0FF0806E009F1010000F0EC
:10124000FF09B9F1080FD4DB00BF681CC5B25D45CA
:10125000AEDB00BFC8E70000944300080848000860
:10126000F84D0008F8B506460F4615461C4621E025
:1012700004EBD4714910C1F18001B14202DA0026B9
:101280003819C7B2C4F14000B84204DA002006465B
:101290000746FFF761FE012000902A782346394671
:1012A0003046FFF759FF204604EBD07106EB610191
:1012B000CEB26D1C28787E2802DC28782028D7DA68
:1012C000FFF720FFF8BD70B505460C4601F0E6FFBC
:1012D000FFF7BCFC7820FFF71DFDFFF7EFFC1CB10A
:1012E0004020FFF717FD02E00020FFF713FDFFF796
:1012F000E5FC2846FFF70EFDFFF7E0FCFFF7C4FC16
:1013000001F0F6FF70BD000029B1064A52690243A0
:10131000044B5A6104E0034A52698243014B5A610B
:10132000704700000010024029B1064A926902434A
:10133000044B9A6104E0034A92698243014B9A612B
:1013400070470000001002400F48006840F00100A4
:101350000D490860084640680C4908400A49486041
:10136000084600680A4908400749086008460068BE
:1013700020F4802008600846406820F4FE004860A1
:101380004FF41F0088607047001002400000FFF813
:10139000FFFFF6FE30B500210022002400232D4D72
:1013A0006D6805F00C0121B1042905D0082923D16D
:1013B00005E0294D056022E0274D05601FE0254D21
:1013C0006D6805F47012234D6D6805F480340225B4
:1013D00005EB92421CB9214D554305600BE01D4DB4
:1013E0006D6805F400351DB11C4D5543056002E0E4
:1013F000194D5543056002E0174D056000BF00BF61
:10140000144D6D6805F0F0010909154D6B5C056818
:10141000DD4045600F4D6D6805F4E061090A104D2F
:101420006B5C4568DD4085600A4D6D6805F4605170
:10143000C90A0B4D6B5C4568DD40C560054D6D68A4
:1014400005F44041890B074D6B5CC568B5FBF3F5AE
:10145000056130BD0010024000127A0000093D0015
:10146000140000202400002010B5014600220023B3
:1014700000204A11012A02D1094C236806E0022A01
:1014800002D1074C236A01E0054C636A01F01F0298
:10149000012494401C400CB1012000E0002010BD4C
:1014A000001002400248406800F00C007047000045
:1014B0000010024001460020034A506820F0F0006E
:1014C0000843506070470000001002400149086066
:1014D000704700000000424201460020034A506865
:1014E00020F4E060084350607047000000100240A4
:1014F00001460020034A506820F4605040EAC100D1
:1015000050607047001002400149086670470000B3
:101510000000424202460020044B586820F47C1030
:1015200042EA01031843014B586070470010024023
:1015300001460020034A506820F003000843506031
:10154000704700000010024010B500F001F810BD17
:101550000CB50020019000903348006840F48030C2
:101560003149086000BF3048006800F40030009046
:101570000198401C0190009818B90198B0F5A06F2F
:10158000F1D12948006800F4003010B1012000902A
:1015900001E0002000900098012843D12348006812
:1015A00040F01000214908600846006820F0030060
:1015B00008600846006840F0010008601A4840686A
:1015C000194948600846406848600846406840F449
:1015D000806048600846406820F47C1048600846F7
:1015E000406840F4881048600846006840F0807009
:1015F000086000BF0C48006800F000700028F9D0B7
:101600000948406820F003000749486008464068E0
:1016100040F00200486000BF0348406800F00C0042
:101620000828F9D10CBD0000001002400020024043
:1016300010B502F0EFFB012801D002F0DFF810BD79
:101640002DE9F04100242B4800684FF47A71B0FB7B
:10165000F1F5B5F1807F00D311E025F07F40401E09
:101660004FF0E02148610F214FF0FF30FFF760FCA1
:1016700000204FF0E02188610720086100BF00BF13
:101680001D480068C0F30220044620460F220023B4
:101690000146C1F1070CBCF1040F02D94FF0040C54
:1016A00001E0C1F1070C674601F1040CBCF1070F22
:1016B00002D24FF0000C01E0A1F1030C66464FF09E
:1016C000010C0CFA07FCACF1010C0CEA020C0CFA50
:1016D00006FC4FF0010808FA06F8A8F1010808EA2C
:1016E00003084CEA080529464FF0FF30FFF720FCBD
:1016F000BDE8F081000000200CED00E010B51348BB
:10170000006840F00100114908600846406810492F
:1017100008400E494860084600680E4908400B49D9
:1017200008600846006820F4802008600846406889
:1017300020F4FE0048604FF41F008860FFF704FFAC
:101740004FF000600449086010BD00000010024026
:101750000000FFF8FFFFF6FE08ED00E03EB540F2A6
:101760002441254800F03CF9002844D000212348BA
:10177000FFF78CF82148FFF73BF9C0F18004402CBB
:1017800005D21F4A21461F48FFF78BF906E0A4F156
:1017900040011B4A1B484030FFF783F91848D0F836
:1017A000040400901648D0F8000410B940F2FF304D
:1017B00003E01348D0F80004401E01900198401C3B
:1017C0000F49C1F804041048006830B1002302AA90
:1017D00069460D48006802F077F980210748FFF755
:1017E0005EF901210548FFF751F8034800880248D7
:1017F000001D008800BF3EBD003801405800024077
:10180000A801002028010020280000202DE9FC412B
:1018100006460C4690460025002706B11CB94FF03D
:10182000FF30BDE8FC81424669462B48006802F063
:10183000C7F9012802D04FF0FF30F2E7274890F8AF
:10184000080400F0010048B10020244981F8080490
:1018500023A000F0BFFA4FF0FF30E2E7DDE900100F
:10186000884217D3DDE90010401A401C206021682F
:10187000481C01F019FC05465DB32068411C284650
:10188000FEF7D7FC2268154B0098C1182846FEF7D2
:10189000B7FC1EE00098C0F5806701983844401CF2
:1018A00020602168481C01F0FFFB05468DB12068CF
:1018B000411C2846FEF7BDFC084A009881183A46AC
:1018C0002846FEF79DFC01994A1CE8190349FEF7DA
:1018D00097FC35600020A4E728000020A801002024
:1018E000757361727431526563656976652E6669D8
:1018F000666F2E636F766572466C61670D0A000035
:101900000EB540F22551224800F06AF8E8B12048AF
:1019100000F022F9C1B21F4802680068401C1D4B4C
:1019200018601846C068815418460068FF2802D91C
:10193000002019460860174800681649496888421F
:1019400024D101201349087220E040F224411048BC
:1019500000F046F8D0B10F48406800900D4800688C
:1019600008B9FF2002E00B480068401E0190019872
:10197000401C08494860012302AA694606480068DD
:1019800002F0A2F8024800F0E7F800BF0EBD000028
:1019900000440040B40500202C00002021B18289C1
:1019A00042F40052828104E082894DF6FF731A40AE
:1019B000828170471AB1838A0B43838202E0838A53
:1019C0008B438382704702460020B1F5007F00D12F
:1019D00000BF13880B400BB1012000E000207047CE
:1019E00070B50246002400230025002040F66A1648
:1019F000B14200D100BFC1F3421501F01F0301261F
:101A000006FA03F3012D02D19689334006E0022D38
:101A100002D1168A334001E0968A33400C12012627
:101A200006FA04F41688344013B10CB1012000E02A
:101A3000002070BDF0B503460024002600250020DC
:101A400040F66A17B94200D100BF1846C1F34214EC
:101A500001F01F06012707FA06F5012C01D10C3011
:101A600004E0022C01D1103000E014301AB10768F4
:101A70002F43076002E00768AF430760F0BD000036
:101A80002DE9F04786B005460E460024A24600BF69
:101A9000A1460027B08900B100BF2F462C8A4CF622
:101AA000FF700440F08804432C82AC894EF6F3109A
:101AB0000440B08831890843718908430443AC81EC
:101AC000AC8A4FF6FF400440B0890443AC8201A8C1
:101AD000FFF760FC1F48874202D1DDF810A001E04B
:101AE000DDF80CA0A88900F4004040B10AEBCA0060
:101AF00000EB0A1031684900B0FBF1F807E00AEB8F
:101B0000CA0000EB0A1031688900B0FBF1F86420CC
:101B1000B8FBF0F004012009642101FB1089A889B9
:101B200000F4004040B1322000EBC900B0FBF1F0FE
:101B300000F00700044308E0322000EB09106421A4
:101B4000B0FBF1F000F00F0004432C8106B0BDE8BB
:101B5000F08700000038014001468888C0F3080083
:101B60007047C1F308028280704700BFFEE70000A3
:101B700010B586B00446012144F20400FFF7D4FBFF
:101B80004FF40070ADF8140003208DF816001820F3
:101B90008DF8170005A92548FEF7BEFF4FF48060B9
:101BA000ADF8140048208DF8170005A91F48FEF76E
:101BB000B3FF01940020ADF80800ADF80A00ADF8BD
:101BC0000C00ADF810000C20ADF80E0001A918486B
:101BD000FFF756FF25208DF8000008208DF8010042
:101BE00000208DF8020001208DF803006846FFF701
:101BF0005DF9012240F224410D48FFF71BFF00F080
:101C0000B5F800F019F80122C0210948FFF7D2FE0B
:101C1000002208210A2001F00BFE0649086001217C
:101C20000348FFF7BBFE06B010BD000000080140EE
:101C3000003801402800002000B58DB00121084681
:101C4000FFF762FB1A48FEF72DFE002004900C906F
:101C500020200A90802005901648039000200990CB
:101C600080200790144802900020089006904FF4BE
:101C700080500B9002A90E48FEF7F3FE0F208DF85E
:101C8000040007208DF8050000208DF806000120D3
:101C90008DF8070001A8FFF709F901220E21044879
:101CA000FEF7D6FE01210248FEF7F0FD0DB000BDA3
:101CB0005800024028010020043801402DE9F0417D
:101CC00006460C462046E11704EB51614FEAE11845
:101CD0002046E11704EB5161C911A4EBC11700259F
:101CE00000BF4FF40050FEF787FE0128F9D1002510
:101CF0001DE000211B48FEF7C9FD06EBC51180223F
:101D00001948FEF77DFA80211648FEF7C8FE4FF409
:101D10000050FEF79FFD01211248FEF7B7FD00BFFE
:101D20004FF40050FEF768FE0128F9D16D1C4545BF
:101D3000DFD3AFB100210B48FEF7A8FD06EBC511BC
:101D40003A460948FEF75CFAB9B20648FEF7A7FE24
:101D50004FF40050FEF77EFD01210248FEF796FD8C
:101D6000BDE8F08144000240A800002000B58BB01F
:101D700001210846FFF7C8FA1348FEF793FD10202B
:101D8000029000200A900890802003900F48019054
:101D900000200790802005900D48009000200690BC
:101DA0000490099069460848FEF75BFE0121064849
:101DB000FEF775FE4FF40050FEF74CFD012102487E
:101DC000FEF764FD0BB000BD44000240A8000020F7
:101DD000043801400FB4054B10B503A9044A02981A
:101DE00000F0DAF810BC5DF814FB0000C92600080A
:101DF000A400002002E008C8121F08C1002AFAD17E
:101E000070477047002001E001C1121F002AFBD17A
:101E1000704700002DE9FF5F82B00021DDE904304A
:101E2000020DDDF840B0034318D044F61050A2F282
:101E3000FF3242431514119801281FD0A5EB0B0067
:101E4000401C5FEA000A4FF000064E4FDFF8389161
:101E5000B046504615D5CAF1000413E0119801248C
:101E60004AA3012801D16FEA0B010298119AC0E937
:101E70000031C0E9024206B0BDE8F09FCBF100009E
:101E8000DFE704460021404A491842EB0450CDE9FF
:101E9000001012E0E00707D032463B464046494674
:101EA000FEF7C7FA8046894632463B461046194639
:101EB000FEF7BFFA06460F466410002CEAD1DDE9B2
:101EC0000401DDE90023BAF1000F06DAFEF7B1FAEA
:101ED00042464B46FEF7ADFA05E0FEF71CFB4246D4
:101EE0004B46FEF718FB04460E460022284BFEF731
:101EF00099FB03D84FF0FF30014607E00022254B45
:101F000020463146FEF7EEF9FEF774FB102409E097
:101F1000002C0ADB0A220023FEF7B3F9039B3032C0
:101F20001A55641E50EA0102F2D1641C039AC4F1EE
:101F300011031444119A012A03D0012208430DD140
:101F40000AE0084304D000204FF0110B119072E713
:101F5000A3EB0B056D1E0DE05B4504DD4FF00002A9
:101F600005F1010504E003DA4FF00002A5F10105D7
:101F7000002AECD002981199C0E90231C0E900456D
:101F800079E70000000014400000F03F300000003E
:101F90000000F0430000E03F2DE9FF4F95B09B4665
:101FA0008946064600250FE2252877D100242746DA
:101FB000F84A0121059400E0044316F8013F203B54
:101FC00001FA03F01042F7D130782A2811D06FF0CF
:101FD0002F033078A0F13002092A16D8059A44F070
:101FE000020402EB820203EB42021044761C0590CD
:101FF000EFE759F8042B0592002A03DA504244F423
:102000000054059044F00204761C30782E2816D136
:1020100016F8010F44F004042A280DD06FF02F02A7
:102020003078A0F13003092B09D807EB870302EBC6
:102030004303C718761CF3E759F8047B761C307805
:102040006C280FD006DC4C2817D068280DD06A28E1
:1020500014D104E0742810D07A280FD10DE044F494
:1020600000140AE044F4801401E044F4401472784F
:10207000824202D104F58014761C761C30786628E2
:102080000BD013DC582877D009DC002875D0452800
:10209000F6D04628F4D047281AD19DE118E06328ED
:1020A00035D0642879D0652812D195E1702873D095
:1020B00008DC6728F1D069286FD06E280DD06F2812
:1020C00006D1B5E073282CD0752875D0782874D047
:1020D0005A46179990476D1C75E1C4F302500228C7
:1020E00009D003280DD0D9F8001004280DD00D60B8
:1020F00009F1040967E1D9F80010EA17C1E90052B3
:10210000F6E7D9F800100D80F2E70D70F0E719F846
:10211000041B8DF8001000208DF80100EA46012014
:1021200003E059F804AB4FF0FF3061074FF00001B6
:1021300002D40DE008F101018846B9420FDA80456A
:10214000F8DB1AF808100029F4D108E008F10101C1
:1021500088468142FADB1AF808100029F6D1059862
:102160005B46A0EB080721463846179A00F094FA20
:10217000284400EB080507E04DE029E10DE01AF8DE
:10218000010B5A4617999047B8F10108F7D25B4600
:1021900021463846179A13E142E00A220092C4F31E
:1021A00002524FF0000A022A08D059F804CB032A41
:1021B0004FEAEC710AD00DE029E02AE009F10701AD
:1021C00021F00702F2E802C1914609E00FFA8CFC07
:1021D0004FEAEC71042A03D14FFA8CFC4FEAEC7100
:1021E000002907DA0A460021DCF1000C61EB02014C
:1021F0002D2202E0220504D52B228DF80420012295
:1022000003E0E20701D02022F7E7904659E00A21D7
:1022100002E010220DE010214FF0000A00910BE0C7
:1022200010224FF0000A44F004040827009203E053
:1022300008224FF0000A0092C4F30252022A05D08D
:1022400059F804CB0021032A08D009E009F107015D
:1022500021F00702F2E802C1914605E01FFA8CFC6A
:10226000042A01D10CF0FF0C4FF00008220728D5FA
:10227000702806D0009B83F0100353EA0A0305D0B0
:102280000EE040228DF80420012208E05CEA010201
:1022900006D030228DF804208DF8050002229046E9
:1022A000009B83F0080353EA0A030AD15CEA0102A7
:1022B00001D1620705D530228DF804204FF00108C6
:1022C0007F1E582804D034A003900EA802900DE081
:1022D00036A0F9E753466046009AFDF7D2FF8446E0
:1022E0000398825C0298401E029002705CEA010032
:1022F000F0D1029806A9081A00F1200A600702D559
:1023000024F4803400E00127574502DDA7EB0A00E2
:1023100000E0002000EB0A01009005984144401ABB
:102320000590E00306D45B462146179A059800F015
:10233000B3F90544002706E001A85A46C05D179985
:1023400090476D1C7F1C4745F6DBE0030CD55B46D0
:102350002146179A059800F09FF9054404E03020C3
:102360005A46179990476D1C0099481E0090002905
:10237000F5DC08E0029802995A460078491C02915F
:10238000179990476D1CBAF10001AAF1010AF1DC1E
:1023900065E1000009280100303132333435363729
:1023A00038396162636465660000000030313233A1
:1023B0003435363738394142434445460000000041
:1023C00000F058F90544761C307800287FF4ECAD15
:1023D00019B02846BDE8F08F620700D4062709F13E
:1023E000070222F0070CFCE80223E14603F0004854
:1023F0005FEA080C02D00FF2702C0DE05FEA045C7B
:1024000002D50FF2682C07E05FEAC47C02D00FF21D
:10241000602C01E0AFF2700C4FF0FF3823F0004366
:10242000CDF850C065280CD006DC452809D04628D8
:102430001DD047283DD13DE0662818D067287ED1C1
:1024400038E00021112F01DB112000E0781CCDE9DC
:10245000000106A90EA8FFF7DDFCDDE90F010E9AC9
:1024600003910021009207F1010A04914DE04FF021
:1024700000400097CDE9011006A90EA8FFF7CAFC9D
:10248000DDE90F0203920E9B11990022DDF80CA0EA
:102490000093049211B9791C00EB010AB7EB0A0012
:1024A00004D4C0F1FF3007F1010A0490AAEB070041
:1024B000019044E0012F00DA01270021112F01DDF6
:1024C000112000E03846CDE9000106A90EA8FFF76B
:1024D000A1FCDDE90F010E9A039100210491009205
:1024E000BA4621070CD40399514500DA8A46BAF15D
:1024F000010F05DD009AAAF10101515C302908D0D5
:10250000B84202DA10F1040F06DA0121CDE9011018
:1025100015E0AAF10101E9E7002805DC049901446E
:102520000491AAEB000102E0411C514500DD8A46FE
:102530000499401A401C01904FF00040029020077F
:1025400004D40198504501DBCDF8048000208DF8BB
:102550004F0002980DF14F07B0F1004F25D02B200E
:102560000E9002984FF0020800280CDA40420290C8
:102570002D200E9007E00A210298FDF76CFE303105
:10258000029007F8011DB8F10001A8F10108F2DC82
:1025900002980028EFD1791E0E980870307800F06C
:1025A000200040F0450007F8020D12A8C01B00F102
:1025B00007081498007800B1012000EB0A01019887
:1025C00001EBE07105984144401A401E0590E0037C
:1025D00006D45B462146179A059800F05DF805443D
:1025E0001498007818B15A46179990476D1CE0036B
:1025F00024D55B462146179A059800F04DF805440E
:102600001CE00498002807DBDDE90301884203DDB4
:102610000098405C179901E0179930205A4690477E
:10262000049805F10105401C04900198401E01909A
:1026300004D12E205A46179990476D1CBAF100011B
:10264000AAF1010ADDDC05E017F8010B5A461799DB
:1026500090476D1CB8F10001A8F10108F4DC5B465D
:102660002146179A0598ABE62D0000002B000000CC
:10267000200000002DE9F041044600251E461746C3
:10268000880404D405E039462020B0476D1C641E40
:10269000F9D52846BDE8F0812DE9F0410446002532
:1026A0001E469046C80301D5302700E02027880445
:1026B00004D505E041463846B0476D1C641EF9D587
:1026C0002846BDE8F081000070B504460D4600BF05
:1026D00040210548FFF777F90028F9D0A1B2024858
:1026E000FFF73FFA204670BD003801401CB54FF49B
:1026F0004070FEF713FCFEF74FF8FEF7A1FF4FF412
:10270000E130FFF735FAFEF72FFB002002210346E8
:102710008022CDE9001004A1054801F04BFB00F038
:1027200057FF00201CBD00006D61696E00000000B5
:10273000050E00082DE9F04105460E4616480768CB
:1027400016480068001D00F05FFD681C38B936B1FE
:1027500012480168091D124800F094FD1AE07C1926
:102760000E4800684460BC4207D20C480168091D4D
:102770000C48006800F06CFD0CE008480168091D79
:102780000948006800F064FD08480068844201D2EE
:1027900006480460BDE8F0814400002030000020BD
:1027A000B40A00203800002034000020600000201F
:1027B00010B5044600F072FD24480068401C23490F
:1027C00008602348006840B9214804600846006852
:1027D00001280DD100F0D0F90AE01E48006838B990
:1027E0001B480068C06AE16A884201D81848046042
:1027F00019480068401C1849086008460068606471
:102800001649E06A0968884202D91449E06A0860FA
:10281000E16A01EB8101124A02EB8100211D00F007
:1028200031FD00F065FD0B48006868B1084800689C
:10283000C06AE16A884207D24FF0805009490860B7
:10284000BFF34F8FBFF36F8F10BD0000400000201B
:10285000300000204C0000205C00002048000020D8
:102860000406002004ED00E010B500F017FD10484C
:102870000068D0B90F4800F0DBFC0F4800F0D8FC2E
:102880000C480E4908600C480D49086000221021D0
:102890000A2000F0CDFF064908600846006820B114
:1028A00008A10348006800F0DBFD00F021FD10BD29
:1028B00074000020C80A0020DC0A00206C00002000
:1028C00070000020546D72510000000010B516E039
:1028D00000F0E4FC0C48C068C468201D00F094FCC3
:1028E0000A480068401E0949086009480068401EFF
:1028F0000749086000F0FCFC204600F05EF8044840
:1029000000680028E4D110BDA00A0020400000208B
:102910003C00002070B504460D46206C70B1216C5F
:10292000E0680844E0606168E068884201D320689C
:10293000E0602846226CE168FDF762FC70BD2DE97D
:10294000F04104460F4615464FF00008A66B206C78
:1029500040B9206860BB606801F014FB804600202D
:10296000606025E07DB93946226CA068FDF748FC1F
:10297000216CA0680844A060D4E90110884217D3F4
:102980002068A06014E03946226CE068FDF738FC4E
:10299000216CE068401AE0602168E068884203D258
:1029A000216C6068401AE060022D01D106B1761EEC
:1029B000701CA0634046BDE8F08110B50446206B52
:1029C00000F0B4FC204600F0B1FC10BD0146084AFE
:1029D000126812680AB9012200E000220A600A683F
:1029E00022B9034A1268D268106800E000207047DC
:1029F0006C00002030B54FF47053174800F0070406
:102A00002CB1C01D20F00700134C041B1B1B0246F9
:102A1000124C22600024114D6C60D018083820F050
:102A200007000F4C206000240D4D2D686C600C4D8C
:102A30002D682C601146441A4C60094C24680C60C7
:102A4000084D4C682C60084D4C682C604FF00044D9
:102A5000064D2C6030BD0000F00A002080000020F0
:102A600088000020900000208C00002094000020AE
:102A700000BFFFF72BFF064800680128F9D94FF087
:102A8000805004490860BFF34F8FBFF36F8FF0E7AA
:102A90000406002004ED00E02DE9F04106460D4655
:102AA00017469846069C0DB9246000E02760E6634F
:102AB00025640121204600F0E7FE84F84C80BDE843
:102AC000F0812DE9F05F82460F4690469B460A9EB4
:102AD0000C9C4FEA8801A522206BFDF7A3FBA8F10F
:102AE0000100216B01EB800929F0070909F00700BB
:102AF00008B9012000E0002050B900BF502080F349
:102B00001188BFF34F8FBFF36F8F00BF00BFFEE789
:102B1000002507E0795D04F134004155785D00B986
:102B200002E06D1C102DF5D300BF0021432001559C
:102B3000382E00D33726E662E66400202065201D8B
:102B400000F083FB04F1180000F07FFB2461C6F164
:102B50003800A06164620020606584F858005A461D
:102B60005146484600F03EFB20600B9808B10B9898
:102B70000460BDE8F09F000010B5002407E004EBFE
:102B800084010F4A02EB810000F052FB641C382CD8
:102B9000F5D30C4800F04CFB0B4800F049FB0B4808
:102BA00000F046FB0A4800F043FB0A4800F040FBF7
:102BB00004480949086004480849086010BD00003D
:102BC00004060020640A0020780A00208C0A0020F5
:102BD000A00A0020B40A00203400002038000020A1
:102BE00010B50146164800E0006803688B42FBD32D
:102BF0000246436813448B4204D143684C68234423
:102C0000436001460A464B6813440468A34211D14D
:102C10000C4C03682468A34208D04B6804686468BD
:102C200023444B6003681B680B6005E0054B1B6881
:102C30000B6001E003680B60884200D0016010BDAA
:102C400080000020880000202DE9F04104460D4658
:102C500016461F464FF0000865602461B5420CD847
:102C6000F01BA169884202D34FF0010811E0211D39
:102C70000948006800F0ECFA0BE0BE4204D2BD4205
:102C800002D34FF0010804E0211D0448006800F061
:102C9000DFFA4046BDE8F081700000206C000020A3
:102CA00070B5054600F0FAFAA86B08B9012400E0F7
:102CB000002400F01DFB204670BD70B5054600F0F5
:102CC000EDFAA86BE96B884201D1012400E00024F1
:102CD00000F00EFB204670BDF8B505460F461648BD
:102CE0000068C068C468201D00F08EFAE069012801
:102CF0001DD1A06941192B463A462046FFF7A4FF93
:102D0000A8B1002003462A4601460090204601F063
:102D100083FA064656B900BF502080F31188BFF3EE
:102D20004F8FBFF36F8F00BF00BFFEE700BF20468D
:102D3000616A8847F8BD00006C000020F0B587B0DC
:102D40007FE00398002811DA04AE56B900BF502086
:102D500080F31188BFF34F8FBFF36F8F00BF00BFA9
:102D6000FEE7D6E90020B168904700BF039800282D
:102D700067DB059C606908B9012000E0002010B9FC
:102D8000201D00F041FA02A800F0BCF805460398A7
:102D90000A2854D2DFE800F009050731334F06084E
:102DA000323400BF00BF00BF00BF0498A269811881
:102DB00003462A462046FFF747FFE8B12046616AEE
:102DC0008847E069012817D1002000900498A16984
:102DD000421800231946204601F01EFA074657B94B
:102DE00000BF502080F31188BFF34F8FBFF36F8F68
:102DF00000BF00BFFEE700BF22E000BF20E000BF31
:102E00000498A061A06908B1012000E0002050B939
:102E100000BF502080F31188BFF34F8FBFF36F8F37
:102E200000BF00BFFEE7A06941192B462A46204695
:102E3000FFF70AFF04E0204600F078FA00E000BF48
:102E400000BF002203A90448006800F0B9FE002872
:102E50007FF477AF07B0F0BD74000020F8B50546E9
:102E60000C4600F0FFFB684600F04CF80646009860
:102E700020BB44B9B54206D801F022F931462846B4
:102E8000FFF72AFF1CE03CB10E480068006808B953
:102E9000012000E000200446A91B22460A480068E1
:102EA00000F0F4FA01F00CF950B94FF080500749E6
:102EB0000860BFF34F8FBFF36F8F01E001F000F99F
:102EC000F8BD0000700000207400002004ED00E058
:102ED0000A490968096809B9012100E0002121B106
:102EE0004FF0FF31064A116006E004490968C968DD
:102EF000C868034A41681160704700003400002030
:102F00006000002070B5044600F094FF05460748B5
:102F10000068854204D200F00BF80120206001E037
:102F20000020206001480560284670BD7C0000201C
:102F30002DE9F84332E024480068C068056822485B
:102F40000068C068C468201D00F05EF92046616A10
:102F50008847E069012821D1A0694619AE4207D906
:102F600066602461211D1848006800F071F915E0C1
:102F7000002003462A4601460090204601F04CF905
:102F8000074657B900BF502080F31188BFF34F8F19
:102F9000BFF36F8F00BF00BFFEE700BF0A480068A5
:102FA000006808B9012000E000200028C3D00648CE
:102FB000D0F8008005480068034908600348C0F85D
:102FC0000080BDE8F88300006C0000207000002045
:102FD0000E480068401C08B9012000E0002050B9EC
:102FE00000BF502080F31188BFF34F8FBFF36F8F66
:102FF00000BF00BFFEE700BF502080F31188BFF381
:103000004F8FBFF36F8F00BF00BFFEE79800002017
:1030100008B500BF6846FFF7D9FC04462046009972
:10302000FFF71CFFFFF78AFEF4E770B5044600F0D7
:1030300035F994F9455010E0606A08B9012000E0C4
:10304000002038B904F1240000F0EEFF18B100F0C0
:103050007DFA00E003E0681E45B2002DECDC00BF05
:10306000FF2084F8450000F043F900F017F994F9C7
:10307000445010E0206908B9012000E0002048B960
:1030800004F1100000F0D0FF08B100F05FFA681EF4
:1030900045B200E001E0002DECDC00BFFF2084F829
:1030A000440000F025F970BD2DE9F04104464FF0D1
:1030B000000800F0D7FA4648006808B9FFF79AFC04
:1030C00044480068204000286BD1D4B1083404F093
:1030D0000700B0B104F00700C0F10800044404F098
:1030E000070008B9012000E0002050B900BF5020BF
:1030F00080F31188BFF34F8FBFF36F8F00BF00BF06
:10310000FEE7002C4DD034480068844249D8334E45
:103110003046056801E02E462D686868A04202D25C
:1031200028680028F7D12A480068854239D03068DD
:1031300000F10808286830606868001B102819D959
:103140002F1907F0070008B9012000E0002050B94E
:1031500000BF502080F31188BFF34F8FBFF36F8FF4
:1031600000BF00BFFEE76868001B78606C603846EF
:10317000FFF736FD184968680968081A164908609B
:103180000846006816490968884203D21248006858
:10319000134908600F49686809680843686000209F
:1031A000286000F08DFF08F0070008B9012000E05A
:1031B000002050B900BF502080F31188BFF34F8F1B
:1031C000BFF36F8F00BF00BFFEE74046BDE8F08150
:1031D00088000020940000208C0000208000002047
:1031E00090000020001F4FF080730360001F21F04B
:1031F00001030360001F034B036014380260203892
:1032000070470000D12F000801460A69D1E901305A
:103210009860D1E9010358605068884201D18868FC
:103220005060002008611068401E106010687047F0
:1032300000F1080141604FF0FF31816000F10801A9
:10324000C160016100210160704700210161704788
:1032500010B502460B685C1C0CB9106907E002F15E
:10326000080000E04068446824689C42FAD9446839
:103270004C604C68A160886041600A611468641CFD
:10328000146010BD42684A6093688B60936859600F
:103290009160086103685B1C0360704700BF5020A9
:1032A00080F31188BFF34F8FBFF36F8F00BF0E48BD
:1032B0000068401C0C49086008460068012812D1CB
:1032C0000A480068C0B208B9012000E0002050B9E7
:1032D00000BF502080F31188BFF34F8FBFF36F8F73
:1032E00000BF00BFFEE770479800002004ED00E03B
:1032F0000D48006850B900BF502080F31188BFF31B
:103300004F8FBFF36F8F00BF00BFFEE70648006816
:10331000401E054908600846006820B9002080F377
:10332000118800BF00BF70479800002070B50646A6
:103330003546002E3FD0083D2C461F49606809687D
:10334000084008B1012000E0002050B900BF502023
:1033500080F31188BFF34F8FBFF36F8F00BF00BFA3
:10336000FEE7206808B9012000E0002050B900BF46
:10337000502080F31188BFF34F8FBFF36F8F00BFD2
:1033800000BFFEE70C4960680968084098B12068F2
:1033900088B90949606809688843606000F062F98B
:1033A0000649606809680844044908602046FFF738
:1033B00017FC00F085FE70BD940000208C000020FA
:1033C00000204FF0E02108618861064800684FF452
:1033D0007A71B0FBF1F0401E4FF0E0214861072008
:1033E000086170470000002070B5FCF7F3FE04464A
:1033F000102C16D304F1E02090F8F0531548007813
:10340000854201DB012000E0002050B900BF5020C0
:1034100080F31188BFF34F8FBFF36F8F00BF00BFE2
:10342000FEE70D48006800F4E0600C490968884236
:1034300001D8012000E0002050B900BF502080F3E7
:103440001188BFF34F8FBFF36F8F00BF00BFFEE740
:1034500070BD00009C0000200CED00E0A0000020EA
:10346000024600200BE0084B53F8303033B9064BCE
:1034700043F8301003EBC0035A6002E0401C0828F8
:10348000F1D300BF70470000C40500202DE9F041D2
:1034900005460E4617462C46FFF700FF94F94400F8
:1034A000401C10B9002084F8440094F94500401CE9
:1034B00010B9002084F84500FFF71AFFA06B28B967
:1034C0003A46314604F1240000F062F82046FFF746
:1034D000ACFDBDE8F081000070B504460025D4B114
:1034E0001248006808B9012000E0002050B900BF70
:1034F000502080F31188BFF34F8FBFF36F8F00BF51
:1035000000BFFEE700F0AEF800212046FFF712F9F9
:1035100000F0D6FD05463DB94FF0805004490860E3
:10352000BFF34F8FBFF36F8F70BD000068000020A6
:1035300004ED00E00349096801600349096841603E
:10354000704700005800002044000020012001497D
:10355000086070475400002070B504460D4654B909
:1035600000BF502080F31188BFF34F8FBFF36F8FE0
:1035700000BF00BFFEE70548016818312046FFF78D
:1035800067FE01212846FFF7D5F870BD3000002006
:1035900070B505460E46144655B900BF502080F35D
:1035A0001188BFF34F8FBFF36F8F00BF00BFFEE7DF
:1035B0000648016818312846FFF764FE0CB14FF049
:1035C000FF3621463046FFF7B5F870BD30000020C9
:1035D0001CB51D4800210B468022CDE900101BA11F
:1035E0001C4800F0E7FB0446012C02D100F0EAFD84
:1035F0000446012C15D100BF502080F31188BFF381
:103600004F8FBFF36F8F00BF4FF0FF30124908603C
:1036100001201249086000201149086000F072F88A
:1036200010E0601C08B1012000E0002050B900BF8C
:10363000502080F31188BFF34F8FBFF36F8F00BF0F
:1036400000BFFEE71CBD00006400002049444C455B
:1036500000000000712A0008600000204C000020DB
:103660004400002002480068401C0149086070477F
:10367000680000201E48006818B101201D4908603C
:1036800034E000201B4908601B4801680CE051B978
:1036900000BF502080F31188BFF34F8FBFF36F8FAF
:1036A00000BF00BFFEE7491E01EB8100134A52F83C
:1036B000200008B9012000E000200028E7D101EB3C
:1036C00081020E4B03EB820042685268426000F1B7
:1036D00008024368934202D14268526842604268DD
:1036E000D268074B1A600448016000BF70470000B1
:1036F000680000205400002048000020040600203C
:10370000300000201CB53849084600780190FF20A1
:103710000A4610700846007800909DF8000000F0FE
:10372000F0009DF80020904201D1012000E000202F
:1037300050B900BF502080F31188BFF34F8FBFF303
:103740006F8F00BF00BFFEE79DF8000000F0500043
:10375000264A10700720264A106009E024480068B5
:10376000401E234A10609DF800004006000E0090A5
:103770009DF8000000F080008028EFD01C48006811
:10378000C0F10700042801D1012000E0002050B959
:1037900000BF502080F31188BFF34F8FBFF36F8FAE
:1037A00000BF00BFFEE7124800680002104A106028
:1037B0001046008800F4E06010600B4A0198107019
:1037C0000C48006840F470000A4908600846006828
:1037D00040F070400860FFF7F3FD002006490860E4
:1037E000FCF7C2FC00201CBD00E400E09C000020AF
:1037F000A000002020ED00E09800002010B500BFE0
:10380000502080F31188BFF34F8FBFF36F8F00BF3D
:1038100000F016FB18B14FF080500449086000BF5B
:10382000002080F3118800BF10BD000004ED00E00F
:103830002DE9F84305460E4690460DB1012000E003
:10384000002050B900BF502080F31188BFF34F8F84
:10385000BFF36F8F00BF00BFFEE70EB9002701E086
:1038600005FB06F707F15000FFF71EFC044644B1C4
:1038700004F1500943464A46314628460094FFF772
:103880000BF92046BDE8F88370B505460E462C4678
:1038900054B900BF502080F31188BFF34F8FBFF39E
:1038A0006F8F00BF00BFFEE7FFF7F8FCD4E90F12EF
:1038B000206801FB020060600020A0632068A06017
:1038C000E06B401E226C216800FB0210E060FF20CC
:1038D00084F8440084F845009EB9206908B90120A5
:1038E00000E00020A8B904F1100000F09DFB80B1B9
:1038F0004FF0805009490860BFF34F8FBFF36F8FBF
:1039000007E004F11000FFF793FC04F12400FFF737
:103910008FFCFFF7EDFC012070BD000004ED00E01E
:103920002DE9FF4383B0064688461D464FF0000947
:10393000344654B900BF502080F31188BFF34F8F35
:10394000BFF36F8F00BF00BFFEE7B8F1000F01D1DA
:10395000206C08B9012000E0002050B900BF5020C1
:1039600080F31188BFF34F8FBFF36F8F00BF00BF8D
:10397000FEE7022D02D1E06B012801D1012000E019
:10398000002050B900BF502080F31188BFF34F8F43
:10399000BFF36F8F00BF00BFFEE700F03BFA08B92E
:1039A000059808B9012000E0002050B900BF502060
:1039B00080F31188BFF34F8FBFF36F8F00BF00BF3D
:1039C000FEE700BFFFF76AFCA06BE16B884201D302
:1039D000022D28D12A4641462046FEF7B0FF074671
:1039E000606A08B9012000E0002068B904F12400F1
:1039F00000F01AFB88B14FF0805032490860BFF3E5
:103A00004F8FBFF36F8F08E03FB14FF080502D49CB
:103A10000860BFF34F8FBFF36F8FFFF769FC012082
:103A200007B0BDE8F083059818B9FFF761FC0020E6
:103A3000F6E7B9F1000F04D101A8FFF77BFD4FF0C5
:103A40000109FFF755FCFFF70DFEFFF727FC94F97E
:103A50004400401C10B9002084F8440094F945004B
:103A6000401C10B9002084F84500FFF741FC05A96F
:103A700001A800F059F9F0B92046FFF71EF9A0B1EE
:103A800004F110000599FFF767FD2046FFF7CDFA16
:103A900000F016FB002895D14FF0805009490860CE
:103AA000BFF34F8FBFF36F8F8CE72046FFF7BDFA50
:103AB00000F006FB86E72046FFF7B7FA00F000FBB0
:103AC0000020ADE704ED00E02DE9F05F07468A46EF
:103AD00090461E463C4654B900BF502080F31188E2
:103AE000BFF34F8FBFF36F8F00BF00BFFEE7BAF188
:103AF000000F01D1206C08B9012000E0002050B96E
:103B000000BF502080F31188BFF34F8FBFF36F8F3A
:103B100000BF00BFFEE7022E02D1E06B012801D1F9
:103B2000012000E0002050B900BF502080F3118830
:103B3000BFF34F8FBFF36F8F00BF00BFFEE7FFF7EC
:103B400053FC00BF5021EFF3118081F31188BFF3C4
:103B50004F8FBFF36F8F00BF0546A06BE16B8842AC
:103B600001D3022E23D194F945B032465146204666
:103B7000FEF7E5FE0BF1010088B9606A08B9012083
:103B800000E0002080B904F1240000F04DFA58B1A3
:103B9000B8F1000F08D00120C8F8000004E00BF1D4
:103BA000010040B284F845004FF0010901E04FF0F8
:103BB000000900BF85F3118800BF4846BDE8F09FAB
:103BC0002DE9F74183B005460E464FF000082C461C
:103BD00054B900BF502080F31188BFF34F8FBFF35B
:103BE0006F8F00BF00BFFEE70EB9206C08B901203F
:103BF00000E0002050B900BF502080F31188BFF3CF
:103C00004F8FBFF36F8F00BF00BFFEE700F002F9D8
:103C100008B9059808B9012000E0002050B900BF9C
:103C2000502080F31188BFF34F8FBFF36F8F00BF19
:103C300000BFFEE700BFFFF731FBA76BF7B13146CE
:103C40002046FEF767FE781EA063206908B90120B0
:103C500000E0002060B904F1100000F0E5F938B18F
:103C60004FF080502F490860BFF34F8FBFF36F8F25
:103C7000FFF73EFB012006B0BDE8F081059818B9BA
:103C8000FFF736FB0020F6E7B8F1000F04D101A8DA
:103C9000FFF750FC4FF00108FFF72AFBFFF7E2FCAB
:103CA000FFF7FCFA94F94400401C10B9002084F896
:103CB000440094F94500401C10B9002084F84500E8
:103CC000FFF716FB05A901A800F02EF8F0B9204671
:103CD000FEF7E6FFA0B104F124000599FFF73CFCD4
:103CE0002046FFF7A2F900F0EBF90028A3D14FF02E
:103CF00080500C490860BFF34F8FBFF36F8F9AE776
:103D00002046FFF792F900F0DBF994E72046FFF731
:103D10008CF900F0D5F92046FEF7C2FF00288AD0C2
:103D20000020A8E704ED00E070B505460C4655B943
:103D300000BF502080F31188BFF34F8FBFF36F8F08
:103D400000BF00BFFEE754B900BF502080F31188C8
:103D5000BFF34F8FBFF36F8F00BF00BFFEE7FFF7CA
:103D60009DFA124802686868131A2068401C08B956
:103D7000002617E00E4928680968884204D0686860
:103D8000904201D801260DE02068984207D92068AA
:103D9000C01A20602846FFF7CDFB002602E0002075
:103DA00020600126FFF7A4FA304670BD44000020D1
:103DB000580000202DE9FF4F85B080468946174600
:103DC000DDE912ABB800FFF76FF9064656B15C208B
:103DD000FFF76AF904460CB1266304E03046FFF7AA
:103DE000A5FA00E000247CB10020CDE900ABCDE9CC
:103DF00002403A4649464046089BFEF762FE20468E
:103E0000FEF7D6FC012501E04FF0FF35284609B04A
:103E1000BDE8F08F0549096809B9012005E00449AA
:103E2000096809B9022000E0002070474C0000201A
:103E30006800002001490868704700004400002025
:103E40002DE9F0414FF0000843480068002876D182
:103E500042480068451C4148056015BB4048006861
:103E6000006808B9012000E0002050B900BF5020D0
:103E700080F31188BFF34F8FBFF36F8F00BF00BF78
:103E8000FEE7374807683748006835490860354815
:103E9000076035480068401C33490860FFF718F890
:103EA00000BF3248006885423BD300BF2C48006801
:103EB000006808B9012000E0002020B14FF0FF3079
:103EC0002A4908602CE026480068C068C468666813
:103ED000B54202D22548066022E0201DFFF794F982
:103EE000A06A18B104F11800FFF78EF92049E06AC2
:103EF0000968884202D91E49E06A0860E16A01EB5C
:103F000081011C4A02EB8100211DFFF7BBF91A4910
:103F1000E06A0968C96A8842C8D34FF00108C5E75A
:103F200000BF15480068C06A00EB8000114951F8D5
:103F30002000012801D94FF0010805E0FFE70F48F4
:103F40000068401C0D4908600D48006808B14FF03A
:103F500001084046BDE8F0816800002044000020D0
:103F600034000020380000205800002060000020AD
:103F700048000020040600203000002050000020EF
:103F80005400002070B505462C460026002D43D075
:103F900022480068844201D1012000E0002050B98D
:103FA00000BF502080F31188BFF34F8FBFF36F8F96
:103FB00000BF00BFFEE7206D50B900BF502080F366
:103FC0001188BFF34F8FBFF36F8F00BF00BFFEE7B5
:103FD000206D401E2065E16CE06A88421CD0206D97
:103FE000D0B9201DFFF710F9E06CE062E06AC0F183
:103FF0003800A0610A49E06A0968884202D9084984
:10400000E06A0860E16A01EB8101064A02EB810087
:10401000211DFFF737F90126304670BD3000002022
:10402000480000200406002070B50646F068C46809
:1040300054B900BF502080F31188BFF34F8FBFF3F6
:104040006F8F00BF00BFFEE704F11800FFF7DCF838
:1040500015480068A0B9201DFFF7D6F81349E06A9B
:104060000968884202D91149E06A0860E16A01EBF7
:1040700081010F4A02EB8100211DFFF703F904E0E3
:1040800004F118010B48FFF7FDF80B49E06A0968D5
:10409000C96A884204D9012501200849086000E066
:1040A0000025284670BD0000680000204800002060
:1040B000040600208C0A002030000020540000205C
:1040C00070B5002400263648006850B900BF502063
:1040D00080F31188BFF34F8FBFF36F8F00BF00BF16
:1040E000FEE7FFF7DBF82E480068401E2C49086009
:1040F0000846006800284ED12A48006800284AD0A7
:1041000023E02948C068C46804F11800FFF77CF870
:10411000201DFFF779F82549E06A0968884202D92D
:104120002249E06A0860E16A01EB8101204A02EB62
:104130008100211DFFF7A6F81E49E06A0968C96AD7
:10414000884202D301201C4908601748006808B95A
:10415000012000E000200028D3D00CB1FEF7B8FE0B
:104160001648056865B100BFFFF76AFE10B101206F
:10417000114908606D1E002DF6D100200F4908601E
:104180000D48006838B1012630070D490860BFF3BB
:104190004F8FBFF36F8FFFF7ABF8304670BD000055
:1041A00068000020400000208C0A00204800002009
:1041B00004060020300000205400002050000020A1
:1041C00004ED00E01CB50024FEF74EFB0D4800682E
:1041D00050B10D4802210023CA01CDE900100BA106
:1041E0000C48FFF7E7FD044654B900BF502080F3A8
:1041F0001188BFF34F8FBFF36F8F00BF00BFFEE783
:1042000020461CBD7400002078000020546D7220F0
:1042100053766300113000082DE9FF4704460D4630
:1042200016461F46DDF830804FF0000954B900BF34
:10423000502080F31188BFF34F8FBFF36F8F00BF03
:1042400000BFFEE71448006810B300950196029481
:10425000062D15DAFFF7DEFD022808D100234246BD
:1042600069460D480068FFF75BFB814610E00023BC
:104270001A46694608480068FFF752FB814607E086
:1042800000233A46694604480068FFF71DFC814652
:10429000484604B0BDE8F087740000203132333462
:1042A00035363738397A786376626E6D6173646655
:1042B00067686A6B6C71776572747975696F703154
:1042C00032333435363738397A786376626E6D61D9
:1042D00073646667686A6B6C717765727479756907
:1042E0006F703132333435363738397A78637662E5
:1042F0006E6D6173646667686A6B6C717765727402
:104300007975696F703132333435363738397A78A8
:104310006376626E6D6173646667686A6B6C7177F1
:104320006572747975696F70313233343536373868
:10433000397A786376626E6D6173646667686A6BFA
:104340006C71776572747975696F70313233343599
:10435000363738397A786376626E6D617364666772
:10436000686A6B6C71776572747975696F703132D8
:10437000333435363738397A786376626E6D6173E7
:10438000646667686A6B6C71776572747975696F5A
:10439000700D0A0000000000000000000000000096
:1043A000000000003F40000000000000000030005E
:1043B000400030004000000009000BC03D000BC071
:1043C0003D00090018C024407FE0224031800000F9
:1043D000180024C01B000D803240018003801C4067
:1043E00027401C80074000401000600000000000D3
:1043F000000000000000000000001F80204040205E
:104400000000402020401F8000000000090006003E
:104410001F80060009000000040004003F80040023
:104420000400000000100060000000000000000018
:104430000400040004000400040000000000004028
:104440000000000000000000002001C0060038004D
:10445000400000001F802040204020401F800000BE
:10446000000010403FC000400000000018C0214084
:104470002240244018400000108020402440244066
:104480001B80000002000D0011003FC00140000031
:104490003C80244024402440238000001F8024408E
:1044A00024403440038000003000200027C0380042
:1044B000200000001B802440244024401B8000007A
:1044C0001C0022C0224022401F800000000000008B
:1044D0000840000000000000000000000460000030
:1044E00000000000000004000A001100208040408D
:1044F000090009000900090009000000000040400F
:10450000208011000A00040018002000234024002D
:10451000180000001F802040274029401F40000055
:10452000004007C039000F0001C0004020403FC0DC
:10453000244024401B8000001F8020402040204059
:104540003080000020403FC0204020401F800000FD
:1045500020403FC024402E4030C0000020403FC0DB
:1045600024402E00300000000F0010802040224028
:104570003380020020403FC0040004003FC02040C0
:10458000204020403FC0204020400000006020200C
:1045900020203FC02000200020403FC024400B00CE
:1045A00030C0204020403FC020400040004000C0BC
:1045B0003FC03C0003C03C003FC0000020403FC063
:1045C0000C4023003FC020001F802040204020409E
:1045D0001F80000020403FC024402400180000003D
:1045E0001F802140214020E01FA0000020403FC04C
:1045F0002440260019C0004018C024402440224016
:1046000031800000300020403FC0204030000000DA
:1046100020003F80004000403F80200020003E00FE
:1046200001C0070038002000380007C03C0007C068
:1046300038000000204039C0060039C0204000008A
:104640002000384007C0384020000000304021C022
:104650002640384020C00000000000007FE04020DD
:1046600040200000000070000C00038000400000AB
:104670000000402040207FE00000000000002000FB
:10468000400020000000000000100010001000108A
:1046900000100010000000004000000000000000BA
:1046A000000002800540054003C0004020003FC0DC
:1046B00004400440038000000000038004400440E4
:1046C0000640000000000380044024403FC000403A
:1046D0000000038005400540034000000000044046
:1046E0001FC0244024402000000002E00550055077
:1046F0000650042020403FC00440040003C0004096
:104700000000044027C0004000000000001000101E
:10471000041027E00000000020403FC001400700D7
:1047200004C00440204020403FC000400040000042
:1047300007C0040007C0040003C00000044007C015
:104740000440040003C00040000003800440044013
:1047500003800000041007F00450044003800000B0
:10476000000003800440045007F00010044007C01C
:10477000024004000400000000000640054005401F
:1047800004C00000000004001F800440004000003E
:10479000040007800040044007C0004004000700F8
:1047A00004C0018006000400060001C0070001C02B
:1047B00006000000044006C0010006C004400000DE
:1047C0000410071004E0018006000400000004400B
:1047D00005C00640044000000000000004007BE02B
:1047E00040200000000000000000FFF0000000007A
:1047F000000040207BE0040000000000400080003A
:1048000040002000200040000000000000000000E8
:1048100000000000000000000000000000001FCCAD
:10482000000C0000000000000000080030006000E4
:104830000800300060000000022003FC1E2002205F
:1048400003FC1E200220000000000E1811043FFF90
:1048500010840C78000000000F0010840F3800C096
:10486000077818840078000000780F8410C41124A1
:104870000E9800E400840008080068007000000042
:10488000000000000000000000000000000007E041
:1048900018182004400200000000400220041818EC
:1048A00007E00000000000000240024001800FF01D
:1048B00001800240024000000080008000800FF86C
:1048C00000800080008000000001000D000E00004C
:1048D0000000000000000000000000800080008058
:1048E00000800080008000800000000C000C0000B0
:1048F000000000000000000000000006001800603A
:104900000180060018002000000007F008081004CD
:104910001004080807F000000000080408041FFC49
:10492000000400040000000000000E0C101410240D
:10493000104411840E0C000000000C181004110427
:10494000110412880C700000000000E00320042411
:1049500008241FFC0024000000001F98108411048C
:104960001104108810700000000007F0088811047E
:10497000110418880070000000001C00100010FCDA
:1049800013001C001000000000000E3811441084B9
:10499000108411440E38000000000700088C1044F9
:1049A0001044088807F00000000000000000030C1D
:1049B000030C0000000000000000000000010106E0
:1049C0000000000000000000000000800140022004
:1049D0000410080810040000022002200220022017
:1049E0000220022002200000000010040808041029
:1049F000022001400080000000000E001200100C98
:104A0000106C10800F00000003E00C1813E4142455
:104A100017C4082807D000000004003C03C41C4051
:104A2000074000E4001C000410041FFC11041104E2
:104A300011040E880070000003E00C18100410042C
:104A4000100410081C10000010041FFC10041004B7
:104A50001004080807F0000010041FFC11041104E2
:104A600017C410040818000010041FFC11041100E2
:104A700017C010000800000003E00C181004100418
:104A800010441C780040000010041FFC10840080BB
:104A9000008010841FFC10040000100410041FFC90
:104AA00010041004000000000003000110011001B8
:104AB0001FFE10001000000010041FFC11040380F2
:104AC0001464181C1004000010041FFC10040004DF
:104AD00000040004000C000010041FFC1F0000FC78
:104AE0001F001FFC1004000010041FFC0C04030036
:104AF00000E010181FFC100007F008081004100454
:104B00001004080807F0000010041FFC1084108037
:104B1000108010800F00000007F0081810241024E7
:104B2000101C080A07F2000010041FFC11041100F9
:104B300011C011300E0C000400000E1C1104108472
:104B4000108410441C3800001800100010041FFCD2
:104B5000100410001800000010001FF810040004DA
:104B6000000410041FF8100010001E0011E0001CCB
:104B7000007013801C0010001FC0103C00E01F00DC
:104B800000E0103C1FC000001004180C163401C0D7
:104B900001C01634180C100410001C00130400FC93
:104BA00013041C00100000000804101C1064108482
:104BB00013041C04101800000000000000007FFE19
:104BC0004002400240020000000030000C00038060
:104BD0000060001C00030000000040024002400290
:104BE0007FFE0000000000000000000020004000E8
:104BF0004000400020000000000100010001000111
:104C00000001000100010001000040004000200000
:104C10000000000000000000000000980124014492
:104C20000144014400FC000410001FFC0088010442
:104C3000010400880070000000000070008801047A
:104C400001040104008800000000007000880104D5
:104C5000010411081FFC0004000000F80144014495
:104C60000144014400C800000000010401040FFCDD
:104C70001104110411001800000000D601290129B7
:104C8000012901C90106000010041FFC0084010075
:104C90000100010400FC000400000104190419FCD7
:104CA00000040004000000000000000300010101F6
:104CB000190119FE0000000010041FFC0024004030
:104CC00001B4010C010400000000100410041FFCDA
:104CD0000004000400000000010401FC01040100C4
:104CE00001FC0104010000FC010401FC008401003E
:104CF0000100010400FC0004000000F801040104AC
:104D00000104010400F80000010101FF0085010415
:104D10000104008800700000000000700088010499
:104D20000104010501FF00010104010401FC0084EC
:104D30000104010001800000000000CC01240124D6
:104D4000012401240198000000000100010007F87F
:104D50000104010400000000010001F80004000447
:104D60000004010801FC0004010001800170000C36
:104D7000001001600180010001F0010C003001C051
:104D80000030010C01F0010000000104018C0074EE
:104D90000170018C01040000010101810171000E0C
:104DA000001801600180010000000184010C013441
:104DB00001440184010C000000000000000000001C
:104DC00001003EFC40024002000000000000000024
:104DD000FFFF0000000000000000400240023EFC17
:104DE0000100000000000000000060008000800062
:104DF00040004000200020000000000000000000F3
:104E000000000000000000000000000000000000A2
:104E10000000000000000000000000000000000092
:104E200000000000000000000000000F80380FFEAE
:104E3000380F803800000000000000000000000073
:104E40000000000000000100000600000C00003817
:104E500000003100000600000C00003800003000A7
:104E6000000000000000000061800067F807F98082
:104E70000061800061800061800061800067F80748
:104E8000F98000618000000000000000000001C007
:104E9000E003E0F00630080418081FFFFE040E08C7
:104EA0000787F00381E000000000000001F0000629
:104EB0000C00040408060C7001F9C0000E00003B51
:104EC000E000EC18070808040C180003E0000000DC
:104ED0000001E00007F003F818041C080417080795
:104EE000E1D003C0E00023B0003C0800200800002F
:104EF000100000000000000100003100003200003E
:104F00001C00000000000000000000000000000085
:104F10000000000000000000000000000000000091
:104F200000000000000000007F0001FFC00780F0CB
:104F30000C001810000420000200000000000020F7
:104F400000021000040C00180780F001FFC0007F71
:104F50000000000000000000000000000000000051
:104F6000000000004200006600006600003C0000F7
:104F7000180003FFC0001800003C00006600006637
:104F800000004200000000000800000800000800C7
:104F900000080000080001FFC00008000008000031
:104FA00008000008000008000000000000010000E8
:104FB0003100003200001C00000000000000000072
:104FC00000000000000000000000000000000000E1
:104FD00008000008000008000008000008000008A1
:104FE00000000800000800000800000800000000A1
:104FF0000000000000000000380000380000380009
:1050000000000000000000000000000000000000A0
:105010000000000000000000000600001C000070FE
:10502000000180000E0000380000C0000700001CD6
:105030000000300000000000000000007F8001FF41
:10504000E003807006001804000804000806001839
:1050500003807001FFE0007F80000000000000007E
:10506000000001000801000801000803FFF807FF25
:10507000F800000800000800000800000000000020
:1050800000000001C03802C0580400980401180450
:105090000218040418061C1803F81801E0F80000B0
:1050A0000000000000000001C0E003C0F0040008A0
:1050B00004080804080806180803F41801E7F000BB
:1050C00001E0000000000000000000000300000DEF
:1050D0000000110000610000810803010807FFF8CB
:1050E0000FFFF800010800010800000000000000A8
:1050F00000E007FCD0060808061008061008061095
:1051000008061838060FF00607C00000000000006F
:10511000000000003F8001FFE00384300208180413
:105120001008041008041008071810030FF00007F7
:10513000C000000000000000000003C000070000E5
:105140000600000600F80607F806180006E000074B
:10515000000006000000000000000001E1E003F78D
:10516000F0063410041808041808040C08040C088D
:1051700006161803F3F001C1E00000000000000073
:10518000F80003FC30030638040208040208040295
:10519000080404100308F001FFC0007F00000000B5
:1051A00000000000000000000000000000000000FF
:1051B00070380070380070380000000000000000F7
:1051C00000000000000000000000000000000000DF
:1051D00000000000301A00301C0000000000000039
:1051E00000000000000000000000000000000008B7
:1051F00000001400002200004100008080010040F7
:105200000200200400100800080000000000000058
:1052100021000021000021000021000021000021C8
:1052200000002100002100002100002100000000FA
:105230000000000000000800080400100200200127
:10524000004000808000410000220000140000089F
:105250000000000000000003C00004C000040000C3
:10526000080038080F380808380810000C3000070C
:10527000E00003C000000000000000003F8000FFCD
:10528000E0038070020F1006708804C08804830851
:10529000047F8802C09003012000FE400000080047
:1052A00000180001F8003E0801C20007020007E2F2
:1052B0000000FE00001FC80001F8000038000008D0
:1052C00004000807FFF807FFF804080804080804AA
:1052D000080804080806180803F41801E7F000019C
:1052E000E0000000000000003F8001FFE00380704C
:1052F0000200180400080400080400080400100656
:1053000000200780C000000004000807FFF807FF26
:10531000F804000804000804000804001802001043
:1053200003807001FFE0007F800000000400080798
:10533000FFF807FFF8040808040808040808040830
:1053400008043E0804000806001801006000000080
:1053500004000807FFF807FFF80408080408000421
:105360000800040800043E0006000006000001805A
:1053700000000000000000003F8001FFE00380709B
:105380000600180400080402080402080203F007DB
:1053900083F000020000020004000807FFF807FF86
:1053A000F8040808000800000800000800000800D1
:1053B00004080807FFF807FFF804000800000000D1
:1053C000000004000804000804000807FFF807FFB5
:1053D000F8040008040008040008000000000000B1
:1053E00000000000000600000700000104000104A6
:1053F000000104000307FFFE07FFFC040000040097
:105400000004000004000807FFF807FFF8040C0878
:10541000001800003E0004C7800503C80600F80419
:10542000003804001800000804000807FFF807FF10
:10543000F804000800000800000800000800000848
:1054400000000800001800006000000004000807C9
:10545000FFF807800807FC00007FC00003F8000782
:10546000C000780007800807FFF807FFF80400086D
:1054700004000807FFF807000803C00000E0000070
:105480003800001E000007000001C00400F007FF04
:10549000F8040000000000007F8001FFE00380703E
:1054A0000600180400080400080600180300300174
:1054B000FFE0007F8000000004000807FFF807FFFE
:1054C000F8040408040400040400040400040400B4
:1054D000060C0003F80001F00000000000000000CE
:1054E0007F8001FFE00380700600880400880400CC
:1054F000C806003C03003E01FFE6007F8400000078
:1055000004000807FFF807FFF8040808040800046F
:105510000C00040F00040BC00610F003F03801E08B
:105520000800000800000001E0F803F03006301029
:10553000041808041808040C08040C0802061802D1
:1055400007F00781E0000000018000060000040071
:105550000004000004000807FFF807FFF804000833
:1055600004000004000006000001800004000007A1
:10557000FFE007FFF004001800000800000800002A
:105580000800000800000804001007FFE004000005
:1055900004000006000007E00007FE00041FE00012
:1055A00001F80000380001E0043E0007C0000600DA
:1055B0000004000004000007E00007FFC0041FF81B
:1055C0000007C007F80007FF80043FF80007C00489
:1055D000F8000700000400000000000400080600B6
:1055E0001807C07805F1C8003E00001F800463E87A
:1055F0000780F806001804000800000004000006F8
:10560000000007800007E008047C08001FF800077E
:10561000F800180804E00807000006000004000075
:105620000000000100080600380400F80403E80444
:105630000F08047C0805F00807C0080700180400DC
:1056400060000000000000000000000000000000FA
:105650000000003FFFFE2000022000022000022088
:10566000000220000200000000000000000008000E
:105670000007000000C0000038000006000001C064
:1056800000003000000E00000100000000000000DB
:105690000000200002200002200002200002200062
:1056A000023FFFFE000000000000000000000000BC
:1056B00000000000000000000008000010000030A2
:1056C0000000200000300000100000080000000072
:1056D00000000000000001000001000001000001C6
:1056E00000000100000100000100000100000100B5
:1056F00000010000010000010000000000000000A7
:105700000020000020000010000010000000000039
:105710000000000000000000000000000000000089
:1057200000F00019F8001B180022080026080024C9
:1057300008002410003FF8001FF8000008000018BF
:1057400000000004000007FFF80FFFF00018180029
:105750001008002008002008003018001FF0000F7B
:10576000C00000000000000007C0001FF00018305B
:10577000002008002008002008003C08001C100041
:1057800000600000000000000000000007C0001FD3
:10579000F00038180020080020080020080410102D
:1057A00007FFF80FFFF000001000000000000000ED
:1057B00000000007C0001FF0001230002218002275
:1057C00008002208003208001E10000E2000000011
:1057D00000000000200000200800200801FFF8035E
:1057E000FFF8062008042008042008072000030012
:1057F0000000000000000000000E000E6E001FF30D
:105800000031B10020B10020B1003191001F130020
:105810002E1E00200E00300000000004000807FFCC
:10582000F80FFFF8001008002000002000002008FA
:10583000003FF8001FF80000080000000000000012
:105840000000002008002008002008063FF8063F5E
:10585000F800000800000800000800000000000038
:105860000000000000000000030000030020010011
:105870002001002003063FFE063FFC000000000060
:105880000000000000000004000807FFF80FFFF808
:10589000000188000300002FC00038F80020380005
:1058A00020080000080000000000000000000400C4
:1058B0000804000804000807FFF80FFFF8000008BC
:1058C00000000800000800000000000000200800A0
:1058D0003FF8003FF8001008002000003FF8003FAC
:1058E000F8001008002000003FF8003FF800000812
:1058F000000000002008003FF8003FF800100800FA
:105900001000002000002008003FF8001FF80000F1
:10591000080000000000000007C0000FF000183071
:10592000003008002008002008003008001830006F
:105930000FF00007C0000000000000002001003F41
:10594000FF003FFF00101100200900200800200880
:10595000003038001FF0000FC00000000000000001
:1059600007C0001FF00038180020080020080020A1
:1059700009001011001FFF003FFF000001000000A0
:10598000002008002008002008003FF8003FF80031
:105990000808001008002008002000003000003037
:1059A00000000000000000000000000C78001E183D
:1059B00000330800230800210800218800219800F6
:1059C00030F00038600000000000000020000020DF
:1059D0000000200000FFF003FFF80020080020086E
:1059E000002008000030000000000000000000005F
:1059F0002000003FF0007FF80000180000080000C1
:105A000008002010003FF8007FF0000010000000A8
:105A1000000000002000003000003C00003F80003B
:105A200023F0000078000070002380003C0000306C
:105A300000002000002000003C00003FE00023F8B0
:105A40000000E0002700003E00003FE00021F800D9
:105A500001E0003E000020000000000020080020BF
:105A600008003838003E680027800003C8002CF882
:105A70000038380020180020080000000000000056
:105A80002000003003003C01003F830023EC0000B5
:105A900070002380003C0000200000200000000077
:105AA0000000000000000038080020380020F80046
:105AB00023E8002F88003E08003808002018000066
:105AC0007000000000000000000000000000000066
:105AD0000000000008000014001FF7FC3000062042
