:020000040800F2
:10000000C84F0020DD0100087F140008A90C00087B
:100010007D140008090900089D2200080000000066
:100020000000000000000000000000004501000882
:10003000EB0B00080000000089010008611B0008AC
:10004000F7010008F7010008F7010008F7010008B0
:10005000F7010008F7010008F7010008F7010008A0
:10006000F7010008F7010008F7010008F701000890
:10007000F7010008F7010008F7010008610900080E
:10008000F7010008F7010008F7010008F701000870
:10009000F7010008F7010008F7010008F701000860
:1000A000F7010008F7010008F7010008F701000850
:1000B000F7010008F7010008F7010008F701000840
:1000C000F7010008F7010008F7010008F701000830
:1000D000F7010008AD1D0008A1200008F701000885
:1000E000F7010008F7010008F7010008F701000810
:1000F000F7010008F7010008F7010008F701000800
:10010000F7010008F7010008F7010008F7010008EF
:10011000F7010008F7010008F7010008F7010008DF
:10012000F7010008F7010008F7010008F7010008CF
:10013000DFF80CD000F01AFB0048004741310008FE
:10014000C84F0020224B19680868B0E8F00F80F310
:100150000988BFF36F8F4FF0000080F311884EF0D5
:100160000D0E70470000000006480068006880F32C
:10017000088862B661B6BFF34F8FBFF36F8F00DFA1
:1001800000BF00BF08ED00E0EFF30980BFF36F8F01
:100190000F4B1A6820E9F00F106008B54FF05000BF
:1001A00080F31188BFF34F8FBFF36F8F04F0A0F877
:1001B0004FF0000080F31188BDE808401968086816
:1001C000B0E8F00F80F30988BFF36F8F704700BF6E
:1001D00074000020EFF30580704700000648804758
:1001E00006480047FEE7FEE7FEE7FEE7FEE7FEE71C
:1001F000FEE7FEE7FEE7FEE7E51B00083101000829
:1002000040EA01039B0703D009E008C9121F08C098
:10021000042AFAD203E011F8013B00F8013B521E18
:10022000F9D27047D2B201E000F8012B491EFBD28F
:1002300070470022F6E710B513460A4604461946F1
:10024000FFF7F0FF204610BD2DE9FE4F81EA0304C1
:1002500004F0004421F0004100944FF0000B23F023
:10026000004350EA01045ED052EA03045BD0C3F3BA
:100270000A54C1F30A552C44A4F2F3340194A0FBB0
:100280000254C1F3130141F48011C3F3130343F487
:10029000801301FB024400FB034E840A970A44EAE0
:1002A000815447EA8357A4FB076802958D0A05FB32
:1002B00007854FEA932C04FB0C542705029D4FEA57
:1002C000065847EA1637B5EB08056EEB070C870EA4
:1002D000920E47EA811742EA8312A7FB0201B6EBAE
:1002E0000B0164EB00042B0D43EA0C335E1844EB66
:1002F0001C50DA465146E7FB0201C5F313044FEAEE
:100300000B3343EA14534FEA0432019C43EA0603D9
:10031000A4F10C040294009CCDE900B400F092F822
:1003200003B0BDE8F08F00200146F9E70EB540F2BA
:10033000334102910021CDE900110A460B4600F03D
:1003400081F803B000BDC1F30A5210B5C1F3130127
:1003500040F2FF3341F480119A4201DA002010BDCF
:1003600040F233439A42A2F2334203DC524200F09D
:100370004AF810BD904010BD30B50B460146002034
:100380002022012409E021FA02F59D4205D303FA57
:1003900002F5491B04FA02F52844151EA2F10102D8
:1003A000F1DC30BD2DE9F05F0546002092469B460A
:1003B00088460646814640241BE02846414647467B
:1003C000224600F020F853465A46C01A914110D3F5
:1003D00011461846224600F0DBF92D1A67EB01089A
:1003E0004F4622460120002100F0D2F917EB000908
:1003F0004E41201EA4F10104DFDC484631462A4666
:100400004346BDE8F09F202A04DB203A21FA02F09F
:100410000021704721FA02F3D040C2F1200291403E
:1004200008431946704710B5141E73F1000408DA2A
:10043000401C41F1000192185B411A4301D120F0A8
:10044000010010BD2DE9F04D92469B4611B1B1FA65
:1004500081F202E0B0FA80F22032904600F098F982
:1004600004460F4640EA0A0041EA0B0153465A4649
:10047000084313D0114653EA010019D0C8F14002D5
:100480005046FFF7C0FF05460E46504659464246C5
:1004900000F07EF9084305D0012004E020463946EB
:1004A000BDE8F08D0020054346EAE0762C43374353
:1004B0000A986305E40AA0EB08000022FD0A44EA5A
:1004C00047540A3002D500200146E9E7010510191A
:1004D0006941DDE9084500196941BDE8F04DA2E731
:1004E0002DE9FE4F804681EA0300C00F0C460090C4
:1004F00021F0004123F00045B8EB0200A94105D2EC
:100500004046214690461C460B46024623F00040DA
:10051000104347D0270DC7F30A00C3F30A510290D6
:10052000401A019040286BDAC3F3130040F4801B9B
:100530000098924620B10023D2EB030A63EB0B0B29
:1005400001985946C0F14002504600F021F9064694
:100550000D4650465946019A00F029F910EB080063
:100560006141002487EA115284EAE7731A4340D0BC
:10057000009A62B3019A012A4FEA075215DC001B68
:1005800061EB02014FF0004202EA0752CDE900425E
:10059000001C41F5801132462B46FFF753FF03B094
:1005A000BDE8F08F40462146F9E7001B61EB0201F0
:1005B000001C41F5801300185B412018A2F50017BC
:1005C00047EB030140EAD570B6196D4111E06D08A3
:1005D0004FEA360645EAC0754FEA0752001B61EB49
:1005E0000201001C41F5801149084FEA3000001952
:1005F000514132462B4603B0BDE8F04FFFF713BF21
:100600000098012240000023D0EB020263EBE0736C
:10061000009821464FEAE074B8EB000061EB04015A
:10062000E9E783F000435BE781F0004158E72DE9FB
:10063000F04D81EA030404F0004B21F0004514461C
:100640004FF0000A23F0004150EA050220D054EA9E
:1006500001021DD0C5F30A570246C5F31303C1F3C7
:100660001300C1F30A5640F4801543F48013A7EB3E
:100670000608101BD64608F2FD3873EB050002D3BE
:1006800008F1010801E092185B41B8F1000F03DAAC
:1006900000200146BDE8F08D00204FF48011064691
:1006A00084460EE0171B73EB050705D3121B63EBA3
:1006B000050306434CEA010C49084FEA3000921842
:1006C0005B4150EA0107EDD152EA030012D082EA01
:1006D000040083EA0501084305D0101BAB4106D294
:1006E0000122002306E000224FF0004302E06FF0F9
:1006F000010253101AEB06004CEB085110EB0A00F4
:1007000041EB0B01BDE8F04DFFF78DBEC1F30A527E
:10071000C1F3130140F2FF3341F480119A4202DA2F
:1007200000200146704740F233439A42A2F233421E
:1007300002DC5242FFF767BE00F02AB830B5041E53
:1007400071F1000404DB4FF00044404264EB01010E
:10075000141E73F1000405DB1C464FF000435242A7
:1007600063EB0403994208BF904230BD064C074D2D
:1007700006E0E06840F0010394E807009847103471
:10078000AC42F6D3FFF7D8FC606400088064000830
:10079000202A04DB203A00FA02F100207047914041
:1007A000C2F1200320FA03F3194390407047202A36
:1007B00006DBCB17203A41FA02F043EAE07306E089
:1007C00041FA02F3D040C2F1200291400843194699
:1007D0007047C94301607047002904D0816841F027
:1007E000010181607047816821F0010181607047DB
:1007F000014600208968490700D501207047C06C78
:1008000080B270470246002012680A4200D00120E0
:100810007047014600208968090700D5012070470C
:1008200010B542680E4B1A400C790B6842EA04225C
:100830001343436082680B4B1A40D1E902432343C0
:100840004C7942EA440213438360C26A22F4700284
:10085000097C491EC9B242EA0151C16210BD0000C3
:10086000FFFEF0FFFDF7F1FF70B5072609290AD951
:10087000C568A1F10A0404EB4404A640B543A340B3
:100880001D43C56007E0056901EB4104A640B5437F
:10089000A3401D4305611F23072A09D2446B521E42
:1008A00002EB820293409C4391400C43446370BD31
:1008B0000D2A09D2046BD21F02EB820293409C43A3
:1008C00091400C43046370BDC46A0D3A02EB82028E
:1008D00093409C4391400C43C46270BD816841F0D9
:1008E000080181607047002904D0816841F4A001AB
:1008F00081607047816821F4A00181607047816840
:1009000041F0040181607047FEE710B500F0FAFF86
:10091000012001F097F8212001F06AF80028FAD0B0
:10092000002001F085F84FF4806001F091F800207C
:1009300001F098F84FF42011002001F0A3F80120F5
:1009400001F09AF8392001F053F80028FAD002207B
:1009500001F0A2F801F064F80828FBD110BD0000F6
:1009600010B54FF40034204600F0D2F8012810D022
:100970006400204600F0CCF8012815D06400204621
:1009800000F0C6F801281AD12046BDE8104000F05A
:1009900025B80B4A4021A2F1400000F0F4F82046AF
:1009A000BDE8104000F01AB8054A4021A2F18000CD
:1009B00000F0E9F82046BDE8104000F00FB810BD87
:1009C00040020020C10002D5024908607047024978
:1009D000486070470404024000000240C10002D594
:1009E00002490860704702494860704704040240A9
:1009F00000000240002904D0016841F001010160BB
:100A0000704701684FF6FE721140016070470000A8
:100A100001684FF6FE7211400160002101604160E3
:100A20008160C1603649364A0839904204D148682D
:100A300040F00F0048607047314A1432904204D1B0
:100A4000486840F0F000486070472D4A28329042D4
:100A500004D1486840F4706048607047284A3C32CE
:100A6000904204D1486840F4704048607047244A7E
:100A70005032904204D1486840F47020486070477A
:100A80001F4A6432904204D1486840F470004860C4
:100A900070471B4A7832904204D1486840F0706039
:100AA00048607047174A111F904204D1086840F00F
:100AB0000F0008607047134A1432904204D108684E
:100AC00040F0F000086070470E4A2832904204D18E
:100AD000086840F47060086070470A4A3C329042EF
:100AE00004D1086840F4704008607047054A5032ED
:100AF0009042FAD1086840F4702008607047000006
:100B00000800024008040240406880B270470000BC
:100B100002460020D10002D50449096801E00449D9
:100B20000968114200D00120704700000004024013
:100B300000000240002A03D002680A4302607047A6
:100B400002688A430260704730B5026847F6F07366
:100B50009A430C6A8B682343D1E904452C43234311
:100B60008C692343CC6923434C6A23438C6A234317
:100B700013430360CA6842600A6882604968C160C2
:100B800030BD416070472DE9F04107460D461446DF
:100B9000002F11D0002C0FD0D4F800044119B1F56A
:100BA000806F0BD220442A463946FFF729FBD4F840
:100BB00000042844C4F80004BDE8F081C0F5806654
:100BC000204432463946FFF71BFBAA1B1546B919CC
:100BD0002046FFF715FBC4F80054D4F804048542FE
:100BE000EAD3012084F80804E6E770472DE9F041D4
:100BF0000022CC7804F00F03E40601D58C7823435F
:100C00000C784FF00F0714F0FF0F4FF0010C1CD0C1
:100C100005680CFA02F40E882640A64211D196000F
:100C200007FA06F825EA080503FA06F848EA050572
:100C3000CE78282E02D0482E02D002E0446100E097
:100C40000461521C082AE4D305600A88FF2A1ED9D1
:100C50004568002202F108060CFA06F40E882640C8
:100C6000A64210D1960007FA06F825EA080503FA0D
:100C700006F848EA0505CE78282E00D14461CE78E2
:100C8000482E00D10461521C082AE3D34560BDE818
:100C9000F0810246002092680A4200D0012070478D
:100CA0004161704701617047FEE7000070B5104C6C
:100CB0004FF4007631462046FFF7F4FFA51529468C
:100CC0002046FFF7EFFF002200BF521C082AFBD38B
:100CD00031462046FFF7E4FF002200BF521C082ADD
:100CE000FBD329462046BDE87040FFF7D9BF00007E
:100CF000000C014070B50D4C4FF40075294620469C
:100D0000FFF7CEFFA1152046FFF7CCFF002200BF62
:100D1000521C082AFBD329462046FFF7C3FF0020B8
:100D200000BF401C0828FBD370BD0000000C014030
:100D30002DE9F0410024194E4FF400773946304632
:100D4000FFF7B0FF002100BF491C0829FBD34FF477
:100D5000807529463046FFF7A5FF002200BF521CD0
:100D6000082AFBD30DE0641CE4B2FA2C04D9FFF787
:100D7000C1FF0120BDE8F081002200BF521C082AFB
:100D8000FBD339463046FFF784FF0028EBD12946D4
:100D90003046FFF785FF0020ECE70000000C014023
:100DA0002DE9F04105460024144F4FF40078BE159C
:100DB000280604D541463846FFF774FF03E0414654
:100DC0003846FFF76DFF6806050E31463846FFF7D7
:100DD00069FF002200BF521C082AFBD33146384667
:100DE000FFF75EFF002100BF491C0829FBD3641CEC
:100DF000E4B2082CDCD3BDE8F0810000000C014017
:100E000008B5002402F044F9002201210A2003F071
:100E10000DFB0A4D286002F045F9009038B1A04260
:100E200005D000231A466946286803F067FB9DF841
:100E30000040142003F062F9EDE7000000000020FC
:100E4000F8B54FF40045ADF8005010248DF803407C
:100E500003208DF80200104E69463046FFF7C6FEAB
:100E600029463046FFF71EFFA502ADF800508DF869
:100E7000034069463046FFF7B9FE29463046FFF782
:100E80000FFF6102ADF8001004218DF803106946D0
:100E90003046FFF7ABFEF8BD000C0140F8B54FF44B
:100EA0000045ADF8005010248DF8034003208DF864
:100EB0000200104E69463046FFF798FE294630463C
:100EC000FFF7EEFEA502ADF800508DF8034069462D
:100ED0003046FFF78BFE29463046FFF7E3FE6102FE
:100EE000ADF8001004218DF8031069463046FFF775
:100EF0007DFEF8BD000C0140F8B54FF40055ADF88B
:100F0000005010248DF8034003208DF80200104E8D
:100F100069463046FFF76AFE29463046FFF7C2FEB3
:100F2000E502ADF800508DF8034069463046FFF702
:100F30005DFE29463046FFF7B3FEA102ADF8001072
:100F400004218DF8031069463046FFF74FFEF8BDC7
:100F5000000C0140F8B54FF40055ADF800501024D6
:100F60008DF8034003208DF80200104E694630468C
:100F7000FFF73CFE29463046FFF792FEE502ADF84A
:100F800000508DF8034069463046FFF72FFE294692
:100F90003046FFF787FEA102ADF8001004218DF85E
:100FA000031069463046FFF721FEF8BD000C0140F2
:100FB000F8B54FF48045ADF8005010248DF803408B
:100FC00003208DF80200104E69463046FFF70EFEF2
:100FD00029463046FFF766FE6502ADF800508DF8F1
:100FE000034069463046FFF701FE29463046FFF7C9
:100FF00057FEE102ADF8001004218DF80310694698
:101000003046FFF7F3FDF8BD000C0140F8B54FF492
:101010000055ADF8005010248DF8034003208DF8E2
:101020000200104E69463046FFF7E0FD2946304683
:10103000FFF738FEA502ADF800508DF80340694671
:101040003046FFF7D3FD29463046FFF729FEE1027F
:10105000ADF8001004218DF8031069463046FFF703
:10106000C5FDF8BD000C01400EB503228DF800202F
:101070008DF80100ADF802100020ADF80400ADF8C5
:101080000600029004488068002804D000231A4615
:10109000694603F033FA0EBD000000201FB54FF47F
:1010A0007A61322000F0A8F803F054FC03901B4C46
:1010B00000226946A06803F033FB012824D19DF883
:1010C0000000052820D2DFE800F003080B0F16000F
:1010D0009DF8010000F0B4F816E000F0ABF813E062
:1010E000029800F09DF80FE0BDF802109DF8010095
:1010F00000F082F808E0BDF80420BDF806109DF865
:101100000100029B00F066F8012103A803F01EF81D
:1011100000F0B6F802A001F097F9C9E7000000203E
:10112000310000002DE9F8430121182000F0DCFB1C
:101130004FF40057ADF8007010248DF803400325DC
:101140008DF80250214E69463046FFF74FFD394673
:101150003046FFF7A7FD4020ADF800008DF80340B2
:101160008DF80250DFF8688069464046FFF73EFD83
:1011700040214046FFF794FDE602ADF800608DF88F
:1011800003408DF8025069464046FFF72FFD314677
:101190004046FFF787FDA602ADF800608DF80340DA
:1011A0008DF8025069464046FFF720FD3146404623
:1011B000FFF776FDADF8007004208DF80300694656
:1011C0004046FFF713FDBDE8F88300000010014022
:1011D000000C014030B5074C0425257060700029D3
:1011E00000D1C821E181A28163610020A061208239
:1011F000A07030BD40000020084A0323137000286F
:1012000000D10120507009B94FF47A71518100204A
:1012100090610121D1709070704700004000002063
:10122000034902220A704861002088618870704773
:101230004000002001490120087070474000002054
:10124000024900220A7048708870704740000020F0
:1012500038B54FF46044ADF8004010208DF803001D
:1012600003208DF80200054D69462846FFF7BEFCB5
:1012700021462846FFF714FD38BD0000000C014050
:1012800070B5694D00242878052806D2DFE800F003
:10129000030608156A006878A8709FE0AC709DE0AE
:1012A000A869401CA861696929B1884203D369898A
:1012B0006878FFF7A1FFAC7090E0E969491CE9612B
:1012C0006889814200D3EC61E969C1EB014100B951
:1012D0000120B1FBF0F080B2FF21B0F5804F03D2C6
:1012E000C0EB0020800B1EE0B0F5004F07D2A0F548
:1012F0008040C0EB00208000A1EB204013E0B0F55F
:10130000404F07D2A0F50040C0EB002040F38F30E3
:10131000404208E0A0F54040C0EB002080006FF0A4
:10132000FE0202EB2040002800DA404280B2404337
:10133000FF30B0FBF1F268784243FF32B2FBF1F1CB
:10134000CEB2AE70FEF7F2FF384A394BFEF77CFFA3
:10135000FEF7F9FF80B200B9012026B386423DD2E4
:10136000AC703BE0A869401CA861E98901B9C821BB
:10137000AA89CAB1884231D3AC61287A28B1002049
:10138000287220B16878A87028E00120F8E7AC70D6
:10139000288A401C80B2288290421FD32C826989FF
:1013A0006878FFF729FF19E06A6988420BD3AC61BE
:1013B000287A28B10020287220B16878A87002E04D
:1013C0000120F8E7AC70286A401C286232B19042D4
:1013D00004D32C6269896878FFF70EFFA879401C56
:1013E000C1B2A9716879814212D3AC71A978414325
:1013F0006A8A114489B26423B1FBF3F2D2B2EA7172
:10140000824200D9E871B1FBF3F003FB101068824F
:10141000A879E979884203D2BDE8704001F076BE30
:10142000BDE8704001F070BE400000209A99999983
:101430009999A93F0EB500200290019000F0BCF8E8
:1014400000F018FE01F0AEFF0B4C0A2201A902A821
:1014500000F096FD10B9029802F0B0FD02F01AF803
:1014600000226946206803F05BF90128EDD19DF860
:10147000000001F013FFE8E700000020FEE77047DE
:1014800070B50F23C27801260178002A1ED0144AB5
:10149000126802F4E062C2F5E062120AC2F10404CA
:1014A000D3404578A54082781A402A43120101F1C1
:1014B000E02181F80024007800F01F018E404009EF
:1014C000800000F1E020C0F8006170BD01F01F0055
:1014D00086404809800000F1E020C0F8806170BDBE
:1014E0000CED00E002490843024908607047000023
:1014F0000000FA050CED00E00907090E002806DAE5
:1015000000F00F0000F1E02080F8141D704700F19A
:10151000E02080F80014704730B40021084B00220E
:10152000002003EBC0046254401CC0B28028F8D3F2
:10153000491CC9B20829F3D330BC00F0ABB8000095
:10154000C847002010B57F2813D83F2911D807239A
:10155000A3EBD103DBB201F00701C1F107040121C4
:10156000A140C9B2054C04EBC0001AB1C25C0A43E9
:10157000C25410BDC25C8A43C25410BDC84700208B
:1015800038B50121082000F0AFF94FF44074ADF8F0
:10159000004014208DF8030003208DF80200054D53
:1015A00069462846FFF722FB21462846FFF77AFBCB
:1015B00038BD0000000C014010B5FFF7E1FFC82066
:1015C00002F09CFD0021AE2000F05EF90021D52044
:1015D00000F05AF90021802000F056F90021A820DF
:1015E00000F052F900213F2000F04EF90021D320F5
:1015F00000F04AF90021084600F046F90021402099
:1016000000F042F900218D2000F03EF90021142065
:1016100000F03AF90021202000F036F900210846B8
:1016200000F032F90021A12000F02EF90021C020A5
:1016300000F02AF90021DA2000F026F9002112201A
:1016400000F022F90021812000F01EF90021EF2096
:1016500000F01AF90021D92000F016F90021F1203C
:1016600000F012F90021DB2000F00EF900213020FB
:1016700000F00AF90021A42000F006F90021A620BC
:1016800000F002F9FFF748FF0021BDE81040AF204D
:1016900000F0FAB870B502F05BFC0025104E05F1C1
:1016A000B000C0B2002100F0EFF80021084600F0C1
:1016B000EBF80021102000F0E7F8002406EBC4004E
:1016C0000121405D00F0E0F8641CE4B2802CF5D309
:1016D0006D1CEDB2082DE2D3BDE8704002F058BC9D
:1016E000C84700202DE9F84F83460E461F46B246F4
:1016F000780701D0012000E0002000EBD700790836
:101700004843C0B20090203A02F0FF09002541E0B2
:101710000C2F13D0102F18D0182F3ED1204909EBD1
:10172000C90001EB8000445D4FF00008200611D590
:10173000314658460A9AFFF705FF12E0194909EBAE
:10174000490001EB8000445DEEE7174800EB09100B
:10175000445DE9E70A9890B1002231465846FFF708
:10176000F1FE6006040E761CF6B2A6EB0A00B84243
:1017700007D156460BF1010B0BF0FF0B08E00122DD
:10178000EBE708F1010808F0FF08B8F1080FCDD326
:101790006D1CEDB200988542BAD3BDE8F88F000009
:1017A00004570008A04C0008145100082DE9FE431E
:1017B0001F460A9B0024A046002A02DA4FF00108C7
:1017C00052420A256E4692FBF5FC05FB1C2CA146F5
:1017D0000CF1300C641CE4B206F809C092FBF5F27F
:1017E000002AF0DCB8F1000F06D022464FF02D0C95
:1017F000641CE4B206F802C0302203E02546641CF3
:10180000E4B27255BC42F9D3002232550AE0B75C0B
:10181000A51A354415F801CC06F802C005F8017C7C
:10182000521CD2B2B2EB540FF1D36A4600F002F868
:10183000BDE8FE83F8B504460F4615461E461BE07C
:101840008020A0EB5600A04202D20024B819C7B2F3
:10185000C6F14000B84203DA00242746FFF75CFED9
:10186000012000902A78334639462046FFF73AFF98
:1018700004EB5600C4B26D1C287820385E28DFD9EE
:10188000BDE8F840FFF706BF70B505460C4602F00C
:101890005FFBFFF70BFA7820FFF782FAFFF748FAB1
:1018A0001CB14020FFF77CFA02E00020FFF778FA35
:1018B000FFF73EFA2846FFF773FAFFF739FAFFF70A
:1018C00019FABDE8704002F063BB0000054A002928
:1018D00003D051690143516170475169814351619E
:1018E0007047000000100240054A002903D09169AA
:1018F0000143916170479169814391617047000094
:10190000001002400C48016841F00101016041688B
:101910000A4A114041600168094A114001600168AA
:1019200021F480210160416821F4FE0141604FF4FF
:101930001F01816070470000001002400000FFF8A6
:10194000FFFFF6FE10B5264A516801F00C01254B49
:10195000002927D0042927D0082927D003605168FF
:1019600001F0F0010909204B5C5C0168E140416035
:10197000546804F4E064240A1C5D21FA04F48460D1
:10198000546804F46054E40A1B5DD940C160526895
:1019900002F44042920B144B1B1F9A5CB1FBF2F114
:1019A000016110BD0360DAE70360D8E7516801F414
:1019B0007011536803F48033022404EB914133B176
:1019C00053689B0307D5094B59430160C7E7074B91
:1019D00059430160C3E7034B59430160BFE700006F
:1019E0000010024000127A003000002000093D0083
:1019F000034600205909094A01290AD002290AD0C0
:101A0000516A03F01F02012393400B4200D00120D2
:101A100070471168F5E7116AF3E700000010024013
:101A20000248406800F00C007047000000100240BF
:101A3000034A516821F0F0010143516070470000F2
:101A40000010024001490860704700000000424257
:101A5000034A516821F4E06101435160704700007E
:101A600000100240034A516821F4605141EAC0006D
:101A7000506070470010024001490866704700003E
:101A800000004242034B5A6822F47C120843104380
:101A90005860704700100240034A516821F003016A
:101AA000014351607047000000100240AFF3008016
:101AB0000CB50022019200922748016841F4803160
:101AC00001604FF4A063016801F4003100910199B5
:101AD000491C0191009911B901999942F3D101680A
:101AE000890302D50121009100E0009200990129AB
:101AF00030D11A490A6842F010020A600A6822F0DE
:101B000003020A600A6842F001020A60416841600B
:101B100041684160416841F480614160416821F45D
:101B20007C114160416841F488114160016841F0D5
:101B30008071016001688901FCD5416821F00301D1
:101B40004160416841F0020141604168C1F3810197
:101B50000229FAD10CBD0000001002400020024012
:101B600010B502F0E9FE012803D0BDE8104002F0F4
:101B700047BC10BD70B519484FF47A710068B0FBCE
:101B8000F1F10026751EB1F1807F0CD221F07F406B
:101B90004FF0E024401E60610F212846FFF7ACFCA7
:101BA000A661072020610E480068C0F30222C2F13E
:101BB0000701042900D90421101D072801D20022A1
:101BC00000E0D21E01208840401E00F00F0191402D
:101BD0002846BDE87040FFF78FBC00000C000020D5
:101BE0000CED00E010B50F48016841F00101016003
:101BF00041680D4A1140416001680C4A1140016082
:101C0000016821F480210160416821F4FE014160F6
:101C10004FF41F018160FFF749FF05494FF0006055
:101C2000086010BD001002400000FFF8FFFFF6FE44
:101C300008ED00E0002904D0018841F00101018095
:101C40007047018821F0010101807047002905D00B
:101C500030F8441F41F400410180704730F8441FC0
:101C6000C1F30E010180704770B5028C22F48052DE
:101C70000284058C8288838B23F4E04323F440762E
:101C80000C884FF6FF7303EA0424344325F400550F
:101C90000E8903EA06362E434D8803EA053535439F
:101CA000094EB04202D0094EB04205D122F480461E
:101CB0008A8903EA8212324382808483C988A0F829
:101CC0004010058470BD0000002C0140003401402C
:101CD000828B22F400624FF6FF7303EA0121114365
:101CE00081837047A0F840107047000030B502882B
:101CF0001B4C1C4DA0420DD0A8420BD0B0F1804F20
:101D000008D0194B984205D0184B984202D0184B76
:101D1000984203D122F070034A881A43154B984227
:101D200006D0154B984203D022F44073CA881A4358
:101D300002808A8882850A880285A0420AD0A84249
:101D400008D00E4A904205D00D4A904202D00D4A6A
:101D5000904201D1097A01860121818230BD0000C3
:101D6000002C014000340140000400400008004005
:101D7000000C0040001000400014004000400140F2
:101D8000004401400048014008B502F0E3FD009026
:101D90004FF47A75044C2946684602F0D7F960681A
:101DA000401C6060F7E70000000000203EB5224DB7
:101DB00040F22441284600F0D0F9002838D01F4CCA
:101DC00000212046FEF716FE2046FEF79DFEC0F1DC
:101DD0008001402905D21A4AA2F18000FEF7D3FE05
:101DE00005E0174A4039A2F14000FEF7CCFE144945
:101DF000D1F804040090D1F80004D0B1401E019045
:101E00000198401CC1F804040E48406820B100232A
:101E100002AA694602F024FC80212046FEF7B1FEAA
:101E200001212046FEF7E6FD28880348001D0088B2
:101E30003EBD40F2FF30E2E700380140580002406A
:101E400040020020640000202DE9F0470746884644
:101E50000024A146144D154E0DE03A5D552A0ED0D2
:101E6000687838B1DD2A0FD02B783F2B02D2581C6E
:101E70002870F254641C4445EFD3BDE8F08701207C
:101E8000687028703270F5E728783F2806D2411C28
:101E9000C9B229703254054800F00AF885F801905B
:101EA00085F80090E6E70000640000204C06002062
:101EB0002DE9F04186B006460F460024FFF72CFBC3
:101EC000BD1E022F00D9ECB2002C1BD001240DF155
:101ED00004087F1E46E0621ED01702EB507121F00D
:101EE0000700A2EB000C4FEA4C60000EC1F3C703E1
:101EF000042B0AD9FFF710FB002110231BA2084670
:101F0000FFF798FC06B0BDE8F081315D0A22B2EB24
:101F1000111F02D90909303101E00909373108F8E8
:101F20000010315D01F00F020A2A01D2303200E0C8
:101F30003732404442701149601E0840072801D0E2
:101F4000AC420DD10CF1010C0CEB8C01002008F817
:101F500001001807010E102301AA0020FFF76AFCF8
:101F6000641CE4B2BC42B6DBCCE70000446174619F
:101F700020546F6F204C6F6E6700000007000080D8
:101F80002DE9FC4180460C464FF0FF35B8F1000FBB
:101F90000AD04CB12D486946406802F0C1FB0128C7
:101FA00004D02846BDE8FC812846FBE7284F97F877
:101FB0000804C00707D0002087F8080425A000F017
:101FC00043FA2846EEE7DDE90010884219D3DDE93F
:101FD0000010401A401C2060401C01F02FFE0546F6
:101FE00028002FD02168491CFEF723F900982268A9
:101FF000C1192846FEF704F928462168FFF724FF97
:1020000020E00098C0F580660199701C08442060AB
:10201000401C01F013FE0546280013D02168491C1E
:10202000FEF707F900983246C1192846FEF7E8F88E
:10203000019AA819521C0649FEF7E2F828462168C1
:10204000FFF702FFC8F800500020ABE76400002053
:102050004002002075736172743152656365697660
:10206000652E6669666F2E636F766572466C616772
:102070000D0A000010B5074CA078002809D1FFF721
:102080004BFA0021102304A20846FFF7D3FB0120DE
:10209000A07010BD640000205541525400000000A3
:1020A0003EB51C4D40F22551284600F056F81A4C1A
:1020B00090B1284600F0EAF82268511C2160E368DC
:1020C0009854FF2901D900202060D4E900018842FA
:1020D00001D1012020723EBD40F22441284600F08B
:1020E0003CF80028F7D060680090216879B1491E5B
:1020F00001910199491C61600848012302AA6946BF
:10210000006802F0ADFA284600F0C0F83EBDFF219D
:10211000EEE70000004400408C0600206C00002028
:10212000002904D0818941F400518181704781895F
:1021300021F4005181817047002A03D0828A0A432A
:1021400082827047828A8A438282704702460020D8
:1021500012880A4200D00120704770B5002440F672
:102160006A12C1F3421301F01F05012606FA05F2B7
:10217000012B0CD0022B0DD0838A1340090A8E400C
:10218000008830400BB100B10124204670BD838926
:102190001340F3E7038A1340F0E710B540F66A13E3
:1021A000C1F3421301F01F040121A140012B07D00C
:1021B000022B07D014303AB102680A43026010BD06
:1021C0000C30F8E71030F6E702688A43026010BD71
:1021D00030B585B004460D46208A4CF6FF710840A4
:1021E000E98801432182A0894EF6F3110840A988AD
:1021F0002A8911436A8902431143A181A08A4FF6BB
:10220000FF410840A9890143A1826846FFF79AFB74
:102210001D48844201D1039800E00298A189090475
:1022200008D500EBC00101EB001029684900B0FBA4
:10223000F1F007E000EBC00101EB00102968890014
:10224000B0FBF1F06422B0FBF2F109010B096FF071
:1022500018056B4300EB8300A3891D044FF0320384
:1022600007D503EBC000B0FBF2F000F00700084315
:1022700006E003EB0010B0FBF2F000F00F000843A3
:10228000208105B030BD0000003801408088C0F3D7
:1022900008007047C1F3080181807047FEE7000025
:1022A00030B587B00446012144F20400FFF71CFB5F
:1022B0004FF40070ADF8180003208DF81A001820B4
:1022C0008DF81B00254D06A92846FEF78FFC281522
:1022D000ADF8180048208DF81B0006A92846FEF727
:1022E00085FC02940024ADF80C40ADF80E40ADF82A
:1022F0001040ADF814400C20ADF81200184D02A9A2
:102300002846FFF765FF25208DF8040008208DF88A
:1023100005008DF8064001208DF8070001A8FFF7A1
:10232000AFF8012240F224412846FFF736FF00F0C3
:1023300059F800F019F80122C0212846FFF7FCFEE9
:10234000002208210A2002F071F8064948600121A4
:102350002846FFF7E5FE07B030BD00000008014049
:10236000003801406400002030B58DB001210846DE
:10237000FFF7ACFA184D2846FEF74AFB00240494F8
:102380000C9420200A908021059114480390099410
:102390000791134802900894069480140B9002A9A8
:1023A0002846FEF7D1FB0F208DF8040007208DF89A
:1023B00005008DF8064001208DF8070001A8FFF701
:1023C0005FF801220E212846FEF7B4FB01212846C2
:1023D000FEF710FB0DB030BD58000240C0010020D8
:1023E0000438014010B58CB001210846FFF76EFAA1
:1023F000124C2046FEF70CFB1020039000210B919D
:102400000991802204920E480290089106920D488C
:102410000190079105910A9101A92046FEF794FBCE
:1024200001212046FEF7ADFB4FF40050FEF7CAFA3B
:1024300001212046FEF7DEFA0CB010BD4400024038
:1024400040010020043801400FB4054B10B503A92A
:10245000044A029800F0EEF810BC5DF814FB00008E
:10246000D92E0008E80000200FB4084B10B504A9CD
:1024700002AA039800F0DEF8044602A9002000F04A
:1024800070FC204610BC5DF814FB0000632D0008B2
:1024900002E008C8121F08C1002AFAD1704770472D
:1024A000002001E001C1121F002AFBD1704700008B
:1024B0002DE9FF5F82B00021DDE90430020DDDF877
:1024C00040B0034318D044F61050A2F2FF3242430A
:1024D0001514119801281FD0A5EB0B00401C5FEAD2
:1024E000000A4FF000064E4FDFF83891B0465046D4
:1024F00015D5CAF1000413E0119801244AA301285C
:1025000001D16FEA0B010298119AC0E90031C0E9CC
:10251000024206B0BDE8F09FCBF10000DFE70446C1
:102520000021404A491842EB0450CDE9001012E066
:10253000E00707D032463B4640464946FDF784FE59
:102540008046894632463B4610461946FDF77CFEDA
:1025500006460F466410002CEAD1DDE90401DDE9EE
:102560000023BAF1000F06DAFDF76EFE42464B4635
:10257000FDF76AFE05E0FEF75AF842464B46FEF7C5
:1025800056F804460E460022284BFEF7D7F803D82B
:102590004FF0FF30014607E00022254B2046314630
:1025A000FDF79EFFFEF7B2F8102409E0002C0ADBCD
:1025B0000A220023FDF7F6FE039B30321A55641EF3
:1025C00050EA0102F2D1641C039AC4F111031444CD
:1025D000119A012A03D0012208430DD10AE00843D1
:1025E00004D000204FF0110B119072E7A3EB0B0504
:1025F0006D1E0DE05B4504DD4FF0000205F10105A5
:1026000004E003DA4FF00002A5F10105002AECD046
:1026100002981199C0E90231C0E9004579E700004C
:10262000000014400000F03F300000000000F043C4
:102630000000E03F2DE9FF4F95B09B4689460646D6
:1026400000250FE2252877D100242746F84A0121EA
:10265000059400E0044316F8013F203B01FA03F023
:102660001042F7D130782A2811D06FF02F0330783C
:10267000A0F13002092A16D8059A44F0020402EBB0
:10268000820203EB42021044761C0590EFE759F8F2
:10269000042B0592002A03DA504244F400540590BA
:1026A00044F00204761C30782E2816D116F8010F5B
:1026B00044F004042A280DD06FF02F023078A0F1E6
:1026C0003003092B09D807EB870302EB4303C71834
:1026D000761CF3E759F8047B761C30786C280FD011
:1026E00006DC4C2817D068280DD06A2814D104E0E5
:1026F000742810D07A280FD10DE044F400140AE0B9
:1027000044F4801401E044F440147278824202D10F
:1027100004F58014761C761C307866280BD013DC08
:10272000582877D009DC002875D04528F6D04628EF
:10273000F4D047281AD19DE118E0632835D06428E9
:1027400079D0652812D195E1702873D008DC67280C
:10275000F1D069286FD06E280DD06F2806D1B5E072
:1027600073282CD0752875D0782874D05A461799BC
:1027700090476D1C75E1C4F30250022809D003286C
:102780000DD0D9F8001004280DD00D6009F104090E
:1027900067E1D9F80010EA17C1E90052F6E7D9F865
:1027A00000100D80F2E70D70F0E719F8041B8DF8AA
:1027B000001000208DF80100EA46012003E059F8DE
:1027C00004AB4FF0FF3061074FF0000102D40DE081
:1027D00008F101018846B9420FDA8045F8DB1AF8A2
:1027E00008100029F4D108E008F10101884681426F
:1027F000FADB1AF808100029F6D105985B46A0EB21
:10280000080721463846179A00F094FA284400EB4E
:10281000080507E04DE029E10DE01AF8010B5A46E2
:1028200017999047B8F10108F7D25B462146384620
:10283000179A13E142E00A220092C4F302524FF0C9
:10284000000A022A08D059F804CB032A4FEAEC7197
:102850000AD00DE029E02AE009F1070121F0070282
:10286000F2E802C1914609E00FFA8CFC4FEAEC71E4
:10287000042A03D14FFA8CFC4FEAEC71002907DAE5
:102880000A460021DCF1000C61EB02012D2202E07E
:10289000220504D52B228DF80420012203E0E20753
:1028A00001D02022F7E7904659E00A2102E01022E9
:1028B0000DE010214FF0000A00910BE010224FF0C4
:1028C000000A44F004040827009203E008224FF0B5
:1028D000000A0092C4F30252022A05D059F804CB30
:1028E0000021032A08D009E009F1070121F00702BD
:1028F000F2E802C1914605E01FFA8CFC042A01D1DE
:102900000CF0FF0C4FF00008220728D5702806D0E5
:10291000009B83F0100353EA0A0305D00EE0402227
:102920008DF80420012208E05CEA010206D0302282
:102930008DF804208DF8050002229046009B83F05C
:10294000080353EA0A030AD15CEA010201D16207D3
:1029500005D530228DF804204FF001087F1E58283D
:1029600004D034A003900EA802900DE036A0F9E741
:1029700053466046009AFDF715FD84460398825C35
:102980000298401E029002705CEA0100F0D10298A9
:1029900006A9081A00F1200A600702D524F4803441
:1029A00000E00127574502DDA7EB0A0000E0002008
:1029B00000EB0A01009005984144401A0590E0039D
:1029C00006D45B462146179A059800F0B3F90544F2
:1029D000002706E001A85A46C05D179990476D1C74
:1029E0007F1C4745F6DBE0030CD55B462146179A72
:1029F000059800F09FF9054404E030205A461799E5
:102A000090476D1C0099481E00900029F5DC08E0F5
:102A1000029802995A460078491C029117999047EA
:102A20006D1CBAF10001AAF1010AF1DC65E10000B8
:102A30000928010030313233343536373839616294
:102A40006364656600000000303132333435363758
:102A500038394142434445460000000000F058F92F
:102A60000544761C307800287FF4ECAD19B0284678
:102A7000BDE8F08F620700D4062709F1070222F0B3
:102A8000070CFCE80223E14603F000485FEA080C6B
:102A900002D00FF2702C0DE05FEA045C02D50FF259
:102AA000682C07E05FEAC47C02D00FF2602C01E0E2
:102AB000AFF2700C4FF0FF3823F00043CDF850C058
:102AC00065280CD006DC452809D046281DD04728AB
:102AD0003DD13DE0662818D067287ED138E000213E
:102AE000112F01DB112000E0781CCDE9000106A9BF
:102AF0000EA8FFF7DDFCDDE90F010E9A039100211E
:102B0000009207F1010A04914DE04FF00040009758
:102B1000CDE9011006A90EA8FFF7CAFCDDE90F02F6
:102B200003920E9B11990022DDF80CA000930492F1
:102B300011B9791C00EB010AB7EB0A0004D4C0F10B
:102B4000FF3007F1010A0490AAEB0700019044E06E
:102B5000012F00DA01270021112F01DD112000E0F3
:102B60003846CDE9000106A90EA8FFF7A1FCDDE972
:102B70000F010E9A0391002104910092BA46210799
:102B80000CD40399514500DA8A46BAF1010F05DDEC
:102B9000009AAAF10101515C302908D0B84202DA4A
:102BA00010F1040F06DA0121CDE9011015E0AAF1B8
:102BB0000101E9E7002805DC049901440491AAEB2E
:102BC000000102E0411C514500DD8A460499401A8B
:102BD000401C01904FF000400290200704D401985F
:102BE000504501DBCDF8048000208DF84F0002989D
:102BF0000DF14F07B0F1004F25D02B200E90029819
:102C00004FF0020800280CDA404202902D200E906E
:102C100007E00A210298FDF7AFFB3031029007F878
:102C2000011DB8F10001A8F10108F2DC02980028AA
:102C3000EFD1791E0E980870307800F0200040F037
:102C4000450007F8020D12A8C01B00F107081498F0
:102C5000007800B1012000EB0A01019801EBE0715E
:102C600005984144401A401E0590E00306D45B4697
:102C70002146179A059800F05DF8054414980078ED
:102C800018B15A46179990476D1CE00324D55B464E
:102C90002146179A059800F04DF805441CE0049869
:102CA000002807DBDDE90301884203DD0098405C72
:102CB000179901E0179930205A469047049805F17A
:102CC0000105401C04900198401E019004D12E2063
:102CD0005A46179990476D1CBAF10001AAF1010AF2
:102CE000DDDC05E017F8010B5A46179990476D1C7B
:102CF000B8F10001A8F10108F4DC5B462146179AFF
:102D00000598ABE62D0000002B000000200000001D
:102D10002DE9F041044600251E461746880404D4D8
:102D200005E039462020B0476D1C641EF9D52846C1
:102D3000BDE8F0812DE9F041044600251E4690468D
:102D4000C80301D5302700E02027880404D505E01A
:102D500041463846B0476D1C641EF9D52846BDE88B
:102D6000F0810A68531C0B601070704710B50D4C51
:102D7000C1B2072301222046FDF776FD022120463D
:102D8000FDF727FD01212046FDF7ADFD022120467C
:102D9000FDF738FD0028F9D02046BDE81040FDF7CA
:102DA0002EBD00000024014010B586B0012148026C
:102DB000FEF79AFD01210820FEF796FD0320ADF8ED
:102DC000140000248DF8174005A91548FDF70EFFE3
:102DD00000948DF804408DF805404FF46020029077
:102DE000039401208DF810000E4C69462046FDF733
:102DF00017FD01212046FDF7EFFC2046FDF76EFD93
:102E00002046FDF706FD0028FAD12046FDF777FDA4
:102E10002046FDF7EDFC0028FAD106B010BD0000F9
:102E2000000C0140002401407047000010B5FEF77F
:102E300073FB0021102309A20846FEF7FBFC1023B8
:102E400009A219460020FEF7F5FC10232021BDE859
:102E5000104007A20020FEF7EDBC000041444320D3
:102E60004D656E75000000005042303A00000000D1
:102E70005042313A000000003EB501A902A800F01E
:102E8000FFF8102404230094BDF8082021463020C8
:102E9000FEF78CFC10230AA219465820FEF7CAFC44
:102EA00004230094BDF8042020213020FEF77EFC8E
:102EB000102303A220215820FEF7BCFC3EBD0000D9
:102EC0006D56000040F6E441484340F6FF71B0FB08
:102ED000F1F080B27047000070B50446064D402105
:102EE0002846FFF733F90028F9D0A1B22846FFF7AA
:102EF000D1F9204670BD0000003801407047000045
:102F000010B5FEF709FB0021102308A20846FEF7C2
:102F100091FC102308A219460020FEF78BFC00F05C
:102F2000F7FEBDE8104000F087BF000046726565FF
:102F300020446562756700004D6F64653A000000CB
:102F4000102302A219463020FEF774BC4163746955
:102F5000766500007047000010B5FEF7DDFA00212D
:102F6000102306A20846FEF765FC1023BDE81040BA
:102F700005A219460020FEF75DBC00004750494FEE
:102F800020496E70757400004B6579733A0000003B
:102F900038B500F087F80446002C0DD0102307A2A6
:102FA00019463020FEF746FC102001460090012310
:102FB00022463020FEF7FAFB38BD000020202020FA
:102FC000000000004FF460410148FDF769BE0000B9
:102FD000000C014010B5FEF79FFA002110230AA251
:102FE0000846FEF727FC10230AA219460020FEF728
:102FF00021FC0A4900204870BDE810404FF46041B0
:103000000748FDF74DBE00004750494F204F7574EB
:10301000707574004C45443A000000002000002008
:10302000000C014005484078002801D004A200E0CF
:1030300004A2102319463020FEF7FCBB200000201C
:103040004F4E20004F464600B0F5965F01D9002054
:103050007047A0F2AB514FF4C772914201D80320E0
:103060007047A0F28531914201D802207047A0F24A
:103070005F10904201D80120704700207047000087
:10308000024A138803805088088070472800002077
:1030900010B5FFF789FE024800210180418010BD74
:1030A0002800002010B500F00FF820B1FF2101EB3F
:1030B0004000C0B210BD00F017F810B14006000E7D
:1030C00010BD002010BD000010B50820FFF74EFE17
:1030D00080B2FFF7F7FE03490880BDE81040FFF714
:1030E000B3BF00002800002010B50920FFF73EFE06
:1030F00080B2FFF7E7FE03494880BDE81040FFF7C4
:10310000A3BF000028000020FEF7A2B80B480079FA
:10311000072811D2DFE800F0100406080A0C0E00A0
:10312000FDF78EBEFDF7BABEFDF7E6BEFDF712BF96
:10313000FDF73EBFFDF76ABFFDF782BE40000020ED
:103140001CB54FF44070FEF7CDF9FDF7DEFBFEF73E
:1031500011FD4FF4E130FFF7A3F81BA0FFF774F95E
:10316000FDF7E0FF00F0DAFD00220C210A2001F05B
:103170005DF91949886000240820CDE90004234640
:10318000802216A1174801F0A7FB0920CDE9000411
:103190000023802214A1154801F09EFB0A20CDE9EE
:1031A00000040023802212A1134801F095FB0720A0
:1031B000CDE900040023802210A1114801F08CFB0E
:1031C00001F056F800201CBD48454C4C4F204E45A0
:1031D000454B4F0D0A000000000000206D61696E34
:1031E00000000000351400086B657900010E00082E
:1031F00074696D6500000000891D00086C6564003D
:103200009D1000087047000010B5FEF785F90021F9
:10321000102305A20846FEF70DFBBDE810404FF451
:10322000FA613220FDF720BF4D61696E0000000099
:103230001FB51348006813494A6890421FD0486080
:103240004FF46162B0FBF2F1B0FBF2F302FB130347
:103250003C22B3FBF2F3B0FBF2F402FB1404642053
:10326000B1FBF0F200FB121207A101A80094FFF7D6
:10327000FBF8102301AA00213C20FEF7DBFA1FBD5A
:1032800004000020200000202530326C753A2530E3
:10329000326C753A2530326C7500000010B5404C28
:1032A0002178072962D2DFE801F0042A4950576CDF
:1032B000730007285AD2DFE800F05904090E1318EA
:1032C0001D00BDE81040012000F0CAB8BDE8104064
:1032D000022000F0C5B8BDE81040032000F0C0B8DF
:1032E000BDE81040042000F0BBB8BDE81040052048
:1032F00000F0B6B8BDE81040062000F0B1B80128D3
:103300000DD0052810D0062830D100F001FD00288E
:103310002CD0401FBDE81040C0B200F08DBDBDE80C
:103320001040022000F09CB800F0F2FC64281DD28E
:10333000401DBDE81040C0B200F07EBD012815D18F
:10334000BDE81040032000F08BB801280ED1BDE885
:103350001040042000F084B8012808D002280BD0C7
:10336000032803D1FDF774FF0020607010BDBDE895
:103370001040052000F074B8FDF762FD0120607078
:1033800010BD0128FCD1BDE81040062000F068B84F
:103390000128F5D1BDE81040002000F061B8000020
:1033A0002000002019481849016000F11C01184A4A
:1033B0000A6000F13802174B1360174B4360174B3C
:1033C0004B60174B5360174B8360174B8B60174B49
:1033D0009360174BC360174BCB60174BD360174BF1
:1033E0000361174B0B61174B1361174B4361174B6D
:1033F0004B61174B5361174B83611748886117481E
:103400009061FFF701BF000009320008EC000020C6
:103410003132000805320008CD3D00080D3E00089D
:10342000C53D00082D2E0008792E0008292E000821
:10343000592F0008912F0008552F0008D52F00089C
:1034400025300008C52F0008753E0008B13E000871
:10345000713E0008012F0008412F0008FD2E0008D2
:1034600070B50446072C10D2094D0848297850F849
:10347000211001B188472C700448383850F82400D6
:10348000002802D0BDE87040004770BD2401002034
:103490002000002005490448097850F82100002840
:1034A00000D00047704700000801002020000020E5
:1034B0002DE9F04104460F46134E75693068001D32
:1034C00000F000FD601C07D137B13168BDE8F04164
:1034D000091D0E4800F02FBD2C4430684460AC42FA
:1034E00006D23168B068091DBDE8F04100F00BBD9F
:1034F00031687068091D00F006FD306B844200D20F
:103500003463BDE8F0810000740000208C0B0020C3
:1035100070B5044600F01CFD1C4D2869401C286154
:10352000286810B1E86938B10CE02C6028690128DE
:1035300008D100F077F905E02868E16AC06A88429E
:1035400000D82C60E86A401CE8626064E06AA969FF
:10355000884200D9A8610E4900EB800001EB800091
:10356000211D00F0E8FC00F013FDE86900280CD0F4
:103570002868E16AC06A884207D206494FF0805045
:103580000860BFF34F8FBFF36F8F70BD74000020D2
:10359000DC06002004ED00E010B500F0D9FC0E4C74
:1035A000A068A0B90D4800F0A0FC0C48143000F051
:1035B0009CFC0A48206014306060002210210A2020
:1035C00000F034FFA06010B105A100F061FDBDE87E
:1035D000104000F0DDBC0000B0000020A00B002077
:1035E000546D72510000000070B50C4D0C4E11E08E
:1035F00000F0AEFCF068C468201D00F063FC286990
:10360000401E2861E868401EE86000F0C1FC2046CA
:1036100000F053F8E8680028EAD170BD740000207B
:10362000780B002030B40B46026C002A0CD0C16825
:103630001144C1604468A14201D30168C160C168FE
:1036400030BC1846FCF7DCBD30BC70472DE9F041BA
:10365000044617460026A56B226C002A10D0C7B17D
:10366000E068FCF7CDFDE168206C091AE160226892
:10367000914202D26168081AE060022F16D017E06A
:103680002068A8B9606801F0D1F9064600206060A2
:103690000EE0A068FCF7B4FD216CA0680844A060AF
:1036A0006168884204D32068A06001E005B16D1E06
:1036B0006D1CA5633046BDE8F08110B50446206B53
:1036C00000F07CFC2046BDE8104000F077BC000014
:1036D00007490A681168002904D00021016019B166
:1036E000002070470121F9E7D068006870470000AA
:1036F000B00000204FF470510F48420706D0C01DA3
:1037000020F007000C49411AC1F570510B4A1060B6
:10371000002353600144083921F00701103A116079
:103720004B600B600B1A4360016040689060506012
:103730004FF00040D0607047C80B0020D40000203C
:10374000074E4FF08054074DFFF74EFF30680128B9
:10375000FAD92C60BFF34F8FBFF36F8FF4E70000EF
:10376000DC06002004ED00E070B51D46049C002935
:1037700009D02260E06321640121204600F078FE38
:1037800084F84C5070BD2460F4E72DE9F047814681
:10379000DDE908580A9C0E4617469A46B900A5224C
:1037A000206BFCF73FFD206B7F1E00EB870020F0B5
:1037B0000707780707D0502080F31188BFF34F8F99
:1037C000BFF36F8FFEE700202218315C82F83410BF
:1037D000315C11B1401C1028F6D3002684F84360F8
:1037E000382D00D33725E562E5642665201D00F0FD
:1037F00087FB04F1180000F083FB2461C5F1380059
:10380000A0616462666584F858605246494638464D
:1038100000F020FB2060B8F1000F01D0C8F8004094
:10382000BDE8F08770B50024114D04EB840005EB72
:10383000800000F05AFB641C382CF6D30D4800F0D1
:1038400054FB0C48143000F050FB0A48283000F0BC
:103850004CFB08483C3000F048FB0648503000F074
:1038600044FB0548034941601431816070BD00008C
:10387000DC0600203C0B00207400002030B513490A
:1038800000E011460A688242FBD34B685C18844210
:1038900003D140681844486008460D6844682318FE
:1038A000AB420DD1094B103B1B689A4206D05268BF
:1038B000224442600A681268026002E0036000E08D
:1038C0000260814200D0086030BD0000D4000020BA
:1038D00070B50024416000610C4D91420AD8D11AA4
:1038E0008269914201D301240EE0011D686800F055
:1038F0000AFB09E09A4203D2994201D3012403E072
:10390000011D286800F0FFFA204670BDB0000020BD
:1039100010B5044600F01CFBA06B20B1002400F0A1
:1039200037FB204610BD0124F9E710B5044600F02E
:103930000FFBA06BE16B884201D1012400E0002461
:1039400000F026FB204610BDF8B505460E4614488B
:103950000068C068C468201D00F0B4FAE06901285E
:1039600010D1A0692B46411932462046FFF7B0FF1F
:1039700040B100200346014600902A46204601F04F
:1039800059F928B1616A01B02046BDE8F040084706
:10399000502080F31188BFF34F8FBFF36F8FFEE786
:1039A000B000002030B587B02E4D52E003980028BB
:1039B00003DADDE90420069990470398002848DBE4
:1039C000059C606910B1201D00F07CFA02A800F08F
:1039D00093F8024603980A283BD2DFE800F0050579
:1039E000053A263705053A260498A169034601449D
:1039F0002046FFF76DFF00B3616A20468847E06903
:103A0000012826D1002000900498A16900234218C3
:103A10001946204601F00EF978B9502080F311883C
:103A2000BFF34F8FBFF36F8FFEE70498A06128B1FB
:103A3000811813462046FFF74BFF0AE0502080F321
:103A40001188BFF34F8FBFF36F8FFEE7204600F062
:103A5000B5FA002203A9A86800F062FE0028A5D1EB
:103A600007B030BDB0000020F8B506460D4600F0A6
:103A700037FC684600F040F80446009810B101F0A9
:103A80004FF8F8BD45B9A64206D801F049F82146DD
:103A90003046FFF759FFF8BD0C481DB14168096871
:103AA00091B10025311B2A46806800F003FB01F02C
:103AB00037F80028EFD106494FF080500860BFF377
:103AC0004F8FBFF36F8FF8BD0125EBE7B0000020EB
:103AD00004ED00E0074841680968002905D0416805
:103AE000C968C9684968016370474FF0FF310163D5
:103AF000704700007400002070B5054600F02AFFF2
:103B00000446074E3069844204D200F00BF80120CD
:103B1000286001E0002028603461204670BD00006C
:103B2000B0000020F8B5194E1FE0C0680568C468F1
:103B3000201D00F0C7F9616A20468847E069012826
:103B400013D1A0692844A84206D960602461211DD0
:103B5000306800F0D8F908E00020034601460090E4
:103B60002A46204601F066F840B130680168002915
:103B7000DBD13068716831607060F8BD502080F32F
:103B80001188BFF34F8FBFF36F8FFEE7B0000020A7
:103B900009484068401C07D0502080F31188BFF3CB
:103BA0004F8FBFF36F8FFEE7502080F31188BFF374
:103BB0004F8FBFF36F8FFEE7DC00002008B568462B
:103BC000FFF786FD0099FFF74FFFFFF7EBFEF6E7E3
:103BD0002DE9F041044600F0BBF994F9455004F199
:103BE000240609E0606A48B1304600F05DFF08B184
:103BF00000F000FB6D1E6DB2002DF3DC4FF0FF36C0
:103C000084F8456000F0C4F900F0A2F994F944503A
:103C100004F1100709E0206948B1384600F044FF7C
:103C200008B100F0E7FA6D1E6DB2002DF3DC84F8E8
:103C30004460BDE8F04100F0ABB900002DE9F0416F
:103C40000546002600F04CFB304F386808B9FFF7F6
:103C500051FDF86805424AD18DB1083568070ED08C
:103C600005F00700C0F108000544680707D05020A0
:103C700080F31188BFF34F8FBFF36F8FFEE7B5B3AB
:103C80007868854233D8214910310846046801E03C
:103C9000214604466068A84202D220680028F7D175
:103CA0003868844223D00E6808362068086060684F
:103CB000411B10290ED96019420707D0502080F30C
:103CC0001188BFF34F8FBFF36F8FFEE741606560D0
:103CD000FFF7D4FD61687868401A7860BA6890424E
:103CE00000D2B860F868014361600020206000F0F5
:103CF00017FF700707D0502080F31188BFF34F8F54
:103D0000BFF36F8FFEE73046BDE8F081C4000020AE
:103D100001480078704700007000002030B589B07D
:103D200001210420FDF7E0FD0121CC022046FDF732
:103D3000DBFDADF8204018208DF8230003208DF81E
:103D4000220008A91C48FCF751FF6320ADF81800B9
:103D50000720ADF814000024ADF81A40ADF8164065
:103D6000164D05A92846FDF7C1FF6021ADF80410E6
:103D70000120ADF80600ADF8084011480078ADF814
:103D80000A00ADF80C40ADF80E40ADF81040ADF8AB
:103D9000124001A92846FDF767FF01212846FDF7DB
:103DA00049FF08212846FDF793FF01212846FDF72A
:103DB0004DFF09B030BD000000080140002C01405B
:103DC00070000020002000F037B8000010B5FDF7AB
:103DD000A3FB0021102308A20846FDF72BFD1023AA
:103DE00008A219460020FDF725FDFFF791FFBDE869
:103DF000104000F021B8000050574D204D656E7501
:103E000000000000447574793A00000008B5FFF71F
:103E10007FFF024610200146009003233020FDF76B
:103E2000C5FC102301B003A219464E205DF804EB37
:103E3000FDF700BD25000000642800D96420034977
:103E4000087001460248FDF74DBF000070000020D9
:103E5000002C014020384FF08073C36121F0010134
:103E600081610249416140F820297047913B000877
:103E70007047000010B5FDF74FFB0021102306A28C
:103E80000846FDF7D7FC1023BDE8104006A21946EE
:103E90000020FDF7CFBC000055415254205265630D
:103EA0006569766500000000446174613A000000B5
:103EB000102302A219463020FDF7BCBC576169747B
:103EC000000000000169D0E901329A60D0E90123C5
:103ED0005A604A68824201D182684A6000220261C7
:103EE0000868401E08600868704700F108014160DA
:103EF0004FF0FF328260C1600161002101607047B4
:103F000000210161704730B50C68621C02D000F1DD
:103F1000080202E0026904E01A4653681D68A542DF
:103F2000FAD953684B6099608A60516008610168F2
:103F3000491C016030BD42684A6093688B60936899
:103F40005960916008610168491C01607047000078
:103F5000502080F31188BFF34F8FBFF36F8F0A4952
:103F60004868401C486001280CD10848006810F0DF
:103F7000FF0F07D0502080F31188BFF34F8FBFF39E
:103F80006F8FFEE770470000DC00002004ED00E0CA
:103F900009494868002806D0401E4860002801D121
:103FA00080F311887047502080F31188BFF34F8F42
:103FB000BFF36F8FFEE70000DC00002070B5002823
:103FC00027D008380446134D6068E968084207D1D5
:103FD000502080F31188BFF34F8FBFF36F8FFEE740
:103FE00022683AB1502080F31188BFF34F8FBFF39E
:103FF0006F8FFEE78843606000F072F9606869685F
:10400000084468602046FFF739FCBDE8704000F0C6
:1040100087BD70BDC40000204FF0E0200021016189
:10402000816105494FF47A720968B1FBF2F1491ECA
:1040300041610721016170470C00002010B5FCF7B9
:10404000C9F8114910280ED300F1E02090F8F003D0
:104050000A78904207D2502080F31188BFF34F8F27
:10406000BFF36F8FFEE709480068896800F4E060DD
:10407000884207D9502080F31188BFF34F8FBFF3D8
:104080006F8FFEE710BD0000DC0000200CED00E0AB
:1040900010B50022064B53F832401CB1521C082ABE
:1040A000F9D310BD43F8321003EBC201486010BDD4
:1040B0009C06002070B504460D461646FFF748FFE3
:1040C00094F944304FF000005B1C01D184F84400A7
:1040D00094F94510491C01D184F84500FFF758FFB9
:1040E000A06B28B93246294604F1240000F0A2F85A
:1040F0002046BDE87040FFF76BBD000010B50246DA
:104100000020002A12D00F48806B38B1502080F375
:104110001188BFF34F8FBFF36F8FFEE700F0E0F819
:1041200000211046FFF7C4F900F0FAFC002807D17F
:1041300005494FF080500860BFF34F8FBFF36F8F7A
:1041400010BD00007400002004ED00E070B50546CD
:104150000E460023002D0BD096B1204A906BB8B1CB
:10416000502080F31188BFF34F8FBFF36F8FFEE7AE
:10417000502080F31188BFF34F8FBFF36F8FFEE79E
:10418000502080F31188BFF34F8FBFF36F8FFEE78E
:1041900000F0A6F852692C68A119944205D98C4206
:1041A00008D9914206D9012304E08C4201D89142FA
:1041B00000D9012329601BB1881A0021FFF778F983
:1041C00000F0AEFC002807D105494FF08050086090
:1041D000BFF34F8FBFF36F8F70BD000074000020DE
:1041E00004ED00E002498A6A026049694160704753
:1041F00074000020014901204862704774000020CB
:1042000010B50C4600280AD0094909681831FFF793
:104210007AFE2046BDE810400121FFF749B9502041
:1042200080F31188BFF34F8FBFF36F8FFEE700005D
:104230007400002070B50D46144600280DD00B49BF
:1042400009681831FFF777FE0CB14FF0FF352146B2
:104250002846BDE87040FFF72BB9502080F3118845
:10426000BFF34F8FBFF36F8FFEE700007400002095
:104270001CB517480024CDE900402346802215A133
:10428000164800F029FB012801D100F0ADFC0128FF
:1042900009D0401C1AD1502080F31188BFF34F8FF2
:1042A000BFF36F8FFEE7502080F31188BFF34F8F6D
:1042B000BFF36F8F06484FF0FF313438016301219F
:1042C000C1614461BDE81C4000F046B81CBD00005F
:1042D000A800002049444C45000000004137000878
:1042E0000248816B491C8163704700007400002004
:1042F00010B5174B986B002802D00120586210BDF2
:10430000002058629869134901E0C0B1401E00EBDB
:10431000800251F82220002AF7D000EB800201EB46
:1043200082014A6852684A6001F10804A24201D140
:1043300052684A604968C9681960986110BD502088
:1043400080F31188BFF34F8FBFF36F8FFEE700003C
:1043500074000020DC0600201CB526490878019076
:10436000FF200870087800909DF800009DF800205C
:1043700000F0F000904207D0502080F31188BFF386
:104380004F8FBFF36F8FFEE79DF800001A4B00F0D0
:10439000500018700720986006E09868401E9860EA
:1043A0009DF80000400000909DF800000006F4D445
:1043B0009868032807D0502080F31188BFF34F8FEF
:1043C000BFF36F8FFEE74FF440709860019808705C
:1043D0000A48016841F470010160016841F07041D0
:1043E0000160FFF719FE00205860FBF7BDFE0020BA
:1043F0001CBD000000E400E0DC00002020ED00E037
:1044000010B5502080F31188BFF34F8FBFF36F8F2B
:1044100000F0A6FA18B104494FF08050086000205F
:1044200080F3118810BD000004ED00E0F8B50546EA
:104430000E461746002D11D0C6B105FB06F05030D0
:10444000FFF7FCFB04463CB104F150023B46314609
:1044500028460094FFF788F92046F8BD502080F3E5
:104460001188BFF34F8FBFF36F8FFEE70020E6E7A1
:1044700070B504460D46002C25D0FFF769FDD4E940
:104480000F20216802FB001161600021A1632168F7
:10449000A160E06B2268216C401E00FB0121E160FD
:1044A0004FF0FF3084F8440084F8450004F1100018
:1044B0008DB1FFF71AFD04F12400FFF716FDFFF799
:1044C00067FD012070BD502080F31188BFF34F8F2E
:1044D000BFF36F8FFEE721690029F0D000F0E4FA06
:1044E0000028ECD004494FF080500860BFF34F8F94
:1044F000BFF36F8FE3E7000004ED00E02DE9FF4715
:1045000082B004468A461E460025002C03D0BAF12C
:10451000000F08D011E0502080F31188BFF34F8FB7
:10452000BFF36F8FFEE7206C38B1502080F3118805
:10453000BFF34F8FBFF36F8FFEE7022E0AD1E06B00
:10454000012807D0502080F31188BFF34F8FBFF3AD
:104550006F8FFEE700F0F0F948B9049838B15020A9
:1045600080F31188BFF34F8FBFF36F8FFEE74FF0DB
:1045700000094FF08057DFF8E480FFF7E9FCA06BFB
:10458000E16B884205D3022E03D0049808B325B30B
:1045900027E0324651462046FFF758F8616A59B184
:1045A00004F1240000F080FA68B1C8F80070BFF38D
:1045B0004F8FBFF36F8F06E028B1C8F80070BFF3CC
:1045C0004F8FBFF36F8FFFF7E3FC012006B0BDE80C
:1045D000F087FFF7DDFC0020F8E76846FFF702FEF2
:1045E0000125FFF7D5FCFFF77BFEFFF7B1FC94F93F
:1045F0004400401C01D184F8449094F94500401CCB
:1046000001D184F84590FFF7C3FC04A9684600F087
:1046100025F930B12046FFF7DBFA00F081FA0020DF
:10462000D4E72046FFF781F990B104F11000049916
:10463000FFF7E6FD2046FFF7CBFA00F071FA0028FD
:104640009BD1C8F80070BFF34F8FBFF36F8F94E713
:104650002046FFF7BDFA00F063FA8EE704ED00E0B4
:104660002DE9F0470446894690461F46002C03D0AA
:10467000B9F1000F08D011E0502080F31188BFF38A
:104680004F8FBFF36F8FFEE7206C38B1502080F35F
:104690001188BFF34F8FBFF36F8FFEE7022F0AD150
:1046A000E06B012807D0502080F31188BFF34F8FB3
:1046B000BFF36F8FFEE7FFF7C1FC5020EFF31186C9
:1046C00080F31188BFF34F8FBFF36F8FA06BE16B47
:1046D000884206D3022F04D0002086F31188BDE85B
:1046E000F08794F945503A4649462046FEF7AEFF1A
:1046F000681C04D06D1C84F845500120EDE7606A09
:104700000028FAD004F1240000F0CEF90028F4D0FB
:10471000B8F1000FF1D00120C8F80000EDE700006B
:104720002DE9F74783B004468A460026002C03D0C3
:10473000BAF1000F08D011E0502080F31188BFF3C8
:104740004F8FBFF36F8FFEE7206C38B1502080F39E
:104750001188BFF34F8FBFF36F8FFEE700F0ECF8C7
:1047600048B9059838B1502080F31188BFF34F8FB6
:10477000BFF36F8FFEE700274FF08058DFF8D89027
:10478000FFF7E6FBA56BC5B151462046FEF74AFF91
:104790006D1EA563206950B104F1100000F084F98A
:1047A00028B1C9F80080BFF34F8FBFF36F8FFFF7B9
:1047B000EFFB012006B0BDE8F087059808B126B1EF
:1047C00007E0FFF7E5FB0020F4E701A8FFF70AFD8B
:1047D0000126FFF7DDFBFFF783FDFFF7B9FB94F937
:1047E0004400401C01D184F8447094F94500401CF9
:1047F00001D184F84570FFF7CBFB05A901A800F0B3
:104800002DF858B12046FFF7E3F900F089F920466A
:10481000FFF77EF80028B3D00020CBE72046FFF753
:1048200077F890B104F124000599FFF7E9FC2046E0
:10483000FFF7CEF900F074F90028A1D1C9F8008083
:10484000BFF34F8FBFF36F8F9AE72046FFF7C0F992
:1048500000F066F994E7000004ED00E02DE9F04176
:1048600005460C46002D11D0C4B1FFF771FB194E5F
:1048700070696B68C11A2268571C17D02F68B66A16
:10488000B74215D0834213D801241DE0502080F395
:104890001188BFF34F8FBFF36F8FFEE7502080F377
:1048A0001188BFF34F8FBFF36F8FFEE700240BE03B
:1048B0008A4206D9501A20602846FFF793FC00244C
:1048C00002E0002020600124FFF762FB2046BDE8E3
:1048D000F0810000740000202DE9FF5F8146DDE9D2
:1048E0000E788A4616469B46B000FFF7A7F90546A4
:1048F00028000AD05C20FFF7A1F904460CB125631B
:1049000004E02846FFF75AFB00E000248CB10020A9
:10491000CDE90240CDE900785B4632465146484633
:10492000FEF733FF2046FEF7F3FD012004B0BDE89B
:10493000F09F4FF0FF30F9E70548C169002903D027
:10494000806B18B10020704701207047022070472B
:104950007400002001484069704700007400002086
:104960002DE9F04100262F4FB86B002808D0386A97
:10497000401C3862786A00B101263046BDE8F081FB
:104980007D696D1C7D619DB97868006838B15020E3
:1049900080F31188BFF34F8FBFF36F8FFEE7786806
:1049A000B9687960B860B86A401CB862FFF792F8DD
:1049B000386BDFF8748085420DD37868006838B1B1
:1049C0007868C068C468606885420ED2386302E0C7
:1049D0004FF0FF3038633868C06A00EB800058F849
:1049E00020000128C6D90126C4E7201DFFF76AFA76
:1049F000A06A18B104F11800FFF764FAE06AB96917
:104A0000884200D9B86100EB800008EB8000211DCE
:104A1000FFF791FAE06A3968C96A8842CDD3012666
:104A2000CBE7000074000020DC06002070B50446CF
:104A30000020002C2BD01A4D29688C4207D0502022
:104A400080F31188BFF34F8FBFF36F8FFEE7216DA7
:104A5000F1B1491E2165E36CE26A9A4217D0002940
:104A600015D1201DFFF72EFAE06CE062C0F138008E
:104A7000A061E06AA969884200D9A861094900EBF0
:104A8000800001EB8000211DFFF755FA012070BD69
:104A9000502080F31188BFF34F8FBFF36F8FFEE775
:104AA00074000020DC06002070B5C068C468002CCB
:104AB00014D004F118000646FFF704FA154DAA6B4E
:104AC000A2B131461448FFF736FAE06A2968C96A8C
:104AD00088421CD901200121696270BD502080F3F9
:104AE0001188BFF34F8FBFF36F8FFEE7201DFFF7D5
:104AF000E9F9E06AA969884200D9A861074900EB91
:104B0000800001EB8000211DFFF715FADDE7002092
:104B100070BD000074000020640B0020DC06002043
:104B20002DE9F041002400272B4DA86B002807D069
:104B3000FFF70EFAA86B401EA863A86B40B146E0D1
:104B4000502080F31188BFF34F8FBFF36F8FFEE7C4
:104B50002869E0B3DFF8848001261CE0D8F80C0057
:104B6000C46804F11800FFF7ADF9201DFFF7AAF99A
:104B7000E06AA969884200D9A861194900EB800060
:104B800001EB8000211DFFF7D6F9E06A2968C96AA8
:104B9000884200D36E62D8F800000028DED10CB144
:104BA000FEF798FF2C6A44B1FFF7DAFE00B16E629F
:104BB000641E002CF8D100202862686A38B10127F1
:104BC000084938070860BFF34F8FBFF36F8FFFF7B7
:104BD000DFF93846BDE8F08174000020640B002046
:104BE000DC06002004ED00E01CB50024FEF7D4FC38
:104BF0000C48806858B10B4802210C30CDE90010F8
:104C0000CA01002308A10A48FFF766FE04460CB15A
:104C100020461CBD502080F31188BFF34F8FBFF397
:104C20006F8FFEE7B0000020546D72205376630052
:104C3000BD3B00082DE9FF4106460A9F9C46002027
:104C4000002E15D0154DAC68002C0ED000910192AD
:104C5000029606291BDAFFF76FFE022810D0002308
:104C60001A466946A868FFF749FC04B0BDE8F08120
:104C7000502080F31188BFF34F8FBFF36F8FFEE793
:104C800000233A466946A868FFF738FCEDE70023A1
:104C9000624669462046FFF7E3FCE6E7B0000020E5
:104CA0000000000000000000000000000000000004
:104CB0003F400000000000000000300040003000D5
:104CC0004000000009000BC03D000BC03D00090082
:104CD00018C024407FE0224031800000180024C02A
:104CE0001B000D803240018003801C4027401C8047
:104CF00007400040100060000000000000000000BD
:104D00000000000000001F802040402000004020E4
:104D100020401F8000000000090006001F800600E0
:104D200009000000040004003F80040004000000AB
:104D300000100060000000000000000004000400FB
:104D40000400040004000000000000400000000017
:104D500000000000002001C00600380040000000F4
:104D60001F802040204020401F8000000000104095
:104D70003FC000400000000018C0214022402440F5
:104D80001840000010802040244024401B80000078
:104D900002000D0011003FC0014000003C80244093
:104DA00024402440238000001F80244024403440BD
:104DB000038000003000200027C0380020000000E1
:104DC0001B802440244024401B8000001C0022C083
:104DD000224022401F800000000000000840000028
:104DE000000000000000000004600000000000005F
:104DF000000004000A001100208040400900090062
:104E00000900090009000000000040402080110056
:104E10000A000400180020002340240018000000AD
:104E20001F802040274029401F400000004007C04D
:104E300039000F0001C0004020403FC02440244002
:104E40001B8000001F802040204020403080000058
:104E500020403FC0204020401F80000020403FC035
:104E600024402E4030C0000020403FC024402E008F
:104E7000300000000F0010802040224033800200EC
:104E800020403FC0040004003FC02040204020409C
:104E90003FC02040204000000060202020203FC074
:104EA0002000200020403FC024400B0030C02040A4
:104EB00020403FC020400040004000C03FC03C00B8
:104EC00003C03C003FC0000020403FC00C40230016
:104ED0003FC020001F802040204020401F80000055
:104EE00020403FC024402400180000001F802140C3
:104EF000214020E01FA0000020403FC024402600A9
:104F000019C0004018C024402440224031800000D5
:104F1000300020403FC020403000000020003F8093
:104F2000004000403F80200020003E0001C00700FC
:104F300038002000380007C03C0007C038000000DF
:104F4000204039C0060039C0204000002000384011
:104F500007C0384020000000304021C026403840C3
:104F600020C00000000000007FE040204020000042
:104F7000000070000C000380004000000000402092
:104F800040207FE0000000000000200040002000E2
:104F900000000000001000100010001000100010B1
:104FA000000000004000000000000000000002803F
:104FB0000540054003C0004020003FC004400440BD
:104FC000038000000000038004400440064000000D
:104FD00000000380044024403FC0004000000380E4
:104FE0000540054003400000000004401FC024406D
:104FF00024402000000002E0055005500650042027
:1050000020403FC00440040003C0004000000440B2
:1050100027C000400000000000100010041027E02E
:105020000000000020403FC00140070004C00440D1
:10503000204020403FC000400040000007C0040066
:1050400007C0040003C00000044007C0044004007F
:1050500003C00040000003800440044003800000BF
:10506000041007F004500440038000000000038097
:105070000440045007F00010044007C00240040040
:1050800004000000000006400540054004C0000088
:10509000000004001F80044000400000040007805E
:1050A0000040044007C000400400070004C0018025
:1050B00006000400060001C0070001C00600000051
:1050C000044006C0010006C00440000004100710A0
:1050D00004E00180060004000000044005C0064012
:1050E000044000000000000004007BE040200000BD
:1050F000000000000000FFF0000000000000402061
:105100007BE0040000000000400080004000200020
:10511000200040000000000000000000000000002F
:10512000000000000000000000001FCC000C000088
:10513000000000000000080030006000080030009F
:1051400060000000022003FC1E20022003FC1E2041
:105150000220000000000E1811043FFF10840C789C
:10516000000000000F0010840F3800C0077818847A
:105170000078000000780F8410C411240E9800E419
:1051800000840008080068007000000000000000B3
:105190000000000000000000000007E018182004D4
:1051A00040020000000040022004181807E0000040
:1051B000000000000240024001800FF00180024028
:1051C000024000000080008000800FF80080008016
:1051D000008000000001000D000E00000000000033
:1051E000000000000000008000800080008000803F
:1051F000008000800000000C000C00000000000097
:105200000000000000000006001800600180060099
:1052100018002000000007F0080810041004080817
:1052200007F000000000080408041FFC000400044C
:105230000000000000000E0C101410241044118413
:105240000E0C000000000C18100411041104128848
:105250000C700000000000E00320042408241FFC60
:105260000024000000001F9810841104110410880D
:1052700010700000000007F008881104110418885D
:105280000070000000001C00100010FC13001C0047
:105290001000000000000E381144108410841144E6
:1052A0000E38000000000700088C104410440888E5
:1052B00007F00000000000000000030C030C0000D9
:1052C00000000000000000000001010600000000D6
:1052D00000000000000000800140022004100808C7
:1052E00010040000022002200220022002200220DE
:1052F00002200000000010040808041002200140F1
:105300000080000000000E001200100C106C1080D5
:105310000F00000003E00C1813E4142417C408283D
:1053200007D000000004003C03C41C40074000E418
:10533000001C000410041FFC1104110411040E8849
:105340000070000003E00C18100410041004100892
:105350001C10000010041FFC1004100410040808A6
:1053600007F0000010041FFC1104110417C41004FE
:105370000818000010041FFC1104110017C01000D1
:105380000800000003E00C181004100410441C78FE
:105390000040000010041FFC108400800080108476
:1053A0001FFC10040000100410041FFC1004100463
:1053B0000000000000030001100110011FFE10009A
:1053C0001000000010041FFC110403801464181C5A
:1053D0001004000010041FFC10040004000400046A
:1053E000000C000010041FFC1F0000FC1F001FFC2D
:1053F0001004000010041FFC0C04030000E010184F
:105400001FFC100007F0080810041004100408081E
:1054100007F0000010041FFC108410801080108022
:105420000F00000007F0081810241024101C080AB0
:1054300007F2000010041FFC1104110011C011300C
:105440000E0C000400000E1C110410841084104483
:105450001C3800001800100010041FFC100410007D
:105460001800000010001FF81004000400041004CD
:105470001FF8100010001E0011E0001C00701380C7
:105480001C0010001FC0103C00E01F0000E0103C9A
:105490001FC000001004180C163401C001C01634DF
:1054A000180C100410001C00130400FC13041C0052
:1054B000100000000804101C1064108413041C0465
:1054C000101800000000000000007FFE40024002B3
:1054D00040020000000030000C0003800060001C4F
:1054E0000003000000004002400240027FFE000076
:1054F00000000000000000002000400040004000CC
:105500002000000000010001000100010001000175
:1055100000010001000040004000200000000000E9
:1055200000000000000000980124014401440144EF
:1055300000FC000410001FFC008801040104008826
:1055400000700000000000700088010401040104E4
:1055500000880000000000700088010401041108A8
:105560001FFC0004000000F8014401440144014410
:1055700000C800000000010401040FFC1104110424
:1055800011001800000000D601290129012901C9D4
:105590000106000010041FFC00840100010001044A
:1055A00000FC000400000104190419FC00040004BC
:1055B000000000000000000300010101190119FEB4
:1055C0000000000010041FFC0024004001B4010C86
:1055D000010400000000100410041FFC000400047B
:1055E00000000000010401FC0104010001FC0104B1
:1055F000010000FC010401FC008401000100010421
:1056000000FC0004000000F801040104010401048E
:1056100000F80000010101FF008501040104008879
:105620000070000000000070008801040104010502
:1056300001FF00010104010401FC008401040100D8
:1056400001800000000000CC012401240124012479
:105650000198000000000100010007F801040104A6
:1056600000000000010001F800040004000401082B
:1056700001FC0004010001800170000C00100160B9
:105680000180010001F0010C003001C00030010C6C
:1056900001F0010000000104018C00740170018C14
:1056A00001040000010101810171000E0018016078
:1056B0000180010000000184010C013401440184D7
:1056C000010C0000000000000000000001003EFC92
:1056D000400240020000000000000000FFFF000048
:1056E000000000000000400240023EFC01000000FB
:1056F00000000000000060008000800040004000CA
:105700002000200000000000000000000000000059
:105710000000000000000000000000000000000089
:105720000000000000000000000000000000000079
:10573000000000000000000F80380FFE380F803896
:105740000000000000000000000000000000000059
:1057500000000100000600000C00003800003100CD
:10576000000600000C0000380000300000000000BF
:105770000000000061800067F807F9800061800088
:1057800061800061800061800067F807F980006136
:105790008000000000000000000001C0E003E0F015
:1057A0000630080418081FFFFE040E080787F003E0
:1057B00081E000000000000001F000060C0004047D
:1057C00008060C7001F9C0000E00003BE000EC1868
:1057D000070808040C180003E00000000001E000C6
:1057E00007F003F818041C0804170807E1D003C0E9
:1057F000E00023B0003C080020080000100000007A
:105800000000000100003100003200001C00000018
:105810000000000000000000000000000000000088
:105820000000000000000000000000000000000078
:10583000000000007F0001FFC00780F00C0018107E
:105840000004200002000000000000200002100000
:10585000040C00180780F001FFC0007F000000006A
:105860000000000000000000000000000000000038
:105870004200006600006600003C0000180003FFC4
:10588000C0001800003C00006600006600004200F6
:1058900000000000080000080000080000080000E8
:1058A000080001FFC0000800000800000800000810
:1058B000000008000000000000010000310000327C
:1058C00000001C00000000000000000000000000BC
:1058D00000000000000000000000000008000008B8
:1058E0000000080000080000080000080000080090
:1058F0000008000008000008000000000000000090
:1059000000000000380000380000380000000000EF
:105910000000000000000000000000000000000087
:1059200000000000000600001C0000700001800064
:105930000E0000380000C0000700001C000030000E
:1059400000000000000000007F8001FFE003807085
:1059500006001804000804000806001803807001FF
:10596000FFE0007F80000000000000000000010058
:105970000801000801000803FFF807FFF80000080D
:105980000000080000080000000000000000000106
:10599000C03802C058040098040118040218040416
:1059A00018061C1803F81801E0F8000000000000B9
:1059B00000000001C0E003C0F0040008040808046F
:1059C000080806180803F41801E7F00001E00000D9
:1059D00000000000000000000300000D00001100A6
:1059E00000610000810803010807FFF80FFFF800BD
:1059F00001080001080000000000000000E007FCB2
:105A0000D006080806100806100806100806183800
:105A1000060FF00607C000000000000000000000B4
:105A20003F8001FFE00384300208180410080410CE
:105A300008041008071810030FF00007C00000004A
:105A400000000000000003C0000700000600000680
:105A500000F80607F806180006E000070000060038
:105A60000000000000000001E1E003F7F006341040
:105A7000041808041808040C08040C080616180377
:105A8000F3F001C1E000000000000000F80003FC9A
:105A90003003063804020804020804020804041053
:105AA0000308F001FFC0007F0000000000000000BC
:105AB00000000000000000000000000070380070CE
:105AC00038007038000000000000000000000000F6
:105AD00000000000000000000000000000000000C6
