:020000040800F2
:10000000D84F0020DD0100087F140008A90C00086B
:100010007D14000809090008692300080000000099
:100020000000000000000000000000004501000882
:10003000EB0B000800000000890100087D1B000890
:10004000F7010008F7010008F7010008F7010008B0
:10005000F7010008F7010008F7010008F7010008A0
:10006000F7010008F7010008F7010008F701000890
:10007000F7010008F7010008F7010008610900080E
:10008000F7010008F7010008F7010008F701000870
:10009000F7010008F7010008F7010008F701000860
:1000A000F7010008F7010008F7010008F701000850
:1000B000F7010008F7010008F7010008F701000840
:1000C000F7010008F7010008F7010008F701000830
:1000D000F7010008791E00086D210008F7010008EB
:1000E000F7010008F7010008F7010008F701000810
:1000F000F7010008F7010008F7010008F701000800
:10010000F7010008F7010008F7010008F7010008EF
:10011000F7010008F7010008F7010008F7010008DF
:10012000F7010008F7010008F7010008F7010008CF
:10013000DFF80CD000F01AFB004800471D33000820
:10014000D84F0020224B19680868B0E8F00F80F300
:100150000988BFF36F8F4FF0000080F311884EF0D5
:100160000D0E70470000000006480068006880F32C
:10017000088862B661B6BFF34F8FBFF36F8F00DFA1
:1001800000BF00BF08ED00E0EFF30980BFF36F8F01
:100190000F4B1A6820E9F00F106008B54FF05000BF
:1001A00080F31188BFF34F8FBFF36F8F04F05AFABB
:1001B0004FF0000080F31188BDE808401968086816
:1001C000B0E8F00F80F30988BFF36F8F704700BF6E
:1001D00080000020EFF3058070470000064880474C
:1001E00006480047FEE7FEE7FEE7FEE7FEE7FEE71C
:1001F000FEE7FEE7FEE7FEE7011C0008310100080C
:1002000040EA01039B0703D009E008C9121F08C098
:10021000042AFAD203E011F8013B00F8013B521E18
:10022000F9D27047D2B201E000F8012B491EFBD28F
:1002300070470022F6E710B513460A4604461946F1
:10024000FFF7F0FF204610BD2DE9FE4F81EA0304C1
:1002500004F0004421F0004100944FF0000B23F023
:10026000004350EA01045ED052EA03045BD0C3F3BA
:100270000A54C1F30A552C44A4F2F3340194A0FBB0
:100280000254C1F3130141F48011C3F3130343F487
:10029000801301FB024400FB034E840A970A44EAE0
:1002A000815447EA8357A4FB076802958D0A05FB32
:1002B00007854FEA932C04FB0C542705029D4FEA57
:1002C000065847EA1637B5EB08056EEB070C870EA4
:1002D000920E47EA811742EA8312A7FB0201B6EBAE
:1002E0000B0164EB00042B0D43EA0C335E1844EB66
:1002F0001C50DA465146E7FB0201C5F313044FEAEE
:100300000B3343EA14534FEA0432019C43EA0603D9
:10031000A4F10C040294009CCDE900B400F092F822
:1003200003B0BDE8F08F00200146F9E70EB540F2BA
:10033000334102910021CDE900110A460B4600F03D
:1003400081F803B000BDC1F30A5210B5C1F3130127
:1003500040F2FF3341F480119A4201DA002010BDCF
:1003600040F233439A42A2F2334203DC524200F09D
:100370004AF810BD904010BD30B50B460146002034
:100380002022012409E021FA02F59D4205D303FA57
:1003900002F5491B04FA02F52844151EA2F10102D8
:1003A000F1DC30BD2DE9F05F0546002092469B460A
:1003B00088460646814640241BE02846414647467B
:1003C000224600F020F853465A46C01A914110D3F5
:1003D00011461846224600F0DBF92D1A67EB01089A
:1003E0004F4622460120002100F0D2F917EB000908
:1003F0004E41201EA4F10104DFDC484631462A4666
:100400004346BDE8F09F202A04DB203A21FA02F09F
:100410000021704721FA02F3D040C2F1200291403E
:1004200008431946704710B5141E73F1000408DA2A
:10043000401C41F1000192185B411A4301D120F0A8
:10044000010010BD2DE9F04D92469B4611B1B1FA65
:1004500081F202E0B0FA80F22032904600F098F982
:1004600004460F4640EA0A0041EA0B0153465A4649
:10047000084313D0114653EA010019D0C8F14002D5
:100480005046FFF7C0FF05460E46504659464246C5
:1004900000F07EF9084305D0012004E020463946EB
:1004A000BDE8F08D0020054346EAE0762C43374353
:1004B0000A986305E40AA0EB08000022FD0A44EA5A
:1004C00047540A3002D500200146E9E7010510191A
:1004D0006941DDE9084500196941BDE8F04DA2E731
:1004E0002DE9FE4F804681EA0300C00F0C460090C4
:1004F00021F0004123F00045B8EB0200A94105D2EC
:100500004046214690461C460B46024623F00040DA
:10051000104347D0270DC7F30A00C3F30A510290D6
:10052000401A019040286BDAC3F3130040F4801B9B
:100530000098924620B10023D2EB030A63EB0B0B29
:1005400001985946C0F14002504600F021F9064694
:100550000D4650465946019A00F029F910EB080063
:100560006141002487EA115284EAE7731A4340D0BC
:10057000009A62B3019A012A4FEA075215DC001B68
:1005800061EB02014FF0004202EA0752CDE900425E
:10059000001C41F5801132462B46FFF753FF03B094
:1005A000BDE8F08F40462146F9E7001B61EB0201F0
:1005B000001C41F5801300185B412018A2F50017BC
:1005C00047EB030140EAD570B6196D4111E06D08A3
:1005D0004FEA360645EAC0754FEA0752001B61EB49
:1005E0000201001C41F5801149084FEA3000001952
:1005F000514132462B4603B0BDE8F04FFFF713BF21
:100600000098012240000023D0EB020263EBE0736C
:10061000009821464FEAE074B8EB000061EB04015A
:10062000E9E783F000435BE781F0004158E72DE9FB
:10063000F04D81EA030404F0004B21F0004514461C
:100640004FF0000A23F0004150EA050220D054EA9E
:1006500001021DD0C5F30A570246C5F31303C1F3C7
:100660001300C1F30A5640F4801543F48013A7EB3E
:100670000608101BD64608F2FD3873EB050002D3BE
:1006800008F1010801E092185B41B8F1000F03DAAC
:1006900000200146BDE8F08D00204FF48011064691
:1006A00084460EE0171B73EB050705D3121B63EBA3
:1006B000050306434CEA010C49084FEA3000921842
:1006C0005B4150EA0107EDD152EA030012D082EA01
:1006D000040083EA0501084305D0101BAB4106D294
:1006E0000122002306E000224FF0004302E06FF0F9
:1006F000010253101AEB06004CEB085110EB0A00F4
:1007000041EB0B01BDE8F04DFFF78DBEC1F30A527E
:10071000C1F3130140F2FF3341F480119A4202DA2F
:1007200000200146704740F233439A42A2F233421E
:1007300002DC5242FFF767BE00F02AB830B5041E53
:1007400071F1000404DB4FF00044404264EB01010E
:10075000141E73F1000405DB1C464FF000435242A7
:1007600063EB0403994208BF904230BD064C074D2D
:1007700006E0E06840F0010394E807009847103471
:10078000AC42F6D3FFF7D8FCD4670008F467000842
:10079000202A04DB203A00FA02F100207047914041
:1007A000C2F1200320FA03F3194390407047202A36
:1007B00006DBCB17203A41FA02F043EAE07306E089
:1007C00041FA02F3D040C2F1200291400843194699
:1007D0007047002904D0816841F0010181607047B1
:1007E000816821F0010181607047002904D081688F
:1007F00041F4807181607047816821F4807181606B
:100800007047014600208968490700D501207047DC
:10081000014600208968090700D5012070470000C3
:1008200010B542680E4B1A400C790B6842EA04225C
:100830001343436082680B4B1A40D1E902432343C0
:100840004C7942EA440213438360C26A22F4700284
:10085000097C491EC9B242EA0151C16210BD0000C3
:10086000FFFEF0FFFDF7F1FF70B5072609290AD951
:10087000C568A1F10A0404EB4404A640B543A340B3
:100880001D43C56007E0056901EB4104A640B5437F
:10089000A3401D4305611F23072A09D2446B521E42
:1008A00002EB820293409C4391400C43446370BD31
:1008B0000D2A09D2046BD21F02EB820293409C43A3
:1008C00091400C43046370BDC46A0D3A02EB82028E
:1008D00093409C4391400C43C46270BD816841F0D9
:1008E000080181607047002904D0816841F4A001AB
:1008F00081607047816821F4A00181607047816840
:1009000041F0040181607047FEE710B501F008F87E
:10091000012001F0A5F8212001F078F80028FAD094
:10092000002001F093F84FF4806001F09FF8002060
:1009300001F0A6F84FF42011002001F0B1F80120D9
:1009400001F0A8F8392001F061F80028FAD002205F
:1009500001F0B0F801F072F80828FBD110BD0000DA
:1009600010B54FF40034204600F0D2F8012810D022
:100970006400204600F0CCF8012815D06400204621
:1009800000F0C6F801281AD12046BDE8104000F05A
:1009900025B80B4A4021A2F1400000F0F4F82046AF
:1009A000BDE8104000F01AB8054A4021A2F18000CD
:1009B00000F0E9F82046BDE8104000F00FB810BD87
:1009C0004C020020C10002D502490860704702496C
:1009D000486070470404024000000240C10002D594
:1009E00002490860704702494860704704040240A9
:1009F00000000240002904D0016841F001010160BB
:100A0000704701684FF6FE721140016070470000A8
:100A100001684FF6FE7211400160002101604160E3
:100A20008160C1603649364A0839904204D148682D
:100A300040F00F0048607047314A1432904204D1B0
:100A4000486840F0F000486070472D4A28329042D4
:100A500004D1486840F4706048607047284A3C32CE
:100A6000904204D1486840F4704048607047244A7E
:100A70005032904204D1486840F47020486070477A
:100A80001F4A6432904204D1486840F470004860C4
:100A900070471B4A7832904204D1486840F0706039
:100AA00048607047174A111F904204D1086840F00F
:100AB0000F0008607047134A1432904204D108684E
:100AC00040F0F000086070470E4A2832904204D18E
:100AD000086840F47060086070470A4A3C329042EF
:100AE00004D1086840F4704008607047054A5032ED
:100AF0009042FAD1086840F4702008607047000006
:100B00000800024008040240406880B270470000BC
:100B100002460020D10002D50449096801E00449D9
:100B20000968114200D00120704700000004024013
:100B300000000240002A03D002680A4302607047A6
:100B400002688A430260704730B5026847F6F07366
:100B50009A430C6A8B682343D1E904452C43234311
:100B60008C692343CC6923434C6A23438C6A234317
:100B700013430360CA6842600A6882604968C160C2
:100B800030BD416070472DE9F04107460D461446DF
:100B9000002F11D0002C0FD0D4F800044119B1F56A
:100BA000806F0BD220442A463946FFF729FBD4F840
:100BB00000042844C4F80004BDE8F081C0F5806654
:100BC000204432463946FFF71BFBAA1B1546B919CC
:100BD0002046FFF715FBC4F80054D4F804048542FE
:100BE000EAD3012084F80804E6E770472DE9F041D4
:100BF0000022CC7804F00F03E40601D58C7823435F
:100C00000C784FF00F0714F0FF0F4FF0010C1CD0C1
:100C100005680CFA02F40E882640A64211D196000F
:100C200007FA06F825EA080503FA06F848EA050572
:100C3000CE78282E02D0482E02D002E0446100E097
:100C40000461521C082AE4D305600A88FF2A1ED9D1
:100C50004568002202F108060CFA06F40E882640C8
:100C6000A64210D1960007FA06F825EA080503FA0D
:100C700006F848EA0505CE78282E00D14461CE78E2
:100C8000482E00D10461521C082AE3D34560BDE818
:100C9000F0810246002092680A4200D0012070478D
:100CA0004161704701617047FEE7000070B5104C6C
:100CB0004FF4007631462046FFF7F4FFA51529468C
:100CC0002046FFF7EFFF002200BF521C082AFBD38B
:100CD00031462046FFF7E4FF002200BF521C082ADD
:100CE000FBD329462046BDE87040FFF7D9BF00007E
:100CF000000C014070B50D4C4FF40075294620469C
:100D0000FFF7CEFFA1152046FFF7CCFF002200BF62
:100D1000521C082AFBD329462046FFF7C3FF0020B8
:100D200000BF401C0828FBD370BD0000000C014030
:100D30002DE9F0410024194E4FF400773946304632
:100D4000FFF7B0FF002100BF491C0829FBD34FF477
:100D5000807529463046FFF7A5FF002200BF521CD0
:100D6000082AFBD30DE0641CE4B2FA2C04D9FFF787
:100D7000C1FF0120BDE8F081002200BF521C082AFB
:100D8000FBD339463046FFF784FF0028EBD12946D4
:100D90003046FFF785FF0020ECE70000000C014023
:100DA0002DE9F04105460024144F4FF40078BE159C
:100DB000280604D541463846FFF774FF03E0414654
:100DC0003846FFF76DFF6806050E31463846FFF7D7
:100DD00069FF002200BF521C082AFBD33146384667
:100DE000FFF75EFF002100BF491C0829FBD3641CEC
:100DF000E4B2082CDCD3BDE8F0810000000C014017
:100E000008B5002402F032FA002201210A2003F082
:100E1000C7FC0A4D286002F033FA009038B1A042B6
:100E200005D000231A466946286803F021FD9DF885
:100E30000040142003F01CFBEDE700000000002040
:100E4000F8B54FF40045ADF8005010248DF803407C
:100E500003208DF80200104E69463046FFF7C6FEAB
:100E600029463046FFF71EFFA502ADF800508DF869
:100E7000034069463046FFF7B9FE29463046FFF782
:100E80000FFF6102ADF8001004218DF803106946D0
:100E90003046FFF7ABFEF8BD000C0140F8B54FF44B
:100EA0000045ADF8005010248DF8034003208DF864
:100EB0000200104E69463046FFF798FE294630463C
:100EC000FFF7EEFEA502ADF800508DF8034069462D
:100ED0003046FFF78BFE29463046FFF7E3FE6102FE
:100EE000ADF8001004218DF8031069463046FFF775
:100EF0007DFEF8BD000C0140F8B54FF40055ADF88B
:100F0000005010248DF8034003208DF80200104E8D
:100F100069463046FFF76AFE29463046FFF7C2FEB3
:100F2000E502ADF800508DF8034069463046FFF702
:100F30005DFE29463046FFF7B3FEA102ADF8001072
:100F400004218DF8031069463046FFF74FFEF8BDC7
:100F5000000C0140F8B54FF40055ADF800501024D6
:100F60008DF8034003208DF80200104E694630468C
:100F7000FFF73CFE29463046FFF792FEE502ADF84A
:100F800000508DF8034069463046FFF72FFE294692
:100F90003046FFF787FEA102ADF8001004218DF85E
:100FA000031069463046FFF721FEF8BD000C0140F2
:100FB000F8B54FF48045ADF8005010248DF803408B
:100FC00003208DF80200104E69463046FFF70EFEF2
:100FD00029463046FFF766FE6502ADF800508DF8F1
:100FE000034069463046FFF701FE29463046FFF7C9
:100FF00057FEE102ADF8001004218DF80310694698
:101000003046FFF7F3FDF8BD000C0140F8B54FF492
:101010000055ADF8005010248DF8034003208DF8E2
:101020000200104E69463046FFF7E0FD2946304683
:10103000FFF738FEA502ADF800508DF80340694671
:101040003046FFF7D3FD29463046FFF729FEE1027F
:10105000ADF8001004218DF8031069463046FFF703
:10106000C5FDF8BD000C01400EB503228DF800202F
:101070008DF80100ADF802100020ADF80400ADF8C5
:101080000600029004488068002804D000231A4615
:10109000694603F0EDFB0EBD000000201FB54FF4C4
:1010A0007A61322000F0A8F803F00EFE03901B4C8A
:1010B00000226946A06803F0EDFC012824D19DF8C8
:1010C0000000052820D2DFE800F003080B0F16000F
:1010D0009DF8010000F0B4F816E000F0ABF813E062
:1010E000029800F09DF80FE0BDF802109DF8010095
:1010F00000F082F808E0BDF80420BDF806109DF865
:101100000100029B00F066F8012103A803F0D8F962
:1011100000F0B6F802A001F0FDF9C9E700000020D8
:10112000310000002DE9F8430121182000F0EAFB0E
:101130004FF40057ADF8007010248DF803400325DC
:101140008DF80250214E69463046FFF74FFD394673
:101150003046FFF7A7FD4020ADF800008DF80340B2
:101160008DF80250DFF8688069464046FFF73EFD83
:1011700040214046FFF794FDE602ADF800608DF88F
:1011800003408DF8025069464046FFF72FFD314677
:101190004046FFF787FDA602ADF800608DF80340DA
:1011A0008DF8025069464046FFF720FD3146404623
:1011B000FFF776FDADF8007004208DF80300694656
:1011C0004046FFF713FDBDE8F88300000010014022
:1011D000000C014030B5074C0425257060700029D3
:1011E00000D1C821E181A28163610020A061208239
:1011F000A07030BD4C000020084A03231370002863
:1012000000D10120507009B94FF47A71518100204A
:1012100090610121D1709070704700004C00002057
:10122000034902220A704861002088618870704773
:101230004C00002001490120087070474C0000203C
:10124000024900220A704870887070474C000020E4
:1012500038B54FF46044ADF8004010208DF803001D
:1012600003208DF80200054D69462846FFF7BEFCB5
:1012700021462846FFF714FD38BD0000000C014050
:1012800070B5694D00242878052806D2DFE800F003
:10129000030608156A006878A8709FE0AC709DE0AE
:1012A000A869401CA861696929B1884203D369898A
:1012B0006878FFF7A1FFAC7090E0E969491CE9612B
:1012C0006889814200D3EC61E969C1EB014100B951
:1012D0000120B1FBF0F080B2FF21B0F5804F03D2C6
:1012E000C0EB0020800B1EE0B0F5004F07D2A0F548
:1012F0008040C0EB00208000A1EB204013E0B0F55F
:10130000404F07D2A0F50040C0EB002040F38F30E3
:10131000404208E0A0F54040C0EB002080006FF0A4
:10132000FE0202EB2040002800DA404280B2404337
:10133000FF30B0FBF1F268784243FF32B2FBF1F1CB
:10134000CEB2AE70FEF7F2FF384A394BFEF77CFFA3
:10135000FEF7F9FF80B200B9012026B386423DD2E4
:10136000AC703BE0A869401CA861E98901B9C821BB
:10137000AA89CAB1884231D3AC61287A28B1002049
:10138000287220B16878A87028E00120F8E7AC70D6
:10139000288A401C80B2288290421FD32C826989FF
:1013A0006878FFF729FF19E06A6988420BD3AC61BE
:1013B000287A28B10020287220B16878A87002E04D
:1013C0000120F8E7AC70286A401C286232B19042D4
:1013D00004D32C6269896878FFF70EFFA879401C56
:1013E000C1B2A9716879814212D3AC71A978414325
:1013F0006A8A114489B26423B1FBF3F2D2B2EA7172
:10140000824200D9E871B1FBF3F003FB101068824F
:10141000A879E979884203D2BDE8704001F064BF41
:10142000BDE8704001F05EBF4C0000209A99999988
:101430009999A93F0EB500200290019000F0BCF8E8
:1014400000F07EFE02F0F4F80B4C0A2201A902A87B
:1014500000F0FCFD10B9029802F06AFF02F060F99A
:1014600000226946206803F015FB0128EDD19DF8A4
:10147000000002F001F8E8E700000020FEE77047F6
:1014800070B50F23C27801260178002A1ED0144AB5
:10149000126802F4E062C2F5E062120AC2F10404CA
:1014A000D3404578A54082781A402A43120101F1C1
:1014B000E02181F80024007800F01F018E404009EF
:1014C000800000F1E020C0F8006170BD01F01F0055
:1014D00086404809800000F1E020C0F8806170BDBE
:1014E0000CED00E002490843024908607047000023
:1014F0000000FA050CED00E00907090E002806DAE5
:1015000000F00F0000F1E02080F8141D704700F19A
:10151000E02080F80014704730B40021084B00220E
:10152000002003EBC0046254401CC0B28028F8D3F2
:10153000491CC9B20829F3D330BC00F0ABB8000095
:10154000D447002010B57F2813D83F2911D807238E
:10155000A3EBD103DBB201F00701C1F107040121C4
:10156000A140C9B2054C04EBC0001AB1C25C0A43E9
:10157000C25410BDC25C8A43C25410BDD44700207F
:1015800038B50121082000F0BDF94FF44074ADF8E2
:10159000004014208DF8030003208DF80200054D53
:1015A00069462846FFF722FB21462846FFF77AFBCB
:1015B00038BD0000000C014010B5FFF7E1FFC82066
:1015C00002F056FF0021AE2000F05EF90021D52088
:1015D00000F05AF90021802000F056F90021A820DF
:1015E00000F052F900213F2000F04EF90021D320F5
:1015F00000F04AF90021084600F046F90021402099
:1016000000F042F900218D2000F03EF90021142065
:1016100000F03AF90021202000F036F900210846B8
:1016200000F032F90021A12000F02EF90021C020A5
:1016300000F02AF90021DA2000F026F9002112201A
:1016400000F022F90021812000F01EF90021EF2096
:1016500000F01AF90021D92000F016F90021F1203C
:1016600000F012F90021DB2000F00EF900213020FB
:1016700000F00AF90021A42000F006F90021A620BC
:1016800000F002F9FFF748FF0021BDE81040AF204D
:1016900000F0FAB870B502F015FE0025104E05F105
:1016A000B000C0B2002100F0EFF80021084600F0C1
:1016B000EBF80021102000F0E7F8002406EBC4004E
:1016C0000121405D00F0E0F8641CE4B2802CF5D309
:1016D0006D1CEDB2082DE2D3BDE8704002F012BEE1
:1016E000D44700202DE9F84F83460E461F46B246E8
:1016F000780701D0012000E0002000EBD700790836
:101700004843C0B20090203A02F0FF09002541E0B2
:101710000C2F13D0102F18D0182F3ED1204909EBD1
:10172000C90001EB8000445D4FF00008200611D590
:10173000314658460A9AFFF705FF12E0194909EBAE
:10174000490001EB8000445DEEE7174800EB09100B
:10175000445DE9E70A9890B1002231465846FFF708
:10176000F1FE6006040E761CF6B2A6EB0A00B84243
:1017700007D156460BF1010B0BF0FF0B08E00122DD
:10178000EBE708F1010808F0FF08B8F1080FCDD326
:101790006D1CEDB200988542BAD3BDE8F88F000009
:1017A000785A000814500008885400082DE9FE43B8
:1017B0001F460A9B0024A046002A02DA4FF00108C7
:1017C00052420A256E4692FBF5FC05FB1C2CA146F5
:1017D0000CF1300C641CE4B206F809C092FBF5F27F
:1017E000002AF0DCB8F1000F06D022464FF02D0C95
:1017F000641CE4B206F802C0302203E02546641CF3
:10180000E4B27255BC42F9D3002232550AE0B75C0B
:10181000A51A354415F801CC06F802C005F8017C7C
:10182000521CD2B2B2EB540FF1D36A4600F002F868
:10183000BDE8FE83F8B504460F4615461E461BE07C
:101840008020A0EB5600A04202D20024B819C7B2F3
:10185000C6F14000B84203DA00242746FFF75CFED9
:10186000012000902A78334639462046FFF73AFF98
:1018700004EB5600C4B26D1C287820385E28DFD9EE
:10188000BDE8F840FFF706BF70B505460C4602F00C
:1018900019FDFFF70BFA7820FFF782FAFFF748FAF5
:1018A0001CB14020FFF77CFA02E00020FFF778FA35
:1018B000FFF73EFA2846FFF773FAFFF739FAFFF70A
:1018C00019FABDE8704002F01DBD0000054A00296C
:1018D00003D051690143516170475169814351619E
:1018E0007047000000100240054A002903D0D1696A
:1018F0000143D1617047D1698143D16170470000D4
:1019000000100240054A002903D09169014391610A
:101910007047916981439161704700000010024057
:101920000C48016841F00101016041680A4A114018
:1019300041600168094A11400160016821F4802179
:101940000160416821F4FE0141604FF41F01816094
:1019500070470000001002400000FFF8FFFFF6FE95
:1019600010B5264A516801F00C01254B002927D0FB
:10197000042927D0082927D00360516801F0F0011D
:101980000909204B5C5C0168E1404160546804F443
:10199000E064240A1C5D21FA04F48460546804F4B1
:1019A0006054E40A1B5DD940C160526802F44042B1
:1019B000920B144B1B1F9A5CB1FBF2F1016110BD3D
:1019C0000360DAE70360D8E7516801F470115368E7
:1019D00003F48033022404EB914133B153689B0339
:1019E00007D5094B59430160C7E7074B59430160CD
:1019F000C3E7034B59430160BFE7000000100240FA
:101A000000127A003C00002000093D00034600203F
:101A10005909094A01290AD002290AD0516A03F05A
:101A20001F02012393400B4200D001207047116830
:101A3000F5E7116AF3E70000001002400248406831
:101A400000F00C007047000000100240034A51688B
:101A500021F0F00101435160704700000010024086
:101A6000014908607047000000004242034A516883
:101A700021F4E06101435160704700000010024012
:101A8000034A516821F4605141EAC0005060704738
:101A90000010024001490866704700000000424201
:101AA000034B5A6822F47C12084310435860704775
:101AB00000100240034A516821F0030101435160C4
:101AC0007047000000100240AFF300800CB5002208
:101AD000019200922748016841F4803101604FF47F
:101AE000A063016801F4003100910199491C019142
:101AF000009911B901999942F3D10168890302D57E
:101B00000121009100E000920099012930D11A4989
:101B10000A6842F010020A600A6822F003020A60B2
:101B20000A6842F001020A60416841604168416010
:101B3000416841F480614160416821F47C11416059
:101B4000416841F488114160016841F08071016091
:101B500001688901FCD5416821F0030141604168B9
:101B600041F0020141604168C1F381010229FAD1CB
:101B70000CBD0000001002400020024010B503F030
:101B800095F8012803D0BDE8104002F0F3BD10BD68
:101B900070B519484FF47A710068B0FBF1F1002676
:101BA000751EB1F1807F0CD221F07F404FF0E02410
:101BB000401E60610F212846FFF79EFCA6610720AA
:101BC00020610E480068C0F30222C2F10701042917
:101BD00000D90421101D072801D2002200E0D21EE6
:101BE00001208840401E00F00F0191402846BDE8CA
:101BF0007040FFF781BC00000C0000200CED00E0FD
:101C000010B50F48016841F00101016041680D4ABB
:101C10001140416001680C4A11400160016821F4E3
:101C200080210160416821F4FE0141604FF41F01F1
:101C30008160FFF749FF05494FF00060086010BD63
:101C4000001002400000FFF8FFFFF6FE08ED00E084
:101C5000002904D0018841F080010180704701888B
:101C600021F0800101807047002904D0018841F0F3
:101C7000010101807047018821F001010180704756
:101C8000002905D030F8441F41F40041018070471D
:101C900030F8441FC1F30E010180704730B5028C4B
:101CA00022F001020284028C8388048B24F07004E9
:101CB00024F003050C882C4322F002020D89154301
:101CC0004A882A43124DA8420BD0124DA84208D090
:101CD000114DA84205D0114DA84202D0104DA84286
:101CE0000FD122F008054A892A4322F004058A8888
:101CF0002A4323F4807323F400738D891D43CB8919
:101D00002B4383800483C9888186028430BD000010
:101D1000002C0140003401400040014000440140DB
:101D200000480140028B22F008020A4302837047F8
:101D300070B5028C22F480520284058C8288838BD9
:101D400023F4E04323F440760C884FF6FF7303EA54
:101D50000424344325F400550E8903EA06362E4345
:101D60004D8803EA05353543094EB04202D0094E8D
:101D7000B04205D122F480468A8903EA82123243B6
:101D800082808483C988A0F84010058470BD00005B
:101D9000002C014000340140828B22F400624FF697
:101DA000FF7303EA012111438183704781867047E5
:101DB000A0F840107047000030B502881B4C1C4D45
:101DC000A0420DD0A8420BD0B0F1804F08D0194BE3
:101DD000984205D0184B984202D0184B984203D134
:101DE00022F070034A881A43154B984206D0154BCF
:101DF000984203D022F44073CA881A4302808A882A
:101E000082850A880285A0420AD0A84208D00E4ADC
:101E1000904205D00D4A904202D00D4A904201D125
:101E2000097A01860121818230BD0000002C014029
:101E3000003401400004004000080040000C004055
:101E400000100040001400400040014000440140E8
:101E50000048014008B502F037FF00904FF47A7552
:101E6000044C2946684602F02BFB6068401C606009
:101E7000F7E70000000000203EB5224D40F224416B
:101E8000284600F0D0F9002838D01F4C0021204609
:101E9000FEF7B0FD2046FEF737FEC0F18001402975
:101EA00005D21A4AA2F18000FEF76DFE05E0174A3E
:101EB0004039A2F14000FEF766FE1449D1F804044F
:101EC0000090D1F80004D0B1401E01900198401C50
:101ED000C1F804040E48406820B1002302AA6946F4
:101EE00002F078FD80212046FEF74BFE01212046BE
:101EF000FEF780FD28880348001D00883EBD40F2A3
:101F0000FF30E2E700380140580002404C02002058
:101F1000700000202DE9F047074688460024A146BE
:101F2000144D154E0DE03A5D552A0ED0687838B143
:101F3000DD2A0FD02B783F2B02D2581C2870F25488
:101F4000641C4445EFD3BDE8F08701206870287019
:101F50003270F5E728783F2806D2411CC9B22970B3
:101F60003254054800F00AF885F8019085F8009091
:101F7000E6E7000070000020580600202DE9F0413F
:101F800086B006460F460024FFF7C6FABD1E022F94
:101F900000D9ECB2002C1BD001240DF104087F1EE7
:101FA00046E0621ED01702EB507121F00700A2EB51
:101FB000000C4FEA4C60000EC1F3C703042B0AD992
:101FC000FFF7AAFA002110231BA20846FFF732FCF4
:101FD00006B0BDE8F081315D0A22B2EB111F02D9D3
:101FE0000909303101E00909373108F80010315D85
:101FF00001F00F020A2A01D2303200E037324044A9
:1020000042701149601E0840072801D0AC420DD132
:102010000CF1010C0CEB8C01002008F801001807F2
:10202000010E102301AA0020FFF704FC641CE4B297
:10203000BC42B6DBCCE700004461746120546F6F92
:10204000204C6F6E67000000070000802DE9FC4106
:1020500080460C464FF0FF35B8F1000F0AD04CB166
:102060002D486946406802F015FD012804D0284635
:10207000BDE8FC812846FBE7284F97F80804C00715
:1020800007D0002087F8080425A000F043FA28466E
:10209000EEE7DDE90010884219D3DDE90010401AAF
:1020A000401C2060401C01F00FFF054628002FD087
:1020B0002168491CFEF7BDF800982268C11928461E
:1020C000FEF79EF828462168FFF724FF20E00098DD
:1020D000C0F580660199701C08442060401C01F026
:1020E000F3FE0546280013D02168491CFEF7A1F82D
:1020F00000983246C1192846FEF782F8019AA819BD
:10210000521C0649FEF77CF828462168FFF702FFBB
:10211000C8F800500020ABE7700000204C020020FF
:10212000757361727431526563656976652E66698F
:10213000666F2E636F766572466C61670D0A0000EC
:1021400010B5074CA078002809D1FFF7E5F9002168
:10215000102304A20846FFF76DFB0120A07010BDFC
:102160007000002055415254000000003EB51C4D47
:1021700040F22551284600F056F81A4C90B12846F6
:1021800000F0EAF82268511C2160E3689854FF29A6
:1021900001D900202060D4E90001884201D101204A
:1021A00020723EBD40F22441284600F03CF8002851
:1021B000F7D060680090216879B1491E01910199BA
:1021C000491C61600848012302AA6946006802F0C0
:1021D00001FC284600F0C0F83EBDFF21EEE70000FC
:1021E000004400409806002078000020002904D018
:1021F000818941F4005181817047818921F4005126
:1022000081817047002A03D0828A0A438282704704
:10221000828A8A43828270470246002012880A42DC
:1022200000D00120704770B5002440F66A12C1F357
:10223000421301F01F05012606FA05F2012B0CD00E
:10224000022B0DD0838A1340090A8E40008830404B
:102250000BB100B10124204670BD83891340F3E720
:10226000038A1340F0E710B540F66A13C1F3421336
:1022700001F01F040121A140012B07D0022B07D040
:1022800014303AB102680A43026010BD0C30F8E71E
:102290001030F6E702688A43026010BD30B585B0A1
:1022A00004460D46208A4CF6FF710840E988014338
:1022B0002182A0894EF6F3110840A9882A8911438A
:1022C0006A8902431143A181A08A4FF6FF41084069
:1022D000A9890143A1826846FFF742FB1D48844259
:1022E00001D1039800E00298A189090408D500EB08
:1022F000C00101EB001029684900B0FBF1F007E0D4
:1023000000EBC00101EB001029688900B0FBF1F07F
:102310006422B0FBF2F109010B096FF018056B4361
:1023200000EB8300A3891D044FF0320307D503EBB4
:10233000C000B0FBF2F000F00700084306E003EB3A
:102340000010B0FBF2F000F00F000843208105B050
:1023500030BD0000003801408088C0F3080070479D
:10236000C1F3080181807047FEE7000030B587B0F7
:102370000446012144F20400FFF7C4FA4FF4007050
:10238000ADF8180003208DF81A0018208DF81B00F6
:10239000254D06A92846FEF729FC2815ADF818009A
:1023A00048208DF81B0006A92846FEF71FFC029462
:1023B0000024ADF80C40ADF80E40ADF81040ADF87B
:1023C00014400C20ADF81200184D02A92846FFF762
:1023D00065FF25208DF8040008208DF805008DF894
:1023E000064001208DF8070001A8FFF749F80122F7
:1023F00040F224412846FFF736FF00F059F800F07C
:1024000019F80122C0212846FFF7FCFE002208210E
:102410000A2002F0C5F90649486001212846FFF765
:10242000E5FE07B030BD0000000801400038014063
:102430007000002030B58DB001210846FFF746FA44
:10244000184D2846FEF7E4FA002404940C9420204A
:102450000A9080210591144803900994079113482C
:1024600002900894069480140B9002A92846FEF767
:102470006BFB0F208DF8040007208DF805008DF808
:10248000064001208DF8070001A8FEF7F9FF0122A0
:102490000E212846FEF74EFB01212846FEF7AAFA38
:1024A0000DB030BD58000240CC010020043801407E
:1024B00010B58CB001210846FFF708FA124C2046EF
:1024C000FEF7A6FA1020039000210B9109918022BB
:1024D00004920E480290089106920D4801900791CF
:1024E00005910A9101A92046FEF72EFB0121204605
:1024F000FEF747FB4FF40050FEF764FA0121204637
:10250000FEF778FA0CB010BD440002404C010020E8
:10251000043801400FB4054B10B503A9044A0298D2
:1025200000F0EEF810BC5DF814FB0000CD300008A0
:10253000F40000200FB4084B10B504A902AA0398B8
:1025400000F0DEF8044602A9002000F070FC2046EE
:1025500010BC5DF814FB00002F2E000802E008C834
:10256000121F08C1002AFAD170477047002001E00D
:1025700001C1121F002AFBD1704700002DE9FF5F47
:1025800082B00021DDE90430020DDDF840B00343E4
:1025900018D044F61050A2F2FF324243151411989D
:1025A00001281FD0A5EB0B00401C5FEA000A4FF08A
:1025B00000064E4FDFF83891B046504615D5CAF1A7
:1025C000000413E0119801244AA3012801D16FEA05
:1025D0000B010298119AC0E90031C0E9024206B02D
:1025E000BDE8F09FCBF10000DFE704460021404A40
:1025F000491842EB0450CDE9001012E0E00707D083
:1026000032463B4640464946FDF71EFE8046894617
:1026100032463B4610461946FDF716FE06460F4663
:102620006410002CEAD1DDE90401DDE90023BAF1F0
:10263000000F06DAFDF708FE42464B46FDF704FEA2
:1026400005E0FDF7F4FF42464B46FDF7F0FF044678
:102650000E460022284BFEF771F803D84FF0FF30EA
:10266000014607E00022254B20463146FDF738FFA2
:10267000FEF74CF8102409E0002C0ADB0A220023A4
:10268000FDF790FE039B30321A55641E50EA01029A
:10269000F2D1641C039AC4F111031444119A012A63
:1026A00003D0012208430DD10AE0084304D00020E2
:1026B0004FF0110B119072E7A3EB0B056D1E0DE0AF
:1026C0005B4504DD4FF0000205F1010504E003DA8B
:1026D0004FF00002A5F10105002AECD002981199F3
:1026E000C0E90231C0E9004579E70000000014406C
:1026F0000000F03F300000000000F0430000E03F29
:102700002DE9FF4F95B09B468946064600250FE20E
:10271000252877D100242746F84A0121059400E0B6
:10272000044316F8013F203B01FA03F01042F7D1B1
:1027300030782A2811D06FF02F033078A0F13002C2
:10274000092A16D8059A44F0020402EB820203EB30
:1027500042021044761C0590EFE759F8042B0592CD
:10276000002A03DA504244F40054059044F0020475
:10277000761C30782E2816D116F8010F44F0040488
:102780002A280DD06FF02F023078A0F13003092BEA
:1027900009D807EB870302EB4303C718761CF3E75E
:1027A00059F8047B761C30786C280FD006DC4C2856
:1027B00017D068280DD06A2814D104E0742810D0EE
:1027C0007A280FD10DE044F400140AE044F4801498
:1027D00001E044F440147278824202D104F580147E
:1027E000761C761C307866280BD013DC582877D0FE
:1027F00009DC002875D04528F6D04628F4D04728B3
:102800001AD19DE118E0632835D0642879D0652875
:1028100012D195E1702873D008DC6728F1D06928BF
:102820006FD06E280DD06F2806D1B5E073282CD05C
:10283000752875D0782874D05A46179990476D1C22
:1028400075E1C4F30250022809D003280DD0D9F84D
:10285000001004280DD00D6009F1040967E1D9F8D2
:102860000010EA17C1E90052F6E7D9F800100D8010
:10287000F2E70D70F0E719F8041B8DF80010002046
:102880008DF80100EA46012003E059F804AB4FF04F
:10289000FF3061074FF0000102D40DE008F10101A3
:1028A0008846B9420FDA8045F8DB1AF8081000298B
:1028B000F4D108E008F1010188468142FADB1AF8F8
:1028C00008100029F6D105985B46A0EB08072146C1
:1028D0003846179A00F094FA284400EB080507E000
:1028E0004DE029E10DE01AF8010B5A46179990477F
:1028F000B8F10108F7D25B4621463846179A13E132
:1029000042E00A220092C4F302524FF0000A022A67
:1029100008D059F804CB032A4FEAEC710AD00DE035
:1029200029E02AE009F1070121F00702F2E802C1DB
:10293000914609E00FFA8CFC4FEAEC71042A03D1AE
:102940004FFA8CFC4FEAEC71002907DA0A460021A5
:10295000DCF1000C61EB02012D2202E0220504D51E
:102960002B228DF80420012203E0E20701D020226F
:10297000F7E7904659E00A2102E010220DE010210D
:102980004FF0000A00910BE010224FF0000A44F0D3
:1029900004040827009203E008224FF0000A009286
:1029A000C4F30252022A05D059F804CB0021032AAD
:1029B00008D009E009F1070121F00702F2E802C19D
:1029C000914605E01FFA8CFC042A01D10CF0FF0CA3
:1029D0004FF00008220728D5702806D0009B83F00E
:1029E000100353EA0A0305D00EE040228DF80420BC
:1029F000012208E05CEA010206D030228DF80420B2
:102A00008DF8050002229046009B83F0080353EAEC
:102A10000A030AD15CEA010201D1620705D530221E
:102A20008DF804204FF001087F1E582804D034A0F0
:102A300003900EA802900DE036A0F9E753466046D9
:102A4000009AFDF7AFFC84460398825C0298401E12
:102A5000029002705CEA0100F0D1029806A9081AFF
:102A600000F1200A600702D524F4803400E0012739
:102A7000574502DDA7EB0A0000E0002000EB0A0149
:102A8000009005984144401A0590E00306D45B4647
:102A90002146179A059800F0B3F90544002706E08F
:102AA00001A85A46C05D179990476D1C7F1C474589
:102AB000F6DBE0030CD55B462146179A059800F03B
:102AC0009FF9054404E030205A46179990476D1C41
:102AD0000099481E00900029F5DC08E00298029950
:102AE0005A460078491C0291179990476D1CBAF11B
:102AF0000001AAF1010AF1DC65E1000009280100EA
:102B00003031323334353637383961626364656663
:102B10000000000030313233343536373839414225
:102B2000434445460000000000F058F90544761C77
:102B3000307800287FF4ECAD19B02846BDE8F08F5E
:102B4000620700D4062709F1070222F0070CFCE80F
:102B50000223E14603F000485FEA080C02D00FF2BE
:102B6000702C0DE05FEA045C02D50FF2682C07E0E0
:102B70005FEAC47C02D00FF2602C01E0AFF2700C6F
:102B80004FF0FF3823F00043CDF850C065280CD03B
:102B900006DC452809D046281DD047283DD13DE018
:102BA000662818D067287ED138E00021112F01DB7C
:102BB000112000E0781CCDE9000106A90EA8FFF75E
:102BC000DDFCDDE90F010E9A03910021009207F16F
:102BD000010A04914DE04FF000400097CDE901104B
:102BE00006A90EA8FFF7CAFCDDE90F0203920E9BAF
:102BF00011990022DDF80CA00093049211B9791C00
:102C000000EB010AB7EB0A0004D4C0F1FF3007F172
:102C1000010A0490AAEB0700019044E0012F00DABA
:102C200001270021112F01DD112000E03846CDE9F8
:102C3000000106A90EA8FFF7A1FCDDE90F010E9A1D
:102C40000391002104910092BA4621070CD4039904
:102C5000514500DA8A46BAF1010F05DD009AAAF162
:102C60000101515C302908D0B84202DA10F1040F9A
:102C700006DA0121CDE9011015E0AAF10101E9E729
:102C8000002805DC049901440491AAEB000102E04C
:102C9000411C514500DD8A460499401A401C0190B0
:102CA0004FF000400290200704D40198504501DB0A
:102CB000CDF8048000208DF84F0002980DF14F07E9
:102CC000B0F1004F25D02B200E9002984FF0020853
:102CD00000280CDA404202902D200E9007E00A21D5
:102CE0000298FDF749FB3031029007F8011DB8F159
:102CF0000001A8F10108F2DC02980028EFD1791E4A
:102D00000E980870307800F0200040F0450007F879
:102D1000020D12A8C01B00F107081498007800B13A
:102D2000012000EB0A01019801EBE0710598414494
:102D3000401A401E0590E00306D45B462146179AD0
:102D4000059800F05DF805441498007818B15A46CB
:102D5000179990476D1CE00324D55B462146179ACE
:102D6000059800F04DF805441CE00498002807DBA6
:102D7000DDE90301884203DD0098405C179901E01A
:102D8000179930205A469047049805F10105401CD8
:102D900004900198401E019004D12E205A461799A4
:102DA00090476D1CBAF10001AAF1010ADDDC05E0D3
:102DB00017F8010B5A46179990476D1CB8F100019E
:102DC000A8F10108F4DC5B462146179A0598ABE6AA
:102DD0002D0000002B000000200000002DE9F04134
:102DE000044600251E461746880404D405E03946EB
:102DF0002020B0476D1C641EF9D52846BDE8F0813F
:102E00002DE9F041044600251E469046C80301D531
:102E1000302700E02027880404D505E041463846E5
:102E2000B0476D1C641EF9D52846BDE8F0810A68DC
:102E3000531C0B60107070472DE9F04107460E4699
:102E4000074DA88800F038F92C1F2080E88800F092
:102E500033F96080218839803080BDE8F08100003E
:102E600030000020024A93880380D0880880704791
:102E7000300000200849082806D0092806D038B1BB
:102E8000012807D00020704708887047488870479D
:102E900088887047C88870473000002070B592B0AD
:102EA00001214802FEF72EFD01210C20FEF72AFD2C
:102EB00001210846FEF70AFD0325ADF84450002421
:102EC0008DF8474011A93748FDF790FEADF8445002
:102ED0008DF8474011A93448FDF788FE0C94012075
:102EE0008DF834008DF835004FF460200E900F946B
:102EF00004258DF840502D4E0CA93046FDF790FC6E
:102F00000723012208213046FDF7AEFC07230222E9
:102F100009213046FDF7A8FC072303220021304693
:102F2000FDF7A2FC0723042201213046FDF79CFC9B
:102F30001E494C3101911E4802900394049505945A
:102F40008020069040000790800008902020099083
:102F500000020A900B94174C01A92046FDF7F4FDDE
:102F600001212046FDF746FD01213046FDF73DFCDD
:102F700001213046FDF72DFC3046FDF7AFFC304611
:102F8000FDF746FC0028FAD13046FDF7B8FC304684
:102F9000FDF737FC0028FAD101213046FDF7A3FCEC
:102FA00012B070BD000C0140000801400024014037
:102FB000300000200800024000F07CB810B5FEF799
:102FC000ABFA002110230BA20846FEF733FC1023B6
:102FD0000BA219460020FEF72DFC10230AA2202187
:102FE0000020FEF727FC00F066F8094900208870F1
:102FF00010BD0000414443204D656E750000000087
:103000005041303A000000005041313A00000000C9
:103010002000002010B586B02348102480780028B6
:1030200021D002A903A8FFF707FF04230094BDF8ED
:103030000C2010213020FEF7B9FB10231BA21946EB
:103040005820FEF7F7FB04230094BDF80820202148
:103050003020FEF7ABFB102314A220215820FEF7EE
:10306000E9FB06B010BD04A905A8FFF7FBFE00941C
:103070000423BDF8142010213020FEF797FB102305
:103080000BA219465820FEF7D5FB04230094BDF887
:10309000102020213020FEF789FB102304A22021DC
:1030A0005820FEF7C7FBDCE7200000206D5600002B
:1030B000414443007047704740F6E441484340F6BE
:1030C000FF71B0FBF1F080B27047000070B50446AC
:1030D000064D40212846FFF79FF80028F9D0A1B2FD
:1030E0002846FFF73DF9204670BD0000003801403A
:1030F0007047000010B5FEF70FFA0021102306A25A
:103100000846FEF797FB1023BDE8104005A21946BC
:103110000020FEF78FBB00004672656520446562A3
:10312000756700004D6F64653A000000102302A22D
:1031300019463020FEF77EBB416374697665000056
:103140007047000010B5FEF7E7F90021102306A232
:103150000846FEF76FFB1023BDE8104005A2194694
:103160000020FEF767BB00004750494F20496E70B2
:10317000757400004B6579733A00000038B500F0B3
:103180007FF80446002C0DD0102307A219463020EA
:10319000FEF750FB1020014600900123224630200C
:1031A000FEF704FB38BD00002020202000000000B6
:1031B0004FF460410148FDF773BD0000000C014071
:1031C00010B5FEF7A9F9002110230AA20846FEF760
:1031D00031FB10230AA219460020FEF72BFB0A49F7
:1031E0000020C870BDE810404FF460410748FDF76B
:1031F00057BD00004750494F204F757470757400DB
:103200004C45443A0000000020000020000C014022
:103210000548C078002801D004A200E004A21023D1
:1032200019463020FEF706BB200000204F4E20003C
:103230004F464600B0F5965F01D900207047A0F2D6
:10324000AB514FF4C772914201D803207047A0F2EE
:103250008531914201D802207047A0F25F10904260
:1032600001D80120704700207047000010B5FFF71B
:1032700015FE024800210180418010BD2800002079
:1032800010B500F00FF820B1FF2101EB4000C0B2F3
:1032900010BD00F017F810B14006000E10BD002060
:1032A00010BD000010B50820FFF7E4FD80B2FFF765
:1032B00003FF03490880BDE81040FFF7BBBF0000D3
:1032C0002800002010B50920FFF7D4FD80B2FFF7D9
:1032D000F3FE03494880BDE81040FFF7ABBF000094
:1032E00028000020FDF7B4BF0B480079072811D251
:1032F000DFE800F0100406080A0C0E00FDF7A0BD80
:10330000FDF7CCBDFDF7F8BDFDF724BEFDF750BEBF
:10331000FDF77CBEFDF794BD4C0000201CB54FF4BA
:103320004070FEF7DFF8FDF7F0FAFEF731FC4FF4DE
:10333000E130FFF71BF81BA0FFF7ECF8FDF7F2FEFA
:1033400000F03AFE00220C210A2001F029FA194966
:10335000886000240820CDE900042346802216A1BD
:10336000174801F073FC0920CDE9000400238022F6
:1033700014A1154801F06AFC0A20CDE900040023DD
:10338000802212A1134801F061FC0720CDE900045E
:103390000023802210A1114801F058FC01F022F90D
:1033A00000201CBD48454C4C4F204E45454B4F0D11
:1033B0000A000000000000206D61696E000000003E
:1033C000351400086B657900010E000874696D659D
:1033D00000000000551E00086C6564009D10000888
:1033E0007047000010B5FEF797F80021102305A2E2
:1033F0000846FEF71FFABDE810404FF4FA6132208C
:10340000FDF732BE4D61696E000000001FB5134824
:10341000006813494A6890421FD048604FF46162C7
:10342000B0FBF2F1B0FBF2F302FB13033C22B3FB5F
:10343000F2F3B0FBF2F402FB14046420B1FBF0F2EF
:1034400000FB121207A101A80094FFF773F81023E4
:1034500001AA00213C20FEF7EDF91FBD0400002069
:10346000200000202530326C753A2530326C753AD8
:103470002530326C7500000070B5634C0125217851
:1034800007297DD2DFE801F0042A70979EB2B900C7
:10349000072875D2DFE800F0A004090E13181D00FC
:1034A000BDE87040012000F021B9BDE87040022065
:1034B00000F01CB9BDE87040032000F017B9BDE86A
:1034C0007040042000F012B9BDE87040052000F003
:1034D0000DB9BDE87040062000F008B94A49072838
:1034E000497879D2DFE800F07804091878283400A8
:1034F000BDE87040022000F0F9B86570102343A2C7
:1035000019466020FEF796F9BDE87040102320218F
:103510003FA26020FEF78EB90220607010233BA20C
:1035200020216020FEF786F9BDE87040102338A204
:1035300019466020FEF77EB9084600F02FFD64288A
:103540004AD2401DC1B26078BDE8704000F024BE90
:10355000084600F023FD00283ED0401FC1B260782D
:10356000BDE8704000F018BE01281DD0022833D1FC
:10357000A078F0B10020A070FDF7CEFF102300E08E
:103580002AE0002123A20846FEF754F9102324A2C2
:1035900019460020FEF74EF9BDE8704010232021A7
:1035A00021A20020FEF746B9BDE87040032000F0DC
:1035B0009DB80120DFE701280ED1BDE8704004204E
:1035C00000F094B8012808D002280BD0032803D1BA
:1035D000FDF73EFE0020E07070BDBDE870400520A4
:1035E00000F084B8FDF72CFCE57070BD0128FCD11B
:1035F000BDE87040062000F079B80128F5D1BDE89B
:103600007040002000F072B8200000203E00000052
:1036100020000000414443204D656E75000000000D
:103620005041303A000000005041313A00000000A3
:1036300019481849016000F11C01184A0A6000F19C
:103640003802174B1360174B4360174B4B60174BF7
:103650005360174B8360174B8B60174B9360174B6E
:10366000C360174BCB60174BD360174B0361174BED
:103670000B61174B1361174B4361174B4B61174B92
:103680005361174B83611748886117489061FFF7B2
:10369000A9BE0000E5330008F80000200D34000842
:1036A000E1330008D940000849410008C140000842
:1036B000BD2F000815300008B92F0008453100085B
:1036C0007D31000841310008C13100081132000885
:1036D000B1310008E941000825420008E541000831
:1036E000F53000082D310008F130000870B50446AF
:1036F000072C10D2094D0848297850F8211001B143
:1037000088472C700448383850F82400002802D02C
:10371000BDE87040004770BD30010020200000204F
:1037200005490448097850F82100002800D00047D6
:103730007047000014010020200000202DE9F04116
:1037400004460F46134E75693068001D00F074FD85
:10375000601C07D137B13168BDE8F041091D0E4842
:1037600000F0A3BD2C4430684460AC4206D23168FE
:10377000B068091DBDE8F04100F07FBD3168706898
:10378000091D00F07AFD306B844200D23463BDE83D
:10379000F081000080000020980B002070B50446E6
:1037A00000F090FD1C4D2869401C2861286810B16C
:1037B000E86938B10CE02C602869012808D100F0D4
:1037C00077F905E02868E16AC06A884200D82C6071
:1037D000E86A401CE8626064E06AA969884200D92E
:1037E000A8610E4900EB800001EB8000211D00F074
:1037F0005CFD00F087FDE86900280CD02868E16ACC
:10380000C06A884207D206494FF080500860BFF373
:103810004F8FBFF36F8F70BD80000020E80600203F
:1038200004ED00E010B500F04DFD0E4CA068A0B90D
:103830000D4800F014FD0C48143000F010FD0A484B
:10384000206014306060002210210A2000F0A8FFE0
:10385000A06010B105A100F0D5FDBDE8104000F05A
:1038600051BD0000BC000020AC0B0020546D725113
:103870000000000070B50C4D0C4E11E000F022FD70
:10388000F068C468201D00F0D7FC2869401E28613C
:10389000E868401EE86000F035FD204600F053F86F
:1038A000E8680028EAD170BD80000020840B002069
:1038B00030B40B46026C002A0CD0C1681144C160C0
:1038C0004468A14201D30168C160C16830BC184698
:1038D000FCF796BC30BC70472DE9F0410446174612
:1038E0000026A56B226C002A10D0C7B1E068FCF757
:1038F00087FCE168206C091AE1602268914202D2DB
:103900006168081AE060022F16D017E02068A8B995
:10391000606801F045FA0646002060600EE0A0688D
:10392000FCF76EFC216CA0680844A06061688842C6
:1039300004D32068A06001E005B16D1E6D1CA56375
:103940003046BDE8F08110B50446206B00F0F0FC75
:103950002046BDE8104000F0EBBC000007490A68B3
:103960001168002904D00021016019B100207047BE
:103970000121F9E7D068006870470000BC00002012
:103980004FF470510F48420706D0C01D20F00700C9
:103990000C49411AC1F570510B4A10600023536065
:1039A0000144083921F00701103A11604B600B60A7
:1039B0000B1A436001604068906050604FF0004017
:1039C000D0607047D40B0020E0000020074E4FF07D
:1039D0008054074DFFF74EFF30680128FAD92C605C
:1039E000BFF34F8FBFF36F8FF4E70000E8060020AE
:1039F00004ED00E070B51D46049C002909D022604A
:103A0000E06321640121204600F0ECFE84F84C5074
:103A100070BD2460F4E72DE9F0478146DDE90858E0
:103A20000A9C0E4617469A46B900A522206BFCF761
:103A3000F9FB206B7F1E00EB870020F0070778075B
:103A400007D0502080F31188BFF34F8FBFF36F8FE3
:103A5000FEE700202218315C82F83410315C11B18D
:103A6000401C1028F6D3002684F84360382D00D37C
:103A70003725E562E5642665201D00F0FBFB04F1B7
:103A8000180000F0F7FB2461C5F13800A061646202
:103A9000666584F8586052464946384600F094FB03
:103AA0002060B8F1000F01D0C8F80040BDE8F087F1
:103AB00070B50024114D04EB840005EB800000F08C
:103AC000CEFB641C382CF6D30D4800F0C8FB0C4824
:103AD000143000F0C4FB0A48283000F0C0FB08484E
:103AE0003C3000F0BCFB0648503000F0B8FB054805
:103AF000034941601431816070BD0000E806002078
:103B0000480B00208000002030B5134900E011462A
:103B10000A688242FBD34B685C18844203D1406838
:103B20001844486008460D6844682318AB420DD11C
:103B3000094B103B1B689A4206D0526822444260EF
:103B40000A681268026002E0036000E002608142DD
:103B500000D0086030BD0000E000002070B50024F7
:103B6000416000610C4D91420AD8D11A826991429C
:103B700001D301240EE0011D686800F07EFB09E01E
:103B80009A4203D2994201D3012403E0011D28681F
:103B900000F073FB204670BDBC00002010B5044649
:103BA00000F090FBA06B20B1002400F0ABFB20469E
:103BB00010BD0124F9E710B5044600F083FBA06BAB
:103BC000E16B884201D1012400E0002400F09AFB5F
:103BD000204610BDF8B505460E4614480068C0687A
:103BE000C468201D00F028FBE069012810D1A069FD
:103BF0002B46411932462046FFF7B0FF40B1002066
:103C00000346014600902A46204601F0CDF928B12E
:103C1000616A01B02046BDE8F0400847502080F3BB
:103C20001188BFF34F8FBFF36F8FFEE7BC000020FA
:103C300030B587B02E4D52E00398002803DADDE955
:103C40000420069990470398002848DB059C60698A
:103C500010B1201D00F0F0FA02A800F093F802461F
:103C600003980A283BD2DFE800F00505053A26371D
:103C700005053A260498A169034601442046FFF74A
:103C80006DFF00B3616A20468847E069012826D1AC
:103C9000002000900498A16900234218194620468C
:103CA00001F082F978B9502080F31188BFF34F8F6B
:103CB000BFF36F8FFEE70498A06128B18118134607
:103CC0002046FFF74BFF0AE0502080F31188BFF336
:103CD0004F8FBFF36F8FFEE7204600F029FB0022D5
:103CE00003A9A86800F0D6FE0028A5D107B030BD12
:103CF000BC000020F8B506460D4600F0ABFC684657
:103D000000F040F80446009810B101F0C3F8F8BD87
:103D100045B9A64206D801F0BDF821463046FFF766
:103D200059FFF8BD0C481DB14168096891B10025E3
:103D3000311B2A46806800F077FB01F0ABF80028C1
:103D4000EFD106494FF080500860BFF34F8FBFF3AB
:103D50006F8FF8BD0125EBE7BC00002004ED00E00B
:103D6000074841680968002905D04168C968C968E1
:103D70004968016370474FF0FF31016370470000ED
:103D80008000002070B5054600F09EFF0446074EF7
:103D90003069844204D200F00BF80120286001E071
:103DA000002028603461204670BD0000BC00002067
:103DB000F8B5194E1FE0C0680568C468201D00F002
:103DC0003BFA616A20468847E069012813D1A0695F
:103DD0002844A84206D960602461211D306800F0A3
:103DE0004CFA08E000200346014600902A4620468F
:103DF00001F0DAF840B1306801680029DBD13068A1
:103E0000716831607060F8BD502080F31188BFF395
:103E10004F8FBFF36F8FFEE7BC000020094840685A
:103E2000401C07D0502080F31188BFF34F8FBFF3A1
:103E30006F8FFEE7502080F31188BFF34F8FBFF3E1
:103E40006F8FFEE7E800002008B56846FFF786FDA3
:103E50000099FFF74FFFFFF7EBFEF6E72DE9F04182
:103E6000044600F02FFA94F9455004F1240609E0C5
:103E7000606A48B1304600F0D1FF08B100F074FB31
:103E80006D1E6DB2002DF3DC4FF0FF3684F84560F7
:103E900000F038FA00F016FA94F9445004F11007D3
:103EA00009E0206948B1384600F0B8FF08B100F0D9
:103EB0005BFB6D1E6DB2002DF3DC84F84460BDE841
:103EC000F04100F01FBA00002DE9F0410546002640
:103ED00000F0C0FB304F386808B9FFF751FDF868B3
:103EE00005424AD18DB1083568070ED005F00700AC
:103EF000C0F108000544680707D0502080F31188FE
:103F0000BFF34F8FBFF36F8FFEE7B5B3786885427D
:103F100033D8214910310846046801E0214604469F
:103F20006068A84202D220680028F7D1386884422D
:103F300023D00E680836206808606068411B10298D
:103F40000ED96019420707D0502080F31188BFF3C3
:103F50004F8FBFF36F8FFEE741606560FFF7D4FDC1
:103F600061687868401A7860BA68904200D2B86098
:103F7000F868014361600020206000F08BFF70074B
:103F800007D0502080F31188BFF34F8FBFF36F8F9E
:103F9000FEE73046BDE8F081D00000200549012849
:103FA00003D0022803D00020704708787047487873
:103FB000704700007C0000202DE9F04188B001210D
:103FC0000420FDF79FFC0121CD022846FDF79AFC55
:103FD0004021ADF81C1018248DF81F4003268DF8E1
:103FE0001E60334F07A93846FCF700FEADF81C50A1
:103FF0008DF81F408DF81E6007A93846FCF7F6FDC6
:104000006325ADF814500726ADF810600024ADF814
:104010001640ADF81240274F04A93846FDF7CCFEF4
:1040200001210220FDF760FCADF81450ADF81060DE
:10403000ADF81640ADF81240DFF87C8004A9404688
:10404000FDF7BAFE6020ADF800000125ADF8025082
:104050001A4E7078ADF80600ADF808406946404643
:10406000FDF71CFE08214046FDF75CFE012140469D
:10407000FDF7EEFD01214046FDF7F6FDADF80250DB
:10408000ADF804403078ADF8060069463846FDF7D3
:104090004FFE01213846FDF7E7FD08213846FDF7C0
:1040A0007BFE01213846FDF7EBFD08B0BDE8F0814D
:1040B00000080140002C0140000400407C0000206A
:1040C00010B50021012000F067F80021BDE8104084
:1040D000022000F061B8000010B5FDF71DFA0021C4
:1040E000102313A20846FDF7A5FB102311A21946C1
:1040F0000020FDF79FFB102310A220210020FDF7D8
:1041000099FB10230FA219466020FDF793FB0120B5
:10411000FFF744FF0146012000F03EF80220FFF7C0
:104120003DFF0146BDE81040022000F035B8000018
:1041300050574D00504131313A0000005041363A5D
:10414000000000003E00000038B50120FFF726FF08
:10415000102402460323214630200094FDF726FB5D
:1041600010230CA219464E20FDF764FB0220FFF736
:1041700015FF02460323202130200094FDF716FB93
:1041800001B01023BDE83040202102A24E20FDF7EF
:1041900051BB000025000000642900D96421074AB2
:1041A000012805D0022807D151700548FDF7FEBD52
:1041B00011700448FDF7FCBD704700007C00002032
:1041C00000040040002C014020384FF08073C36190
:1041D00021F0010181610249416140F820297047C5
:1041E0001D3E00087047000010B5FDF795F900214D
:1041F000102306A20846FDF71DFB1023BDE8104062
:1042000006A219460020FDF715BB00005541525487
:104210002052656365697665000000004461746141
:104220003A000000102302A219463020FDF702BB1D
:1042300057616974000000000169D0E901329A6099
:10424000D0E901235A604A68824201D182684A60FB
:10425000002202610868401E08600868704700F18B
:10426000080141604FF0FF328260C16001610021AE
:104270000160704700210161704730B50C68621C15
:1042800002D000F1080202E0026904E01A46536815
:104290001D68A542FAD953684B6099608A605160E5
:1042A00008610168491C016030BD42684A6093683A
:1042B0008B6093685960916008610168491C0160D6
:1042C00070470000502080F31188BFF34F8FBFF379
:1042D0006F8F0A494868401C486001280CD1084883
:1042E000006810F0FF0F07D0502080F31188BFF353
:1042F0004F8FBFF36F8FFEE770470000E80000208C
:1043000004ED00E009494868002806D0401E4860D6
:10431000002801D180F311887047502080F3118864
:10432000BFF34F8FBFF36F8FFEE70000E800002060
:1043300070B5002827D008380446134D6068E96836
:10434000084207D1502080F31188BFF34F8FBFF38D
:104350006F8FFEE722683AB1502080F31188BFF3D7
:104360004F8FBFF36F8FFEE78843606000F072F9F4
:1043700060686968084468602046FFF7C5FBBDE8CF
:10438000704000F087BD70BDD00000204FF0E020ED
:1043900000210161816105494FF47A720968B1FB1E
:1043A000F2F1491E41610721016170470C000020B4
:1043B00010B5FBF70FFF114910280ED300F1E020D4
:1043C00090F8F0030A78904207D2502080F31188C9
:1043D000BFF34F8FBFF36F8FFEE70948006889680E
:1043E00000F4E060884207D9502080F31188BFF3C1
:1043F0004F8FBFF36F8FFEE710BD0000E800002075
:104400000CED00E010B50022064B53F832401CB111
:10441000521C082AF9D310BD43F8321003EBC20135
:10442000486010BDA806002070B504460D4616462B
:10443000FFF748FF94F944304FF000005B1C01D1B6
:1044400084F8440094F94510491C01D184F84500D2
:10445000FFF758FFA06B28B93246294604F1240023
:1044600000F0A2F82046BDE87040FFF7F7BC00005E
:1044700010B502460020002A12D00F48806B38B1D8
:10448000502080F31188BFF34F8FBFF36F8FFEE78B
:1044900000F0E0F800211046FFF750F900F0FAFCB8
:1044A000002807D105494FF080500860BFF34F8FB7
:1044B000BFF36F8F10BD00008000002004ED00E00E
:1044C00070B505460E460023002D0BD096B1204A4C
:1044D000906BB8B1502080F31188BFF34F8FBFF3BA
:1044E0006F8FFEE7502080F31188BFF34F8FBFF32B
:1044F0006F8FFEE7502080F31188BFF34F8FBFF31B
:104500006F8FFEE700F0A6F852692C68A11994425B
:1045100005D98C4208D9914206D9012304E08C4286
:1045200001D8914200D9012329601BB1881A0021CA
:10453000FFF704F900F0AEFC002807D105494FF061
:1045400080500860BFF34F8FBFF36F8F70BD0000C6
:104550008000002004ED00E002498A6A0260496997
:104560004160704780000020014901204862704787
:104570008000002010B50C4600280AD009490968BF
:104580001831FFF77AFE2046BDE810400121FFF701
:10459000D5B8502080F31188BFF34F8FBFF36F8FD2
:1045A000FEE700008000002070B50D46144600288C
:1045B0000DD00B4909681831FFF777FE0CB14FF0A9
:1045C000FF3521462846BDE87040FFF7B7B85020B8
:1045D00080F31188BFF34F8FBFF36F8FFEE70000AA
:1045E000800000201CB517480024CDE90040234678
:1045F000802215A1164800F029FB012801D100F006
:10460000ADFC012809D0401C1AD1502080F311883C
:10461000BFF34F8FBFF36F8FFEE7502080F31188F9
:10462000BFF34F8FBFF36F8F06484FF0FF31343821
:1046300001630121C1614461BDE81C4000F046B83E
:104640001CBD0000B400002049444C45000000009F
:10465000CD3900080248816B491C81637047000016
:104660008000002010B5174B986B002802D0012065
:10467000586210BD002058629869134901E0C0B12A
:10468000401E00EB800251F82220002AF7D000EBF8
:10469000800201EB82014A6852684A6001F1080415
:1046A000A24201D152684A604968C968196098619C
:1046B00010BD502080F31188BFF34F8FBFF36F8F71
:1046C000FEE7000080000020E80600201CB5264917
:1046D00008780190FF200870087800909DF800008D
:1046E0009DF8002000F0F000904207D0502080F3A9
:1046F0001188BFF34F8FBFF36F8FFEE79DF8000067
:104700001A4B00F0500018700720986006E0986877
:10471000401E98609DF80000400000909DF8000049
:104720000006F4D49868032807D0502080F311883D
:10473000BFF34F8FBFF36F8FFEE74FF44070986069
:10474000019808700A48016841F47001016001682D
:1047500041F070410160FFF719FE00205860FBF73F
:1047600003FD00201CBD000000E400E0E800002084
:1047700020ED00E010B5502080F31188BFF34F8F7B
:10478000BFF36F8F00F0A6FA18B104494FF08050C4
:104790000860002080F3118810BD000004ED00E0E7
:1047A000F8B505460E461746002D11D0C6B105FBDB
:1047B00006F05030FFF788FB04463CB104F150028C
:1047C0003B46314628460094FFF714F92046F8BDD1
:1047D000502080F31188BFF34F8FBFF36F8FFEE738
:1047E0000020E6E770B504460D46002C25D0FFF703
:1047F00069FDD4E90F20216802FB001161600021EE
:10480000A1632168A160E06B2268216C401E00FB5F
:104810000121E1604FF0FF3084F8440084F8450046
:1048200004F110008DB1FFF71AFD04F12400FFF729
:1048300016FDFFF767FD012070BD502080F3118841
:10484000BFF34F8FBFF36F8FFEE721690029F0D0D0
:1048500000F0E4FA0028ECD004494FF080500860E2
:10486000BFF34F8FBFF36F8FE3E7000004ED00E06D
:104870002DE9FF4782B004468A461E460025002CDB
:1048800003D0BAF1000F08D011E0502080F3118856
:10489000BFF34F8FBFF36F8FFEE7206C38B150200E
:1048A00080F31188BFF34F8FBFF36F8FFEE7022EA7
:1048B0000AD1E06B012807D0502080F31188BFF3A4
:1048C0004F8FBFF36F8FFEE700F0F0F948B90498FF
:1048D00038B1502080F31188BFF34F8FBFF36F8F33
:1048E000FEE74FF000094FF08057DFF8E480FFF754
:1048F000E9FCA06BE16B884205D3022E03D004983B
:1049000008B325B327E0324651462046FEF7E4FFC0
:10491000616A59B104F1240000F080FA68B1C8F866
:104920000070BFF34F8FBFF36F8F06E028B1C8F858
:104930000070BFF34F8FBFF36F8FFFF7E3FC0120D1
:1049400006B0BDE8F087FFF7DDFC0020F8E7684619
:10495000FFF702FE0125FFF7D5FCFFF77BFEFFF70F
:10496000B1FC94F94400401C01D184F8449094F9BE
:104970004500401C01D184F84590FFF7C3FC04A911
:10498000684600F025F930B12046FFF767FA00F0DD
:1049900081FA0020D4E72046FFF70DF990B104F129
:1049A00010000499FFF7E6FD2046FFF757FA00F0E4
:1049B00071FA00289BD1C8F80070BFF34F8FBFF386
:1049C0006F8F94E72046FFF749FA00F063FA8EE70D
:1049D00004ED00E02DE9F0470446894690461F4665
:1049E000002C03D0B9F1000F08D011E0502080F363
:1049F0001188BFF34F8FBFF36F8FFEE7206C38B184
:104A0000502080F31188BFF34F8FBFF36F8FFEE705
:104A1000022F0AD1E06B012807D0502080F31188C3
:104A2000BFF34F8FBFF36F8FFEE7FFF7C1FC50203E
:104A3000EFF3118680F31188BFF34F8FBFF36F8FB1
:104A4000A06BE16B884206D3022F04D0002086F3CE
:104A50001188BDE8F08794F945503A46494620460A
:104A6000FEF73AFF681C04D06D1C84F84550012005
:104A7000EDE7606A0028FAD004F1240000F0CEF9D6
:104A80000028F4D0B8F1000FF1D00120C8F80000E0
:104A9000EDE700002DE9F74783B004468A4600267B
:104AA000002C03D0BAF1000F08D011E0502080F3A1
:104AB0001188BFF34F8FBFF36F8FFEE7206C38B1C3
:104AC000502080F31188BFF34F8FBFF36F8FFEE745
:104AD00000F0ECF848B9059838B1502080F31188FF
:104AE000BFF34F8FBFF36F8FFEE700274FF0805863
:104AF000DFF8D890FFF7E6FBA56BC5B1514620461D
:104B0000FEF7D6FE6D1EA563206950B104F11000BA
:104B100000F084F928B1C9F80080BFF34F8FBFF3CC
:104B20006F8FFFF7EFFB012006B0BDE8F087059817
:104B300008B126B107E0FFF7E5FB0020F4E701A884
:104B4000FFF70AFD0126FFF7DDFBFFF783FDFFF707
:104B5000B9FB94F94400401C01D184F8447094F9E5
:104B60004500401C01D184F84570FFF7CBFB05A937
:104B700001A800F02DF858B12046FFF76FF900F0BA
:104B800089F92046FFF70AF80028B3D00020CBE7C8
:104B90002046FFF703F890B104F124000599FFF7D0
:104BA000E9FC2046FFF75AF900F074F90028A1D17A
:104BB000C9F80080BFF34F8FBFF36F8F9AE720468D
:104BC000FFF74CF900F066F994E7000004ED00E00F
:104BD0002DE9F04105460C46002D11D0C4B1FFF778
:104BE00071FB194E70696B68C11A2268571C17D087
:104BF0002F68B66AB74215D0834213D801241DE04E
:104C0000502080F31188BFF34F8FBFF36F8FFEE703
:104C1000502080F31188BFF34F8FBFF36F8FFEE7F3
:104C200000240BE08A4206D9501A20602846FFF77C
:104C300093FC002402E0002020600124FFF762FBC7
:104C40002046BDE8F0810000800000202DE9FF5FD4
:104C50008146DDE90E788A4616469B46B000FFF78E
:104C600033F9054628000AD05C20FFF72DF90446E9
:104C70000CB1256304E02846FFF75AFB00E000244E
:104C80008CB10020CDE90240CDE900785B46324688
:104C900051464846FEF7BFFE2046FEF77FFD012045
:104CA00004B0BDE8F09F4FF0FF30F9E70548C16957
:104CB000002903D0806B18B1002070470120704795
:104CC00002207047800000200148406970470000C2
:104CD000800000202DE9F04100262F4FB86B0028FE
:104CE00008D0386A401C3862786A00B10126304624
:104CF000BDE8F0817D696D1C7D619DB978680068B3
:104D000038B1502080F31188BFF34F8FBFF36F8FFE
:104D1000FEE77868B9687960B860B86A401CB86224
:104D2000FFF71EF8386BDFF8748085420DD3786882
:104D3000006838B17868C068C468606885420ED27F
:104D4000386302E04FF0FF3038633868C06A00EB28
:104D5000800058F820000128C6D90126C4E7201D8C
:104D6000FFF76AFAA06A18B104F11800FFF764FAB5
:104D7000E06AB969884200D9B86100EB800008EBAD
:104D80008000211DFFF791FAE06A3968C96A8842FC
:104D9000CDD30126CBE7000080000020E8060020EC
:104DA00070B504460020002C2BD01A4D29688C4287
:104DB00007D0502080F31188BFF34F8FBFF36F8F60
:104DC000FEE7216DF1B1491E2165E36CE26A9A426A
:104DD00017D0002915D1201DFFF72EFAE06CE062F4
:104DE000C0F13800A061E06AA969884200D9A861D1
:104DF000094900EB800001EB8000211DFFF755FA07
:104E0000012070BD502080F31188BFF34F8FBFF396
:104E10006F8FFEE780000020E806002070B5C068B4
:104E2000C468002C14D004F118000646FFF704FAF9
:104E3000154DAA6BA2B131461448FFF736FAE06A65
:104E40002968C96A88421CD901200121696270BDA4
:104E5000502080F31188BFF34F8FBFF36F8FFEE7B1
:104E6000201DFFF7E9F9E06AA969884200D9A86125
:104E7000074900EB800001EB8000211DFFF715FAC8
:104E8000DDE7002070BD000080000020700B0020D6
:104E9000E80600202DE9F041002400272B4DA86BE7
:104EA000002807D0FFF70EFAA86B401EA863A86B76
:104EB00040B146E0502080F31188BFF34F8FBFF31D
:104EC0006F8FFEE72869E0B3DFF8848001261CE0DD
:104ED000D8F80C00C46804F11800FFF7ADF9201DE4
:104EE000FFF7AAF9E06AA969884200D9A8611949BF
:104EF00000EB800001EB8000211DFFF7D6F9E06A8E
:104F00002968C96A884200D36E62D8F80000002878
:104F1000DED10CB1FEF724FF2C6A44B1FFF7DAFEB4
:104F200000B16E62641E002CF8D100202862686A0D
:104F300038B10127084938070860BFF34F8FBFF326
:104F40006F8FFFF7DFF93846BDE8F0818000002061
:104F5000700B0020E806002004ED00E01CB50024E2
:104F6000FEF760FC0C48806858B10B4802210C30F9
:104F7000CDE90010CA01002308A10A48FFF766FE28
:104F800004460CB120461CBD502080F31188BFF3AD
:104F90004F8FBFF36F8FFEE7BC000020546D72206F
:104FA00053766300493E00082DE9FF4106460A9FFB
:104FB0009C460020002E15D0154DAC68002C0ED05C
:104FC00000910192029606291BDAFFF76FFE022874
:104FD00010D000231A466946A868FFF749FC04B0C0
:104FE000BDE8F081502080F31188BFF34F8FBFF3ED
:104FF0006F8FFEE700233A466946A868FFF738FC42
:10500000EDE70023624669462046FFF7E3FCE6E74A
:10501000BC000020000000000000000000000000B4
:10502000000000003F4000000000000000003000D1
:10503000400030004000000009000BC03D000BC0E4
:105040003D00090018C024407FE02240318000006C
:10505000180024C01B000D803240018003801C40DA
:1050600027401C8007400040100060000000000046
:10507000000000000000000000001F8020404020D1
:105080000000402020401F800000000009000600B2
:105090001F80060009000000040004003F80040097
:1050A000040000000010006000000000000000008C
:1050B000040004000400040004000000000000409C
:1050C0000000000000000000002001C006003800C1
:1050D000400000001F802040204020401F80000032
:1050E000000010403FC000400000000018C02140F8
:1050F00022402440184000001080204024402440DA
:105100001B80000002000D0011003FC001400000A4
:105110003C80244024402440238000001F80244001
:1051200024403440038000003000200027C03800B5
:10513000200000001B802440244024401B800000ED
:105140001C0022C0224022401F80000000000000FE
:1051500008400000000000000000000004600000A3
:1051600000000000000004000A0011002080404000
:105170000900090009000900090000000000404082
:10518000208011000A0004001800200023402400A1
:10519000180000001F802040274029401F400000C9
:1051A000004007C039000F0001C0004020403FC050
:1051B000244024401B8000001F80204020402040CD
:1051C0003080000020403FC0204020401F80000071
:1051D00020403FC024402E4030C0000020403FC04F
:1051E00024402E00300000000F001080204022409C
:1051F0003380020020403FC0040004003FC0204034
:10520000204020403FC0204020400000006020207F
:1052100020203FC02000200020403FC024400B0041
:1052200030C0204020403FC020400040004000C02F
:105230003FC03C0003C03C003FC0000020403FC0D6
:105240000C4023003FC020001F8020402040204011
:105250001F80000020403FC02440240018000000B0
:105260001F802140214020E01FA0000020403FC0BF
:105270002440260019C0004018C024402440224089
:1052800031800000300020403FC02040300000004E
:1052900020003F80004000403F80200020003E0072
:1052A00001C0070038002000380007C03C0007C0DC
:1052B00038000000204039C0060039C020400000FE
:1052C0002000384007C0384020000000304021C096
:1052D0002640384020C00000000000007FE0402051
:1052E00040200000000070000C000380004000001F
:1052F0000000402040207FE000000000000020006F
:1053000040002000000000000010001000100010FD
:10531000001000100000000040000000000000002D
:10532000000002800540054003C0004020003FC04F
:105330000440044003800000000003800440044057
:105340000640000000000380044024403FC00040AD
:1053500000000380054005400340000000000440B9
:105360001FC0244024402000000002E005500550EA
:105370000650042020403FC00440040003C0004009
:105380000000044027C00040000000000010001092
:10539000041027E00000000020403FC0014007004B
:1053A00004C00440204020403FC0004000400000B6
:1053B00007C0040007C0040003C00000044007C089
:1053C0000440040003C00040000003800440044087
:1053D00003800000041007F0045004400380000024
:1053E000000003800440045007F00010044007C090
:1053F0000240040004000000000006400540054093
:1054000004C00000000004001F80044000400000B1
:10541000040007800040044007C00040040007006B
:1054200004C0018006000400060001C0070001C09E
:1054300006000000044006C0010006C00440000051
:105440000410071004E0018006000400000004407E
:1054500005C00640044000000000000004007BE09E
:1054600040200000000000000000FFF000000000ED
:10547000000040207BE004000000000040008000AD
:10548000400020002000400000000000000000005C
:1054900000000000000000000000000000001FCC21
:1054A000000C000000000000000008003000600058
:1054B0000800300060000000022003FC1E200220D3
:1054C00003FC1E200220000000000E1811043FFF04
:1054D00010840C78000000000F0010840F3800C00A
:1054E000077818840078000000780F8410C4112415
:1054F0000E9800E4008400080800680070000000B6
:10550000000000000000000000000000000007E0B4
:10551000181820044002000000004002200418185F
:1055200007E00000000000000240024001800FF090
:1055300001800240024000000080008000800FF8DF
:1055400000800080008000000001000D000E0000BF
:1055500000000000000000000000008000800080CB
:1055600000800080008000800000000C000C000023
:1055700000000000000000000000000600180060AD
:105580000180060018002000000007F00808100441
:105590001004080807F000000000080408041FFCBD
:1055A000000400040000000000000E0C1014102481
:1055B000104411840E0C000000000C18100411049B
:1055C000110412880C700000000000E00320042485
:1055D00008241FFC0024000000001F981084110400
:1055E0001104108810700000000007F008881104F2
:1055F000110418880070000000001C00100010FC4E
:1056000013001C001000000000000E38114410842C
:10561000108411440E38000000000700088C10446C
:105620001044088807F00000000000000000030C90
:10563000030C000000000000000000000001010653
:105640000000000000000000000000800140022077
:10565000041008081004000002200220022002208A
:10566000022002200220000000001004080804109C
:10567000022001400080000000000E001200100C0B
:10568000106C10800F00000003E00C1813E41424C9
:1056900017C4082807D000000004003C03C41C40C5
:1056A000074000E4001C000410041FFC1104110456
:1056B00011040E880070000003E00C1810041004A0
:1056C000100410081C10000010041FFC100410042B
:1056D0001004080807F0000010041FFC1104110456
:1056E00017C410040818000010041FFC1104110056
:1056F00017C010000800000003E00C18100410048C
:1057000010441C780040000010041FFC108400802E
:10571000008010841FFC10040000100410041FFC03
:10572000100410040000000000030001100110012B
:105730001FFE10001000000010041FFC1104038065
:105740001464181C1004000010041FFC1004000452
:1057500000040004000C000010041FFC1F0000FCEB
:105760001F001FFC1004000010041FFC0C040300A9
:1057700000E010181FFC100007F0080810041004C7
:105780001004080807F0000010041FFC10841080AB
:10579000108010800F00000007F00818102410245B
:1057A000101C080A07F2000010041FFC110411006D
:1057B00011C011300E0C000400000E1C11041084E6
:1057C000108410441C3800001800100010041FFC46
:1057D000100410001800000010001FF8100400044E
:1057E000000410041FF8100010001E0011E0001C3F
:1057F000007013801C0010001FC0103C00E01F0050
:1058000000E0103C1FC000001004180C163401C04A
:1058100001C01634180C100410001C00130400FC06
:1058200013041C00100000000804101C10641084F5
:1058300013041C04101800000000000000007FFE8C
:105840004002400240020000000030000C000380D3
:105850000060001C00030000000040024002400203
:105860007FFE00000000000000000000200040005B
:105870004000400020000000000100010001000184
:105880000001000100010001000040004000200074
:105890000000000000000000000000980124014406
:1058A0000144014400FC000410001FFC00880104B6
:1058B00001040088007000000000007000880104EE
:1058C0000104010400880000000000700088010449
:1058D000010411081FFC0004000000F80144014409
:1058E0000144014400C800000000010401040FFC51
:1058F0001104110411001800000000D6012901292B
:10590000012901C90106000010041FFC00840100E8
:105910000100010400FC000400000104190419FC4A
:105920000004000400000000000000030001010169
:10593000190119FE0000000010041FFC00240040A3
:1059400001B4010C010400000000100410041FFC4D
:105950000004000400000000010401FC0104010037
:1059600001FC0104010000FC010401FC00840100B1
:105970000100010400FC0004000000F8010401041F
:105980000104010400F80000010101FF0085010489
:10599000010400880070000000000070008801040D
:1059A0000104010501FF00010104010401FC008460
:1059B0000104010001800000000000CC012401244A
:1059C000012401240198000000000100010007F8F3
:1059D0000104010400000000010001F800040004BB
:1059E0000004010801FC0004010001800170000CAA
:1059F000001001600180010001F0010C003001C0C5
:105A00000030010C01F0010000000104018C007461
:105A10000170018C01040000010101810171000E7F
:105A2000001801600180010000000184010C0134B4
:105A300001440184010C000000000000000000008F
:105A400001003EFC40024002000000000000000097
:105A5000FFFF0000000000000000400240023EFC8A
:105A600001000000000000000000600080008000D5
:105A70004000400020002000000000000000000066
:105A80000000000000000000000000000000000016
:105A90000000000000000000000000000000000006
:105AA00000000000000000000000000F80380FFE22
:105AB000380F8038000000000000000000000000E7
:105AC0000000000000000100000600000C0000388B
:105AD00000003100000600000C000038000030001B
